{
  "contractName": "Branch",
  "abi": [
    {
      "inputs": [
        {
          "internalType": "contract BranchManager",
          "name": "_parentContract",
          "type": "address"
        },
        {
          "internalType": "uint256",
          "name": "_idNumber",
          "type": "uint256"
        },
        {
          "internalType": "string",
          "name": "_location",
          "type": "string"
        }
      ],
      "stateMutability": "nonpayable",
      "type": "constructor"
    },
    {
      "inputs": [],
      "name": "idNumber",
      "outputs": [
        {
          "internalType": "uint256",
          "name": "",
          "type": "uint256"
        }
      ],
      "stateMutability": "view",
      "type": "function"
    },
    {
      "inputs": [],
      "name": "location",
      "outputs": [
        {
          "internalType": "string",
          "name": "",
          "type": "string"
        }
      ],
      "stateMutability": "view",
      "type": "function"
    }
  ],
  "bytecode": "0x608060405234801561001057600080fd5b506040516106d03803806106d0833981810160405281019061003291906101d6565b82600260006101000a81548173ffffffffffffffffffffffffffffffffffffffff021916908373ffffffffffffffffffffffffffffffffffffffff160217905550816001819055508060009080519060200190610090929190610099565b50505050610430565b8280546100a59061031c565b90600052602060002090601f0160209004810192826100c7576000855561010e565b82601f106100e057805160ff191683800117855561010e565b8280016001018555821561010e579182015b8281111561010d5782518255916020019190600101906100f2565b5b50905061011b919061011f565b5090565b5b80821115610138576000816000905550600101610120565b5090565b600061014f61014a8461026a565b610245565b90508281526020810184848401111561016b5761016a6103e2565b5b6101768482856102e9565b509392505050565b60008151905061018d81610402565b92915050565b600082601f8301126101a8576101a76103dd565b5b81516101b884826020860161013c565b91505092915050565b6000815190506101d081610419565b92915050565b6000806000606084860312156101ef576101ee6103ec565b5b60006101fd8682870161017e565b935050602061020e868287016101c1565b925050604084015167ffffffffffffffff81111561022f5761022e6103e7565b5b61023b86828701610193565b9150509250925092565b600061024f610260565b905061025b828261034e565b919050565b6000604051905090565b600067ffffffffffffffff821115610285576102846103ae565b5b61028e826103f1565b9050602081019050919050565b60006102a6826102bf565b9050919050565b60006102b88261029b565b9050919050565b600073ffffffffffffffffffffffffffffffffffffffff82169050919050565b6000819050919050565b60005b838110156103075780820151818401526020810190506102ec565b83811115610316576000848401525b50505050565b6000600282049050600182168061033457607f821691505b602082108114156103485761034761037f565b5b50919050565b610357826103f1565b810181811067ffffffffffffffff82111715610376576103756103ae565b5b80604052505050565b7f4e487b7100000000000000000000000000000000000000000000000000000000600052602260045260246000fd5b7f4e487b7100000000000000000000000000000000000000000000000000000000600052604160045260246000fd5b600080fd5b600080fd5b600080fd5b600080fd5b6000601f19601f8301169050919050565b61040b816102ad565b811461041657600080fd5b50565b610422816102df565b811461042d57600080fd5b50565b6102918061043f6000396000f3fe608060405234801561001057600080fd5b50600436106100365760003560e01c80633f83ea3b1461003b578063516f279e14610059575b600080fd5b610043610077565b6040516100509190610175565b60405180910390f35b61006161007d565b60405161006e9190610153565b60405180910390f35b60015481565b6000805461008a906101e9565b80601f01602080910402602001604051908101604052809291908181526020018280546100b6906101e9565b80156101035780601f106100d857610100808354040283529160200191610103565b820191906000526020600020905b8154815290600101906020018083116100e657829003601f168201915b505050505081565b600061011682610190565b610120818561019b565b93506101308185602086016101b6565b6101398161024a565b840191505092915050565b61014d816101ac565b82525050565b6000602082019050818103600083015261016d818461010b565b905092915050565b600060208201905061018a6000830184610144565b92915050565b600081519050919050565b600082825260208201905092915050565b6000819050919050565b60005b838110156101d45780820151818401526020810190506101b9565b838111156101e3576000848401525b50505050565b6000600282049050600182168061020157607f821691505b602082108114156102155761021461021b565b5b50919050565b7f4e487b7100000000000000000000000000000000000000000000000000000000600052602260045260246000fd5b6000601f19601f830116905091905056fea2646970667358221220d7049456d531617a01e763d78bd8d811655b1e25f9692f73f5a87271f32ca6d764736f6c63430008070033",
  "immutableReferences": {},
  "source": "pragma solidity ^0.8.7;\r\n\r\nimport \"./BranchManager.sol\";\r\n\r\ncontract Branch {\r\n    string public location;\r\n    uint256 public idNumber;\r\n\r\n    BranchManager parentContract;\r\n\r\n    constructor(BranchManager _parentContract, uint256 _idNumber, string memory _location) public {\r\n        parentContract = _parentContract;\r\n        idNumber = _idNumber;\r\n        location = _location;\r\n    }\r\n}\r\n\r\n",
  "sourcePath": "C:\\Users\\kcabu\\Documents\\New folder (2)\\thesis-ethereum\\truffle\\contracts\\Branch.sol",
  "compiler": {
    "name": "solc",
    "version": "0.8.7+commit.e28d00a7.Emscripten.clang"
  },
  "schemaVersion": "3.4.3",
  "updatedAt": "2021-10-26T13:18:39.953Z",
  "devdoc": {
    "kind": "dev",
    "methods": {},
    "version": 1
  },
  "userdoc": {
    "kind": "user",
    "methods": {},
    "version": 1
  }
}