{
  "contractName": "Branch",
  "abi": [
    {
      "inputs": [
        {
          "internalType": "uint256",
          "name": "",
          "type": "uint256"
        }
      ],
      "name": "branches",
      "outputs": [
        {
          "internalType": "string",
          "name": "location",
          "type": "string"
        },
        {
          "internalType": "uint256",
          "name": "idNumber",
          "type": "uint256"
        }
      ],
      "stateMutability": "view",
      "type": "function"
    },
    {
      "inputs": [
        {
          "internalType": "string",
          "name": "_location",
          "type": "string"
        },
        {
          "internalType": "uint256",
          "name": "_idNumber",
          "type": "uint256"
        }
      ],
      "name": "createBranch",
      "outputs": [],
      "stateMutability": "nonpayable",
      "type": "function"
    }
  ],
  "bytecode": "0x608060405234801561001057600080fd5b506106c4806100206000396000f3fe608060405234801561001057600080fd5b50600436106100365760003560e01c8063172fb22c1461003b57806383cc766014610057575b600080fd5b61005560048036038101906100509190610340565b610088565b005b610071600480360381019061006c919061039c565b61016c565b60405161007f929190610434565b60405180910390f35b60008054906101000a900473ffffffffffffffffffffffffffffffffffffffff1673ffffffffffffffffffffffffffffffffffffffff163373ffffffffffffffffffffffffffffffffffffffff1614610116576040517f08c379a000000000000000000000000000000000000000000000000000000000815260040161010d90610464565b60405180910390fd5b60405180604001604052808381526020018281525060016000838152602001908152602001600020600082015181600001908051906020019061015a929190610218565b50602082015181600101559050505050565b600160205280600052604060002060009150905080600001805461018f90610542565b80601f01602080910402602001604051908101604052809291908181526020018280546101bb90610542565b80156102085780601f106101dd57610100808354040283529160200191610208565b820191906000526020600020905b8154815290600101906020018083116101eb57829003601f168201915b5050505050908060010154905082565b82805461022490610542565b90600052602060002090601f016020900481019282610246576000855561028d565b82601f1061025f57805160ff191683800117855561028d565b8280016001018555821561028d579182015b8281111561028c578251825591602001919060010190610271565b5b50905061029a919061029e565b5090565b5b808211156102b757600081600090555060010161029f565b5090565b60006102ce6102c9846104a9565b610484565b9050828152602081018484840111156102ea576102e9610608565b5b6102f5848285610500565b509392505050565b600082601f83011261031257610311610603565b5b81356103228482602086016102bb565b91505092915050565b60008135905061033a81610677565b92915050565b6000806040838503121561035757610356610612565b5b600083013567ffffffffffffffff8111156103755761037461060d565b5b610381858286016102fd565b92505060206103928582860161032b565b9150509250929050565b6000602082840312156103b2576103b1610612565b5b60006103c08482850161032b565b91505092915050565b60006103d4826104da565b6103de81856104e5565b93506103ee81856020860161050f565b6103f781610617565b840191505092915050565b600061040f602e836104e5565b915061041a82610628565b604082019050919050565b61042e816104f6565b82525050565b6000604082019050818103600083015261044e81856103c9565b905061045d6020830184610425565b9392505050565b6000602082019050818103600083015261047d81610402565b9050919050565b600061048e61049f565b905061049a8282610574565b919050565b6000604051905090565b600067ffffffffffffffff8211156104c4576104c36105d4565b5b6104cd82610617565b9050602081019050919050565b600081519050919050565b600082825260208201905092915050565b6000819050919050565b82818337600083830152505050565b60005b8381101561052d578082015181840152602081019050610512565b8381111561053c576000848401525b50505050565b6000600282049050600182168061055a57607f821691505b6020821081141561056e5761056d6105a5565b5b50919050565b61057d82610617565b810181811067ffffffffffffffff8211171561059c5761059b6105d4565b5b80604052505050565b7f4e487b7100000000000000000000000000000000000000000000000000000000600052602260045260246000fd5b7f4e487b7100000000000000000000000000000000000000000000000000000000600052604160045260246000fd5b600080fd5b600080fd5b600080fd5b600080fd5b6000601f19601f8301169050919050565b7f596f75206d75737420626520616e206f776e657220746f20706572666f726d2060008201527f746869732066756e6374696f6e2e000000000000000000000000000000000000602082015250565b610680816104f6565b811461068b57600080fd5b5056fea26469706673582212205f0458da84a283fd2498ba73cc74c37494d02c0dc06afc4b94482dcbf7d83f8664736f6c63430008070033",
  "immutableReferences": {},
  "source": "pragma solidity ^0.8.7;\n\nimport \"./Ownable.sol\";\n\ncontract Branch is Owner {\n    struct PrcBranch {\n        string location;\n        uint256 idNumber;\n    }\n\n    mapping(uint256 => PrcBranch) public branches;\n\n    function createBranch(string memory _location, uint256 _idNumber)\n        public\n        onlyOwner\n    {\n        branches[_idNumber] = PrcBranch(_location, _idNumber);\n    }\n}\n",
  "sourcePath": "/home/thislexic/me/class2/thesis/thesis-ethereum/truffle/contracts/Branch.sol",
  "compiler": {
    "name": "solc",
    "version": "0.8.7+commit.e28d00a7.Emscripten.clang"
  },
  "schemaVersion": "3.4.3",
  "updatedAt": "2021-09-15T08:02:32.016Z",
  "devdoc": {
    "kind": "dev",
    "methods": {},
    "version": 1
  },
  "userdoc": {
    "kind": "user",
    "methods": {},
    "version": 1
  }
}