{
  "contractName": "Card",
  "abi": [
    {
      "inputs": [
        {
          "internalType": "contract Manager",
          "name": "_parentContract",
          "type": "address"
        },
        {
          "internalType": "address",
          "name": "_address",
          "type": "address"
        },
        {
          "internalType": "uint256",
          "name": "_idNumber",
          "type": "uint256"
        },
        {
          "internalType": "string",
          "name": "_ipfsHash",
          "type": "string"
        }
      ],
      "stateMutability": "nonpayable",
      "type": "constructor"
    },
    {
      "inputs": [],
      "name": "addr",
      "outputs": [
        {
          "internalType": "address",
          "name": "",
          "type": "address"
        }
      ],
      "stateMutability": "view",
      "type": "function"
    },
    {
      "inputs": [],
      "name": "idNumber",
      "outputs": [
        {
          "internalType": "uint256",
          "name": "",
          "type": "uint256"
        }
      ],
      "stateMutability": "view",
      "type": "function"
    },
    {
      "inputs": [],
      "name": "ipfsHash",
      "outputs": [
        {
          "internalType": "string",
          "name": "",
          "type": "string"
        }
      ],
      "stateMutability": "view",
      "type": "function"
    },
    {
      "inputs": [
        {
          "internalType": "string",
          "name": "_ipfsHash",
          "type": "string"
        }
      ],
      "name": "setHash",
      "outputs": [],
      "stateMutability": "nonpayable",
      "type": "function"
    },
    {
      "inputs": [],
      "name": "getHash",
      "outputs": [
        {
          "internalType": "string",
          "name": "",
          "type": "string"
        }
      ],
      "stateMutability": "view",
      "type": "function"
    }
  ],
  "bytecode": "0x60806040523480156200001157600080fd5b5060405162000b8538038062000b85833981810160405281019062000037919062000255565b83600360006101000a81548173ffffffffffffffffffffffffffffffffffffffff021916908373ffffffffffffffffffffffffffffffffffffffff160217905550826000806101000a81548173ffffffffffffffffffffffffffffffffffffffff021916908373ffffffffffffffffffffffffffffffffffffffff160217905550816001819055508060029080519060200190620000d7929190620000e2565b50505050506200050a565b828054620000f090620003cd565b90600052602060002090601f01602090048101928262000114576000855562000160565b82601f106200012f57805160ff191683800117855562000160565b8280016001018555821562000160579182015b828111156200015f57825182559160200191906001019062000142565b5b5090506200016f919062000173565b5090565b5b808211156200018e57600081600090555060010162000174565b5090565b6000620001a9620001a3846200030f565b620002e6565b905082815260208101848484011115620001c857620001c76200049c565b5b620001d584828562000397565b509392505050565b600081519050620001ee81620004bc565b92915050565b6000815190506200020581620004d6565b92915050565b600082601f83011262000223576200022262000497565b5b81516200023584826020860162000192565b91505092915050565b6000815190506200024f81620004f0565b92915050565b60008060008060808587031215620002725762000271620004a6565b5b60006200028287828801620001f4565b94505060206200029587828801620001dd565b9350506040620002a8878288016200023e565b925050606085015167ffffffffffffffff811115620002cc57620002cb620004a1565b5b620002da878288016200020b565b91505092959194509250565b6000620002f262000305565b905062000300828262000403565b919050565b6000604051905090565b600067ffffffffffffffff8211156200032d576200032c62000468565b5b6200033882620004ab565b9050602081019050919050565b600062000352826200036d565b9050919050565b6000620003668262000345565b9050919050565b600073ffffffffffffffffffffffffffffffffffffffff82169050919050565b6000819050919050565b60005b83811015620003b75780820151818401526020810190506200039a565b83811115620003c7576000848401525b50505050565b60006002820490506001821680620003e657607f821691505b60208210811415620003fd57620003fc62000439565b5b50919050565b6200040e82620004ab565b810181811067ffffffffffffffff8211171562000430576200042f62000468565b5b80604052505050565b7f4e487b7100000000000000000000000000000000000000000000000000000000600052602260045260246000fd5b7f4e487b7100000000000000000000000000000000000000000000000000000000600052604160045260246000fd5b600080fd5b600080fd5b600080fd5b600080fd5b6000601f19601f8301169050919050565b620004c78162000345565b8114620004d357600080fd5b50565b620004e18162000359565b8114620004ed57600080fd5b50565b620004fb816200038d565b81146200050757600080fd5b50565b61066b806200051a6000396000f3fe608060405234801561001057600080fd5b50600436106100575760003560e01c80631ed83fd41461005c5780633f83ea3b14610078578063767800de14610096578063c623674f146100b4578063d13319c4146100d2575b600080fd5b61007660048036038101906100719190610367565b6100f0565b005b61008061010a565b60405161008d9190610444565b60405180910390f35b61009e610110565b6040516100ab9190610407565b60405180910390f35b6100bc610134565b6040516100c99190610422565b60405180910390f35b6100da6101c2565b6040516100e79190610422565b60405180910390f35b8060029080519060200190610106929190610254565b5050565b60015481565b60008054906101000a900473ffffffffffffffffffffffffffffffffffffffff1681565b600280546101419061054f565b80601f016020809104026020016040519081016040528092919081815260200182805461016d9061054f565b80156101ba5780601f1061018f576101008083540402835291602001916101ba565b820191906000526020600020905b81548152906001019060200180831161019d57829003601f168201915b505050505081565b6060600280546101d19061054f565b80601f01602080910402602001604051908101604052809291908181526020018280546101fd9061054f565b801561024a5780601f1061021f5761010080835404028352916020019161024a565b820191906000526020600020905b81548152906001019060200180831161022d57829003601f168201915b5050505050905090565b8280546102609061054f565b90600052602060002090601f01602090048101928261028257600085556102c9565b82601f1061029b57805160ff19168380011785556102c9565b828001600101855582156102c9579182015b828111156102c85782518255916020019190600101906102ad565b5b5090506102d691906102da565b5090565b5b808211156102f35760008160009055506001016102db565b5090565b600061030a61030584610484565b61045f565b90508281526020810184848401111561032657610325610615565b5b61033184828561050d565b509392505050565b600082601f83011261034e5761034d610610565b5b813561035e8482602086016102f7565b91505092915050565b60006020828403121561037d5761037c61061f565b5b600082013567ffffffffffffffff81111561039b5761039a61061a565b5b6103a784828501610339565b91505092915050565b6103b9816104d1565b82525050565b60006103ca826104b5565b6103d481856104c0565b93506103e481856020860161051c565b6103ed81610624565b840191505092915050565b61040181610503565b82525050565b600060208201905061041c60008301846103b0565b92915050565b6000602082019050818103600083015261043c81846103bf565b905092915050565b600060208201905061045960008301846103f8565b92915050565b600061046961047a565b90506104758282610581565b919050565b6000604051905090565b600067ffffffffffffffff82111561049f5761049e6105e1565b5b6104a882610624565b9050602081019050919050565b600081519050919050565b600082825260208201905092915050565b60006104dc826104e3565b9050919050565b600073ffffffffffffffffffffffffffffffffffffffff82169050919050565b6000819050919050565b82818337600083830152505050565b60005b8381101561053a57808201518184015260208101905061051f565b83811115610549576000848401525b50505050565b6000600282049050600182168061056757607f821691505b6020821081141561057b5761057a6105b2565b5b50919050565b61058a82610624565b810181811067ffffffffffffffff821117156105a9576105a86105e1565b5b80604052505050565b7f4e487b7100000000000000000000000000000000000000000000000000000000600052602260045260246000fd5b7f4e487b7100000000000000000000000000000000000000000000000000000000600052604160045260246000fd5b600080fd5b600080fd5b600080fd5b600080fd5b6000601f19601f830116905091905056fea264697066735822122007134d55119670a5fe13a81698c802950ee5bd204fd78817252243df16503bd264736f6c63430008070033",
  "immutableReferences": {},
  "source": "pragma solidity ^0.8.7;\r\n\r\nimport \"./Manager.sol\";\r\n\r\ncontract Card {\r\n    address public addr;\r\n    uint256 public idNumber;\r\n    string public ipfsHash;\r\n\r\n    Manager parentContract;\r\n\r\n    constructor(\r\n        Manager _parentContract,\r\n        address _address,\r\n        uint256 _idNumber,\r\n        string memory _ipfsHash\r\n    ) public {\r\n        parentContract = _parentContract;\r\n        addr = _address;\r\n        idNumber = _idNumber;\r\n        ipfsHash = _ipfsHash;\r\n    }\r\n\r\n    function setHash(string memory _ipfsHash) public {\r\n        ipfsHash = _ipfsHash;\r\n    }\r\n\r\n    function getHash() public view returns (string memory) {\r\n        return ipfsHash;\r\n    }\r\n}\r\n",
  "sourcePath": "C:\\Users\\kcabu\\Documents\\New folder (2)\\thesis-ethereum\\truffle\\contracts\\Card.sol",
  "compiler": {
    "name": "solc",
    "version": "0.8.7+commit.e28d00a7.Emscripten.clang"
  },
  "schemaVersion": "3.4.3",
  "updatedAt": "2022-03-12T08:26:27.399Z",
  "devdoc": {
    "kind": "dev",
    "methods": {},
    "version": 1
  },
  "userdoc": {
    "kind": "user",
    "methods": {},
    "version": 1
  }
}