{
  "contractName": "Card",
  "abi": [
    {
      "inputs": [],
      "stateMutability": "nonpayable",
      "type": "constructor"
    },
    {
      "anonymous": false,
      "inputs": [
        {
          "indexed": false,
          "internalType": "uint256",
          "name": "_idNumber",
          "type": "uint256"
        },
        {
          "indexed": false,
          "internalType": "uint256",
          "name": "_issuedOn",
          "type": "uint256"
        }
      ],
      "name": "InvalidateCard",
      "type": "event"
    },
    {
      "inputs": [
        {
          "internalType": "uint256",
          "name": "",
          "type": "uint256"
        }
      ],
      "name": "branches",
      "outputs": [
        {
          "internalType": "string",
          "name": "location",
          "type": "string"
        },
        {
          "internalType": "uint256",
          "name": "idNumber",
          "type": "uint256"
        }
      ],
      "stateMutability": "view",
      "type": "function",
      "constant": true
    },
    {
      "inputs": [],
      "name": "cardCount",
      "outputs": [
        {
          "internalType": "uint256",
          "name": "",
          "type": "uint256"
        }
      ],
      "stateMutability": "view",
      "type": "function",
      "constant": true
    },
    {
      "inputs": [
        {
          "internalType": "uint256",
          "name": "",
          "type": "uint256"
        }
      ],
      "name": "cards",
      "outputs": [
        {
          "internalType": "uint256",
          "name": "index",
          "type": "uint256"
        },
        {
          "internalType": "string",
          "name": "name",
          "type": "string"
        },
        {
          "internalType": "uint256",
          "name": "idNumber",
          "type": "uint256"
        },
        {
          "internalType": "bool",
          "name": "isValid",
          "type": "bool"
        },
        {
          "internalType": "string",
          "name": "profession",
          "type": "string"
        },
        {
          "internalType": "uint256",
          "name": "dateOfBirth",
          "type": "uint256"
        },
        {
          "internalType": "uint256",
          "name": "expirationDate",
          "type": "uint256"
        },
        {
          "components": [
            {
              "internalType": "string",
              "name": "location",
              "type": "string"
            },
            {
              "internalType": "uint256",
              "name": "idNumber",
              "type": "uint256"
            }
          ],
          "internalType": "struct Branch.PrcBranch",
          "name": "issuedAt",
          "type": "tuple"
        },
        {
          "internalType": "uint256",
          "name": "issuedOnCount",
          "type": "uint256"
        }
      ],
      "stateMutability": "view",
      "type": "function",
      "constant": true
    },
    {
      "inputs": [
        {
          "internalType": "string",
          "name": "_location",
          "type": "string"
        },
        {
          "internalType": "uint256",
          "name": "_idNumber",
          "type": "uint256"
        }
      ],
      "name": "createBranch",
      "outputs": [],
      "stateMutability": "nonpayable",
      "type": "function"
    },
    {
      "inputs": [
        {
          "internalType": "string",
          "name": "_name",
          "type": "string"
        },
        {
          "internalType": "uint256",
          "name": "_idNumber",
          "type": "uint256"
        },
        {
          "internalType": "uint256",
          "name": "_idNumberBranch",
          "type": "uint256"
        },
        {
          "internalType": "string",
          "name": "_profession",
          "type": "string"
        },
        {
          "internalType": "uint256",
          "name": "_dateOfBirth",
          "type": "uint256"
        },
        {
          "internalType": "uint256",
          "name": "_expirationDate",
          "type": "uint256"
        }
      ],
      "name": "createCard",
      "outputs": [],
      "stateMutability": "nonpayable",
      "type": "function"
    },
    {
      "inputs": [
        {
          "internalType": "uint256",
          "name": "_idNumber",
          "type": "uint256"
        }
      ],
      "name": "revalidateCard",
      "outputs": [],
      "stateMutability": "nonpayable",
      "type": "function"
    },
    {
      "inputs": [
        {
          "internalType": "uint256",
          "name": "_idNumber",
          "type": "uint256"
        }
      ],
      "name": "invalidateCard",
      "outputs": [],
      "stateMutability": "nonpayable",
      "type": "function"
    },
    {
      "inputs": [
        {
          "internalType": "uint256",
          "name": "_idNumber",
          "type": "uint256"
        }
      ],
      "name": "getCardIssuedOn",
      "outputs": [
        {
          "internalType": "uint256",
          "name": "",
          "type": "uint256"
        }
      ],
      "stateMutability": "view",
      "type": "function",
      "constant": true
    },
    {
      "inputs": [
        {
          "internalType": "uint256",
          "name": "_idNumber",
          "type": "uint256"
        }
      ],
      "name": "getCardInfo",
      "outputs": [
        {
          "internalType": "uint256",
          "name": "",
          "type": "uint256"
        },
        {
          "internalType": "string",
          "name": "",
          "type": "string"
        },
        {
          "internalType": "bool",
          "name": "",
          "type": "bool"
        },
        {
          "internalType": "string",
          "name": "",
          "type": "string"
        },
        {
          "internalType": "uint256",
          "name": "",
          "type": "uint256"
        },
        {
          "internalType": "uint256",
          "name": "",
          "type": "uint256"
        }
      ],
      "stateMutability": "view",
      "type": "function",
      "constant": true
    },
    {
      "inputs": [],
      "name": "getCardCount",
      "outputs": [
        {
          "internalType": "uint256",
          "name": "",
          "type": "uint256"
        }
      ],
      "stateMutability": "view",
      "type": "function",
      "constant": true
    }
  ],
  "bytecode": "0x608060405234801561001057600080fd5b50336000806101000a81548173ffffffffffffffffffffffffffffffffffffffff021916908373ffffffffffffffffffffffffffffffffffffffff16021790555060006002819055506114fa806100686000396000f3fe608060405234801561001057600080fd5b506004361061009e5760003560e01c8063970129be11610066578063970129be146101645780639dcb8e7814610199578063a876d238146101b5578063adbee9bf146101d1578063d4fd4acd146102015761009e565b8063172fb22c146100a35780631b6cde10146100bf5780637d620130146100dd57806383cc7660146100fb5780638dc107681461012c575b600080fd5b6100bd60048036038101906100b89190610ddd565b61021d565b005b6100c7610301565b6040516100d4919061107a565b60405180910390f35b6100e5610307565b6040516100f2919061107a565b60405180910390f35b61011560048036038101906101109190610efe565b610311565b60405161012392919061102a565b60405180910390f35b61014660048036038101906101419190610efe565b6103bd565b60405161015b99989796959493929190611104565b60405180910390f35b61017e60048036038101906101799190610efe565b6105ce565b60405161019096959493929190611095565b60405180910390f35b6101b360048036038101906101ae9190610efe565b610747565b005b6101cf60048036038101906101ca9190610e39565b610875565b005b6101eb60048036038101906101e69190610efe565b610b6d565b6040516101f8919061107a565b60405180910390f35b61021b60048036038101906102169190610efe565b610bb4565b005b60008054906101000a900473ffffffffffffffffffffffffffffffffffffffff1673ffffffffffffffffffffffffffffffffffffffff163373ffffffffffffffffffffffffffffffffffffffff16146102ab576040517f08c379a00000000000000000000000000000000000000000000000000000000081526004016102a29061105a565b60405180910390fd5b6040518060400160405280838152602001828152506001600083815260200190815260200160002060008201518160000190805190602001906102ef929190610cb5565b50602082015181600101559050505050565b60025481565b6000600254905090565b600160205280600052604060002060009150905080600001805461033490611300565b80601f016020809104026020016040519081016040528092919081815260200182805461036090611300565b80156103ad5780601f10610382576101008083540402835291602001916103ad565b820191906000526020600020905b81548152906001019060200180831161039057829003601f168201915b5050505050908060010154905082565b60036020528060005260406000206000915090508060000154908060010180546103e690611300565b80601f016020809104026020016040519081016040528092919081815260200182805461041290611300565b801561045f5780601f106104345761010080835404028352916020019161045f565b820191906000526020600020905b81548152906001019060200180831161044257829003601f168201915b5050505050908060020154908060030160009054906101000a900460ff169080600401805461048d90611300565b80601f01602080910402602001604051908101604052809291908181526020018280546104b990611300565b80156105065780601f106104db57610100808354040283529160200191610506565b820191906000526020600020905b8154815290600101906020018083116104e957829003601f168201915b5050505050908060050154908060060154908060070160405180604001604052908160008201805461053790611300565b80601f016020809104026020016040519081016040528092919081815260200182805461056390611300565b80156105b05780601f10610585576101008083540402835291602001916105b0565b820191906000526020600020905b81548152906001019060200180831161059357829003601f168201915b50505050508152602001600182015481525050908060090154905089565b600060606000606060008060006003600089815260200190815260200160002090508060020154816001018260030160009054906101000a900460ff16836004018460050154856006015484805461062590611300565b80601f016020809104026020016040519081016040528092919081815260200182805461065190611300565b801561069e5780601f106106735761010080835404028352916020019161069e565b820191906000526020600020905b81548152906001019060200180831161068157829003601f168201915b505050505094508280546106b190611300565b80601f01602080910402602001604051908101604052809291908181526020018280546106dd90611300565b801561072a5780601f106106ff5761010080835404028352916020019161072a565b820191906000526020600020905b81548152906001019060200180831161070d57829003601f168201915b505050505092509650965096509650965096505091939550919395565b60008054906101000a900473ffffffffffffffffffffffffffffffffffffffff1673ffffffffffffffffffffffffffffffffffffffff163373ffffffffffffffffffffffffffffffffffffffff16146107d5576040517f08c379a00000000000000000000000000000000000000000000000000000000081526004016107cc9061105a565b60405180910390fd5b60016003600083815260200190815260200160002060030160006101000a81548160ff02191690831515021790555060036000828152602001908152602001600020600901600081548092919061082b90611363565b91905055504260036000838152602001908152602001600020600a016000600360008581526020019081526020016000206009015481526020019081526020016000208190555050565b60008054906101000a900473ffffffffffffffffffffffffffffffffffffffff1673ffffffffffffffffffffffffffffffffffffffff163373ffffffffffffffffffffffffffffffffffffffff1614610903576040517f08c379a00000000000000000000000000000000000000000000000000000000081526004016108fa9061105a565b60405180910390fd5b60006001600086815260200190815260200160002060405180604001604052908160008201805461093390611300565b80601f016020809104026020016040519081016040528092919081815260200182805461095f90611300565b80156109ac5780601f10610981576101008083540402835291602001916109ac565b820191906000526020600020905b81548152906001019060200180831161098f57829003601f168201915b50505050508152602001600182015481525050905060016002546109d09190611252565b600360008881526020019081526020016000206000018190555086600360008881526020019081526020016000206001019080519060200190610a14929190610cb5565b5085600360008881526020019081526020016000206002018190555083600360008881526020019081526020016000206004019080519060200190610a5a929190610cb5565b5082600360008881526020019081526020016000206005018190555081600360008881526020019081526020016000206006018190555060016003600088815260200190815260200160002060030160006101000a81548160ff02191690831515021790555080600360008881526020019081526020016000206007016000820151816000019080519060200190610af3929190610cb5565b5060208201518160010155905050600160036000888152602001908152602001600020600901819055504260036000888152602001908152602001600020600a0160006001815260200190815260200160002081905550600160026000828254610b5d9190611252565b9250508190555050505050505050565b600060036000838152602001908152602001600020600a01600060036000858152602001908152602001600020600901548152602001908152602001600020549050919050565b60008054906101000a900473ffffffffffffffffffffffffffffffffffffffff1673ffffffffffffffffffffffffffffffffffffffff163373ffffffffffffffffffffffffffffffffffffffff1614610c42576040517f08c379a0000000000000000000000000000000000000000000000000000000008152600401610c399061105a565b60405180910390fd5b60006003600083815260200190815260200160002060030160006101000a81548160ff0219169083151502179055507f18e157e0458a7b81b7dc50365aeba841792d568f84fa35e6fcdc5cc580beb68281610c9c83610b6d565b604051610caa9291906111a6565b60405180910390a150565b828054610cc190611300565b90600052602060002090601f016020900481019282610ce35760008555610d2a565b82601f10610cfc57805160ff1916838001178555610d2a565b82800160010185558215610d2a579182015b82811115610d29578251825591602001919060010190610d0e565b5b509050610d379190610d3b565b5090565b5b80821115610d54576000816000905550600101610d3c565b5090565b6000610d6b610d66846111f4565b6111cf565b905082815260208101848484011115610d8757610d8661143e565b5b610d928482856112be565b509392505050565b600082601f830112610daf57610dae611439565b5b8135610dbf848260208601610d58565b91505092915050565b600081359050610dd7816114ad565b92915050565b60008060408385031215610df457610df3611448565b5b600083013567ffffffffffffffff811115610e1257610e11611443565b5b610e1e85828601610d9a565b9250506020610e2f85828601610dc8565b9150509250929050565b60008060008060008060c08789031215610e5657610e55611448565b5b600087013567ffffffffffffffff811115610e7457610e73611443565b5b610e8089828a01610d9a565b9650506020610e9189828a01610dc8565b9550506040610ea289828a01610dc8565b945050606087013567ffffffffffffffff811115610ec357610ec2611443565b5b610ecf89828a01610d9a565b9350506080610ee089828a01610dc8565b92505060a0610ef189828a01610dc8565b9150509295509295509295565b600060208284031215610f1457610f13611448565b5b6000610f2284828501610dc8565b91505092915050565b610f34816112a8565b82525050565b6000610f4582611225565b610f4f8185611230565b9350610f5f8185602086016112cd565b610f688161144d565b840191505092915050565b6000610f7e82611225565b610f888185611241565b9350610f988185602086016112cd565b610fa18161144d565b840191505092915050565b6000610fb9602e83611241565b9150610fc48261145e565b604082019050919050565b60006040830160008301518482036000860152610fec8282610f3a565b9150506020830151611001602086018261100c565b508091505092915050565b611015816112b4565b82525050565b611024816112b4565b82525050565b600060408201905081810360008301526110448185610f73565b9050611053602083018461101b565b9392505050565b6000602082019050818103600083015261107381610fac565b9050919050565b600060208201905061108f600083018461101b565b92915050565b600060c0820190506110aa600083018961101b565b81810360208301526110bc8188610f73565b90506110cb6040830187610f2b565b81810360608301526110dd8186610f73565b90506110ec608083018561101b565b6110f960a083018461101b565b979650505050505050565b60006101208201905061111a600083018c61101b565b818103602083015261112c818b610f73565b905061113b604083018a61101b565b6111486060830189610f2b565b818103608083015261115a8188610f73565b905061116960a083018761101b565b61117660c083018661101b565b81810360e08301526111888185610fcf565b905061119861010083018461101b565b9a9950505050505050505050565b60006040820190506111bb600083018561101b565b6111c8602083018461101b565b9392505050565b60006111d96111ea565b90506111e58282611332565b919050565b6000604051905090565b600067ffffffffffffffff82111561120f5761120e61140a565b5b6112188261144d565b9050602081019050919050565b600081519050919050565b600082825260208201905092915050565b600082825260208201905092915050565b600061125d826112b4565b9150611268836112b4565b9250827fffffffffffffffffffffffffffffffffffffffffffffffffffffffffffffffff0382111561129d5761129c6113ac565b5b828201905092915050565b60008115159050919050565b6000819050919050565b82818337600083830152505050565b60005b838110156112eb5780820151818401526020810190506112d0565b838111156112fa576000848401525b50505050565b6000600282049050600182168061131857607f821691505b6020821081141561132c5761132b6113db565b5b50919050565b61133b8261144d565b810181811067ffffffffffffffff8211171561135a5761135961140a565b5b80604052505050565b600061136e826112b4565b91507fffffffffffffffffffffffffffffffffffffffffffffffffffffffffffffffff8214156113a1576113a06113ac565b5b600182019050919050565b7f4e487b7100000000000000000000000000000000000000000000000000000000600052601160045260246000fd5b7f4e487b7100000000000000000000000000000000000000000000000000000000600052602260045260246000fd5b7f4e487b7100000000000000000000000000000000000000000000000000000000600052604160045260246000fd5b600080fd5b600080fd5b600080fd5b600080fd5b6000601f19601f8301169050919050565b7f596f75206d75737420626520616e206f776e657220746f20706572666f726d2060008201527f746869732066756e6374696f6e2e000000000000000000000000000000000000602082015250565b6114b6816112b4565b81146114c157600080fd5b5056fea26469706673582212207140deefed0c70ccd3325436bdd5f7becdd59249bc08fdb4a2f61bfe2e62cf2f64736f6c63430008070033",
  "immutableReferences": {},
  "source": "pragma solidity ^0.8.7;\r\n\r\nimport \"./Branch.sol\";\r\n\r\ncontract Card is Branch {\r\n    \r\n    uint256 public cardCount; \r\n\r\n    struct PRCCard {\r\n        uint256 index;\r\n        string name;\r\n        uint256 idNumber;\r\n        bool isValid;\r\n        string profession; \r\n        uint256 dateOfBirth;\r\n        uint256 expirationDate;\r\n        PrcBranch issuedAt;\r\n        uint256 issuedOnCount;\r\n        mapping(uint256 => uint256) issuedOn;\r\n    }\r\n\r\n    mapping(uint256 => PRCCard) public cards;\r\n\r\n    event InvalidateCard(uint256 _idNumber, uint256 _issuedOn);\r\n\r\n    constructor() {\r\n        owner = msg.sender;\r\n        cardCount = 0;\r\n    }\r\n\r\n    function createCard(\r\n        string memory _name,\r\n        uint256 _idNumber,\r\n        uint256 _idNumberBranch,\r\n        string memory _profession,\r\n        uint256 _dateOfBirth,\r\n        uint256 _expirationDate\r\n    ) \r\n    \r\n    public onlyOwner {\r\n        PrcBranch memory branch = branches[_idNumberBranch];\r\n\r\n        cards[_idNumber].index = cardCount+1;\r\n        cards[_idNumber].name = _name;\r\n        cards[_idNumber].idNumber = _idNumber;\r\n        cards[_idNumber].profession = _profession;\r\n        cards[_idNumber].dateOfBirth = _dateOfBirth;\r\n        cards[_idNumber].expirationDate = _expirationDate;\r\n        cards[_idNumber].isValid = true;\r\n        cards[_idNumber].issuedAt = branch;\r\n        cards[_idNumber].issuedOnCount = 1;\r\n        cards[_idNumber].issuedOn[1] = block.timestamp;\r\n        cardCount += 1;\r\n    }\r\n\r\n    function revalidateCard(uint256 _idNumber) public onlyOwner {\r\n        cards[_idNumber].isValid = true;\r\n        cards[_idNumber].issuedOnCount++;\r\n        cards[_idNumber].issuedOn[cards[_idNumber].issuedOnCount] = block\r\n            .timestamp;\r\n    }\r\n\r\n    function invalidateCard(uint256 _idNumber) public onlyOwner {\r\n        cards[_idNumber].isValid = false;\r\n        emit InvalidateCard(_idNumber, getCardIssuedOn(_idNumber));\r\n    }\r\n\r\n    function getCardIssuedOn(uint256 _idNumber) public view returns (uint256) {\r\n        return cards[_idNumber].issuedOn[cards[_idNumber].issuedOnCount];\r\n    }\r\n\r\n    function getCardInfo(uint256 _idNumber) public view returns (uint256, string memory, bool, string memory, uint256, uint256){\r\n        PRCCard storage c = cards[_idNumber];\r\n        return (c.idNumber, c.name, c.isValid, c.profession, c.dateOfBirth, c.expirationDate);\r\n    }\r\n\r\n    function getCardCount() public view returns (uint256) {\r\n        return cardCount;\r\n    }\r\n}",
  "sourcePath": "C:\\Users\\kcabu\\Documents\\thesis-ethereum\\truffle\\contracts\\Card.sol",
  "compiler": {
    "name": "solc",
    "version": "0.8.7+commit.e28d00a7.Emscripten.clang"
  },
  "schemaVersion": "3.4.3",
  "updatedAt": "2021-10-11T05:29:15.460Z",
  "networkType": "ethereum",
  "devdoc": {
    "kind": "dev",
    "methods": {},
    "version": 1
  },
  "userdoc": {
    "kind": "user",
    "methods": {},
    "version": 1
  }
}