{
  "contractName": "Card",
  "abi": [
    {
      "inputs": [
        {
          "internalType": "contract CardManager",
          "name": "_parentContract",
          "type": "address"
        },
        {
          "internalType": "string",
          "name": "_branch",
          "type": "string"
        },
        {
          "internalType": "uint256",
          "name": "_idNumber",
          "type": "uint256"
        },
        {
          "internalType": "string",
          "name": "_name",
          "type": "string"
        },
        {
          "internalType": "string",
          "name": "_ipfsHash",
          "type": "string"
        }
      ],
      "stateMutability": "nonpayable",
      "type": "constructor"
    },
    {
      "inputs": [],
      "name": "branch",
      "outputs": [
        {
          "internalType": "string",
          "name": "",
          "type": "string"
        }
      ],
      "stateMutability": "view",
      "type": "function"
    },
    {
      "inputs": [],
      "name": "idNumber",
      "outputs": [
        {
          "internalType": "uint256",
          "name": "",
          "type": "uint256"
        }
      ],
      "stateMutability": "view",
      "type": "function"
    },
    {
      "inputs": [],
      "name": "ipfsHash",
      "outputs": [
        {
          "internalType": "string",
          "name": "",
          "type": "string"
        }
      ],
      "stateMutability": "view",
      "type": "function"
    },
    {
      "inputs": [],
      "name": "isValid",
      "outputs": [
        {
          "internalType": "bool",
          "name": "",
          "type": "bool"
        }
      ],
      "stateMutability": "view",
      "type": "function"
    },
    {
      "inputs": [
        {
          "internalType": "uint256",
          "name": "",
          "type": "uint256"
        }
      ],
      "name": "issuedOn",
      "outputs": [
        {
          "internalType": "uint256",
          "name": "",
          "type": "uint256"
        }
      ],
      "stateMutability": "view",
      "type": "function"
    },
    {
      "inputs": [],
      "name": "issuedOnCount",
      "outputs": [
        {
          "internalType": "uint256",
          "name": "",
          "type": "uint256"
        }
      ],
      "stateMutability": "view",
      "type": "function"
    },
    {
      "inputs": [],
      "name": "name",
      "outputs": [
        {
          "internalType": "string",
          "name": "",
          "type": "string"
        }
      ],
      "stateMutability": "view",
      "type": "function"
    },
    {
      "inputs": [
        {
          "internalType": "string",
          "name": "_ipfsHash",
          "type": "string"
        }
      ],
      "name": "setHash",
      "outputs": [],
      "stateMutability": "nonpayable",
      "type": "function"
    },
    {
      "inputs": [],
      "name": "getHash",
      "outputs": [
        {
          "internalType": "string",
          "name": "",
          "type": "string"
        }
      ],
      "stateMutability": "view",
      "type": "function"
    }
  ],
  "bytecode": "0x60806040523480156200001157600080fd5b5060405162000df938038062000df983398181016040528101906200003791906200026d565b84600760006101000a81548173ffffffffffffffffffffffffffffffffffffffff021916908373ffffffffffffffffffffffffffffffffffffffff16021790555081600090805190602001906200009092919062000111565b50826001819055506001600260006101000a81548160ff0219169083151502179055508360039080519060200190620000cb92919062000111565b5060016004819055504260056000600181526020019081526020016000208190555080600690805190602001906200010592919062000111565b5050505050506200055c565b8280546200011f9062000439565b90600052602060002090601f0160209004810192826200014357600085556200018f565b82601f106200015e57805160ff19168380011785556200018f565b828001600101855582156200018f579182015b828111156200018e57825182559160200191906001019062000171565b5b5090506200019e9190620001a2565b5090565b5b80821115620001bd576000816000905550600101620001a3565b5090565b6000620001d8620001d2846200037b565b62000352565b905082815260208101848484011115620001f757620001f662000508565b5b6200020484828562000403565b509392505050565b6000815190506200021d8162000528565b92915050565b600082601f8301126200023b576200023a62000503565b5b81516200024d848260208601620001c1565b91505092915050565b600081519050620002678162000542565b92915050565b600080600080600060a086880312156200028c576200028b62000512565b5b60006200029c888289016200020c565b955050602086015167ffffffffffffffff811115620002c057620002bf6200050d565b5b620002ce8882890162000223565b9450506040620002e18882890162000256565b935050606086015167ffffffffffffffff8111156200030557620003046200050d565b5b620003138882890162000223565b925050608086015167ffffffffffffffff8111156200033757620003366200050d565b5b620003458882890162000223565b9150509295509295909350565b60006200035e62000371565b90506200036c82826200046f565b919050565b6000604051905090565b600067ffffffffffffffff821115620003995762000398620004d4565b5b620003a48262000517565b9050602081019050919050565b6000620003be82620003d9565b9050919050565b6000620003d282620003b1565b9050919050565b600073ffffffffffffffffffffffffffffffffffffffff82169050919050565b6000819050919050565b60005b838110156200042357808201518184015260208101905062000406565b8381111562000433576000848401525b50505050565b600060028204905060018216806200045257607f821691505b60208210811415620004695762000468620004a5565b5b50919050565b6200047a8262000517565b810181811067ffffffffffffffff821117156200049c576200049b620004d4565b5b80604052505050565b7f4e487b7100000000000000000000000000000000000000000000000000000000600052602260045260246000fd5b7f4e487b7100000000000000000000000000000000000000000000000000000000600052604160045260246000fd5b600080fd5b600080fd5b600080fd5b600080fd5b6000601f19601f8301169050919050565b6200053381620003c5565b81146200053f57600080fd5b50565b6200054d81620003f9565b81146200055957600080fd5b50565b61088d806200056c6000396000f3fe608060405234801561001057600080fd5b50600436106100935760003560e01c80634c2e7fe9116100665780634c2e7fe91461010e578063bb5d40eb1461012c578063c623674f1461014a578063d13319c414610168578063eb47b01d1461018657610093565b806306fdde03146100985780631ed83fd4146100b65780633f83ea3b146100d25780634b72d0d4146100f0575b600080fd5b6100a06101b6565b6040516100ad9190610653565b60405180910390f35b6100d060048036038101906100cb919061056b565b610244565b005b6100da61025e565b6040516100e79190610675565b60405180910390f35b6100f8610264565b6040516101059190610653565b60405180910390f35b6101166102f2565b6040516101239190610675565b60405180910390f35b6101346102f8565b6040516101419190610638565b60405180910390f35b61015261030b565b60405161015f9190610653565b60405180910390f35b610170610399565b60405161017d9190610653565b60405180910390f35b6101a0600480360381019061019b91906105b4565b61042b565b6040516101ad9190610675565b60405180910390f35b600080546101c39061075a565b80601f01602080910402602001604051908101604052809291908181526020018280546101ef9061075a565b801561023c5780601f106102115761010080835404028352916020019161023c565b820191906000526020600020905b81548152906001019060200180831161021f57829003601f168201915b505050505081565b806006908051906020019061025a929190610443565b5050565b60015481565b600380546102719061075a565b80601f016020809104026020016040519081016040528092919081815260200182805461029d9061075a565b80156102ea5780601f106102bf576101008083540402835291602001916102ea565b820191906000526020600020905b8154815290600101906020018083116102cd57829003601f168201915b505050505081565b60045481565b600260009054906101000a900460ff1681565b600680546103189061075a565b80601f01602080910402602001604051908101604052809291908181526020018280546103449061075a565b80156103915780601f1061036657610100808354040283529160200191610391565b820191906000526020600020905b81548152906001019060200180831161037457829003601f168201915b505050505081565b6060600680546103a89061075a565b80601f01602080910402602001604051908101604052809291908181526020018280546103d49061075a565b80156104215780601f106103f657610100808354040283529160200191610421565b820191906000526020600020905b81548152906001019060200180831161040457829003601f168201915b5050505050905090565b60056020528060005260406000206000915090505481565b82805461044f9061075a565b90600052602060002090601f01602090048101928261047157600085556104b8565b82601f1061048a57805160ff19168380011785556104b8565b828001600101855582156104b8579182015b828111156104b757825182559160200191906001019061049c565b5b5090506104c591906104c9565b5090565b5b808211156104e25760008160009055506001016104ca565b5090565b60006104f96104f4846106b5565b610690565b90508281526020810184848401111561051557610514610820565b5b610520848285610718565b509392505050565b600082601f83011261053d5761053c61081b565b5b813561054d8482602086016104e6565b91505092915050565b60008135905061056581610840565b92915050565b6000602082840312156105815761058061082a565b5b600082013567ffffffffffffffff81111561059f5761059e610825565b5b6105ab84828501610528565b91505092915050565b6000602082840312156105ca576105c961082a565b5b60006105d884828501610556565b91505092915050565b6105ea81610702565b82525050565b60006105fb826106e6565b61060581856106f1565b9350610615818560208601610727565b61061e8161082f565b840191505092915050565b6106328161070e565b82525050565b600060208201905061064d60008301846105e1565b92915050565b6000602082019050818103600083015261066d81846105f0565b905092915050565b600060208201905061068a6000830184610629565b92915050565b600061069a6106ab565b90506106a6828261078c565b919050565b6000604051905090565b600067ffffffffffffffff8211156106d0576106cf6107ec565b5b6106d98261082f565b9050602081019050919050565b600081519050919050565b600082825260208201905092915050565b60008115159050919050565b6000819050919050565b82818337600083830152505050565b60005b8381101561074557808201518184015260208101905061072a565b83811115610754576000848401525b50505050565b6000600282049050600182168061077257607f821691505b60208210811415610786576107856107bd565b5b50919050565b6107958261082f565b810181811067ffffffffffffffff821117156107b4576107b36107ec565b5b80604052505050565b7f4e487b7100000000000000000000000000000000000000000000000000000000600052602260045260246000fd5b7f4e487b7100000000000000000000000000000000000000000000000000000000600052604160045260246000fd5b600080fd5b600080fd5b600080fd5b600080fd5b6000601f19601f8301169050919050565b6108498161070e565b811461085457600080fd5b5056fea26469706673582212202beec4d941ae0c4258f7c791a78cecbbf36f48dd03b05bd6996c86a1b61456e564736f6c63430008070033",
  "immutableReferences": {},
  "source": "pragma solidity ^0.8.7;\r\n\r\nimport \"./CardManager.sol\";\r\n\r\ncontract Card {\r\n    string public name;\r\n    uint256 public idNumber;\r\n    bool public isValid;\r\n    string public branch;\r\n    uint256 public issuedOnCount;\r\n    mapping(uint256 => uint256) public issuedOn;\r\n    string public ipfsHash;\r\n\r\n    CardManager parentContract;\r\n\r\n    constructor(CardManager _parentContract, string memory _branch, uint256 _idNumber, string memory _name, string memory _ipfsHash) public {\r\n        parentContract = _parentContract;\r\n        name = _name;\r\n        idNumber = _idNumber;\r\n        isValid = true;\r\n        branch = _branch;\r\n        issuedOnCount = 1;\r\n        issuedOn[1] = block.timestamp;\r\n        ipfsHash = _ipfsHash;\r\n    }\r\n\r\n    function setHash(string memory _ipfsHash) public {\r\n        ipfsHash = _ipfsHash;\r\n    }\r\n\r\n    function getHash() public view returns (string memory) {\r\n        return ipfsHash;\r\n    }\r\n    \r\n}\r\n\r\n",
  "sourcePath": "C:\\Users\\kcabu\\Documents\\New folder (2)\\thesis-ethereum\\truffle\\contracts\\Card.sol",
  "compiler": {
    "name": "solc",
    "version": "0.8.7+commit.e28d00a7.Emscripten.clang"
  },
  "schemaVersion": "3.4.3",
  "updatedAt": "2021-10-26T13:18:39.964Z",
  "devdoc": {
    "kind": "dev",
    "methods": {},
    "version": 1
  },
  "userdoc": {
    "kind": "user",
    "methods": {},
    "version": 1
  }
}