{
  "contractName": "Card",
  "abi": [
    {
      "inputs": [],
      "stateMutability": "nonpayable",
      "type": "constructor"
    },
    {
      "anonymous": false,
      "inputs": [
        {
          "indexed": false,
          "internalType": "uint256",
          "name": "_idNumber",
          "type": "uint256"
        },
        {
          "indexed": false,
          "internalType": "uint256",
          "name": "_issuedOn",
          "type": "uint256"
        }
      ],
      "name": "InvalidateCard",
      "type": "event"
    },
    {
      "inputs": [
        {
          "internalType": "uint256",
          "name": "",
          "type": "uint256"
        }
      ],
      "name": "branches",
      "outputs": [
        {
          "internalType": "string",
          "name": "location",
          "type": "string"
        },
        {
          "internalType": "uint256",
          "name": "idNumber",
          "type": "uint256"
        }
      ],
      "stateMutability": "view",
      "type": "function",
      "constant": true
    },
    {
      "inputs": [],
      "name": "cardCount",
      "outputs": [
        {
          "internalType": "uint256",
          "name": "",
          "type": "uint256"
        }
      ],
      "stateMutability": "view",
      "type": "function",
      "constant": true
    },
    {
      "inputs": [
        {
          "internalType": "uint256",
          "name": "",
          "type": "uint256"
        }
      ],
      "name": "cards",
      "outputs": [
        {
          "internalType": "uint256",
          "name": "index",
          "type": "uint256"
        },
        {
          "internalType": "string",
          "name": "name",
          "type": "string"
        },
        {
          "internalType": "uint256",
          "name": "idNumber",
          "type": "uint256"
        },
        {
          "internalType": "bool",
          "name": "isValid",
          "type": "bool"
        },
        {
          "internalType": "string",
          "name": "profession",
          "type": "string"
        },
        {
          "internalType": "uint256",
          "name": "dateOfBirth",
          "type": "uint256"
        },
        {
          "internalType": "uint256",
          "name": "expirationDate",
          "type": "uint256"
        },
        {
          "components": [
            {
              "internalType": "string",
              "name": "location",
              "type": "string"
            },
            {
              "internalType": "uint256",
              "name": "idNumber",
              "type": "uint256"
            }
          ],
          "internalType": "struct Branch.PrcBranch",
          "name": "issuedAt",
          "type": "tuple"
        },
        {
          "internalType": "uint256",
          "name": "issuedOnCount",
          "type": "uint256"
        }
      ],
      "stateMutability": "view",
      "type": "function",
      "constant": true
    },
    {
      "inputs": [
        {
          "internalType": "string",
          "name": "_location",
          "type": "string"
        },
        {
          "internalType": "uint256",
          "name": "_idNumber",
          "type": "uint256"
        }
      ],
      "name": "createBranch",
      "outputs": [],
      "stateMutability": "nonpayable",
      "type": "function"
    },
    {
      "inputs": [
        {
          "internalType": "string",
          "name": "_name",
          "type": "string"
        },
        {
          "internalType": "uint256",
          "name": "_idNumber",
          "type": "uint256"
        },
        {
          "internalType": "uint256",
          "name": "_idNumberBranch",
          "type": "uint256"
        },
        {
          "internalType": "string",
          "name": "_profession",
          "type": "string"
        },
        {
          "internalType": "uint256",
          "name": "_dateOfBirth",
          "type": "uint256"
        },
        {
          "internalType": "uint256",
          "name": "_expirationDate",
          "type": "uint256"
        }
      ],
      "name": "createCard",
      "outputs": [],
      "stateMutability": "nonpayable",
      "type": "function"
    },
    {
      "inputs": [
        {
          "internalType": "uint256",
          "name": "_idNumber",
          "type": "uint256"
        }
      ],
      "name": "revalidateCard",
      "outputs": [],
      "stateMutability": "nonpayable",
      "type": "function"
    },
    {
      "inputs": [
        {
          "internalType": "uint256",
          "name": "_idNumber",
          "type": "uint256"
        }
      ],
      "name": "invalidateCard",
      "outputs": [],
      "stateMutability": "nonpayable",
      "type": "function"
    },
    {
      "inputs": [
        {
          "internalType": "uint256",
          "name": "_idNumber",
          "type": "uint256"
        }
      ],
      "name": "getCardIssuedOn",
      "outputs": [
        {
          "internalType": "uint256",
          "name": "",
          "type": "uint256"
        }
      ],
      "stateMutability": "view",
      "type": "function",
      "constant": true
    },
    {
      "inputs": [
        {
          "internalType": "uint256",
          "name": "_idNumber",
          "type": "uint256"
        }
      ],
      "name": "getCardInfo",
      "outputs": [
        {
          "internalType": "uint256",
          "name": "",
          "type": "uint256"
        },
        {
          "internalType": "string",
          "name": "",
          "type": "string"
        },
        {
          "internalType": "bool",
          "name": "",
          "type": "bool"
        },
        {
          "internalType": "string",
          "name": "",
          "type": "string"
        },
        {
          "internalType": "uint256",
          "name": "",
          "type": "uint256"
        },
        {
          "internalType": "uint256",
          "name": "",
          "type": "uint256"
        }
      ],
      "stateMutability": "view",
      "type": "function",
      "constant": true
    },
    {
      "inputs": [],
      "name": "getCardCount",
      "outputs": [
        {
          "internalType": "uint256",
          "name": "",
          "type": "uint256"
        }
      ],
      "stateMutability": "view",
      "type": "function",
      "constant": true
    },
    {
      "inputs": [
        {
          "internalType": "uint256",
          "name": "_idNumber",
          "type": "uint256"
        },
        {
          "internalType": "string",
          "name": "_name",
          "type": "string"
        },
        {
          "internalType": "bool",
          "name": "_isValid",
          "type": "bool"
        },
        {
          "internalType": "string",
          "name": "_profession",
          "type": "string"
        },
        {
          "internalType": "uint256",
          "name": "_dateOfBirth",
          "type": "uint256"
        },
        {
          "internalType": "uint256",
          "name": "_expirationDate",
          "type": "uint256"
        }
      ],
      "name": "editCardInfo",
      "outputs": [],
      "stateMutability": "nonpayable",
      "type": "function"
    }
  ],
  "bytecode": "0x608060405234801561001057600080fd5b50336000806101000a81548173ffffffffffffffffffffffffffffffffffffffff021916908373ffffffffffffffffffffffffffffffffffffffff160217905550600060028190555061177d806100686000396000f3fe608060405234801561001057600080fd5b50600436106100a95760003560e01c8063970129be11610071578063970129be1461016f5780639dcb8e78146101a4578063a876d238146101c0578063adbee9bf146101dc578063d4fd4acd1461020c578063f33d4bb414610228576100a9565b8063172fb22c146100ae5780631b6cde10146100ca5780637d620130146100e857806383cc7660146101065780638dc1076814610137575b600080fd5b6100c860048036038101906100c39190610f84565b610244565b005b6100d2610328565b6040516100df91906112e6565b60405180910390f35b6100f061032e565b6040516100fd91906112e6565b60405180910390f35b610120600480360381019061011b91906110a5565b610338565b60405161012e929190611296565b60405180910390f35b610151600480360381019061014c91906110a5565b6103e4565b60405161016699989796959493929190611370565b60405180910390f35b610189600480360381019061018491906110a5565b6105f5565b60405161019b96959493929190611301565b60405180910390f35b6101be60048036038101906101b991906110a5565b61076e565b005b6101da60048036038101906101d59190610fe0565b61089c565b005b6101f660048036038101906101f191906110a5565b610b94565b60405161020391906112e6565b60405180910390f35b610226600480360381019061022191906110a5565b610bdb565b005b610242600480360381019061023d91906110d2565b610cdc565b005b60008054906101000a900473ffffffffffffffffffffffffffffffffffffffff1673ffffffffffffffffffffffffffffffffffffffff163373ffffffffffffffffffffffffffffffffffffffff16146102d2576040517f08c379a00000000000000000000000000000000000000000000000000000000081526004016102c9906112c6565b60405180910390fd5b604051806040016040528083815260200182815250600160008381526020019081526020016000206000820151816000019080519060200190610316929190610e47565b50602082015181600101559050505050565b60025481565b6000600254905090565b600160205280600052604060002060009150905080600001805461035b9061156c565b80601f01602080910402602001604051908101604052809291908181526020018280546103879061156c565b80156103d45780601f106103a9576101008083540402835291602001916103d4565b820191906000526020600020905b8154815290600101906020018083116103b757829003601f168201915b5050505050908060010154905082565b600360205280600052604060002060009150905080600001549080600101805461040d9061156c565b80601f01602080910402602001604051908101604052809291908181526020018280546104399061156c565b80156104865780601f1061045b57610100808354040283529160200191610486565b820191906000526020600020905b81548152906001019060200180831161046957829003601f168201915b5050505050908060020154908060030160009054906101000a900460ff16908060040180546104b49061156c565b80601f01602080910402602001604051908101604052809291908181526020018280546104e09061156c565b801561052d5780601f106105025761010080835404028352916020019161052d565b820191906000526020600020905b81548152906001019060200180831161051057829003601f168201915b5050505050908060050154908060060154908060070160405180604001604052908160008201805461055e9061156c565b80601f016020809104026020016040519081016040528092919081815260200182805461058a9061156c565b80156105d75780601f106105ac576101008083540402835291602001916105d7565b820191906000526020600020905b8154815290600101906020018083116105ba57829003601f168201915b50505050508152602001600182015481525050908060090154905089565b600060606000606060008060006003600089815260200190815260200160002090508060020154816001018260030160009054906101000a900460ff16836004018460050154856006015484805461064c9061156c565b80601f01602080910402602001604051908101604052809291908181526020018280546106789061156c565b80156106c55780601f1061069a576101008083540402835291602001916106c5565b820191906000526020600020905b8154815290600101906020018083116106a857829003601f168201915b505050505094508280546106d89061156c565b80601f01602080910402602001604051908101604052809291908181526020018280546107049061156c565b80156107515780601f1061072657610100808354040283529160200191610751565b820191906000526020600020905b81548152906001019060200180831161073457829003601f168201915b505050505092509650965096509650965096505091939550919395565b60008054906101000a900473ffffffffffffffffffffffffffffffffffffffff1673ffffffffffffffffffffffffffffffffffffffff163373ffffffffffffffffffffffffffffffffffffffff16146107fc576040517f08c379a00000000000000000000000000000000000000000000000000000000081526004016107f3906112c6565b60405180910390fd5b60016003600083815260200190815260200160002060030160006101000a81548160ff021916908315150217905550600360008281526020019081526020016000206009016000815480929190610852906115cf565b91905055504260036000838152602001908152602001600020600a016000600360008581526020019081526020016000206009015481526020019081526020016000208190555050565b60008054906101000a900473ffffffffffffffffffffffffffffffffffffffff1673ffffffffffffffffffffffffffffffffffffffff163373ffffffffffffffffffffffffffffffffffffffff161461092a576040517f08c379a0000000000000000000000000000000000000000000000000000000008152600401610921906112c6565b60405180910390fd5b60006001600086815260200190815260200160002060405180604001604052908160008201805461095a9061156c565b80601f01602080910402602001604051908101604052809291908181526020018280546109869061156c565b80156109d35780601f106109a8576101008083540402835291602001916109d3565b820191906000526020600020905b8154815290600101906020018083116109b657829003601f168201915b50505050508152602001600182015481525050905060016002546109f791906114be565b600360008881526020019081526020016000206000018190555086600360008881526020019081526020016000206001019080519060200190610a3b929190610e47565b5085600360008881526020019081526020016000206002018190555060016003600088815260200190815260200160002060030160006101000a81548160ff02191690831515021790555083600360008881526020019081526020016000206004019080519060200190610ab0929190610e47565b5082600360008881526020019081526020016000206005018190555081600360008881526020019081526020016000206006018190555080600360008881526020019081526020016000206007016000820151816000019080519060200190610b1a929190610e47565b5060208201518160010155905050600160036000888152602001908152602001600020600901819055504260036000888152602001908152602001600020600a0160006001815260200190815260200160002081905550600160026000828254610b8491906114be565b9250508190555050505050505050565b600060036000838152602001908152602001600020600a01600060036000858152602001908152602001600020600901548152602001908152602001600020549050919050565b60008054906101000a900473ffffffffffffffffffffffffffffffffffffffff1673ffffffffffffffffffffffffffffffffffffffff163373ffffffffffffffffffffffffffffffffffffffff1614610c69576040517f08c379a0000000000000000000000000000000000000000000000000000000008152600401610c60906112c6565b60405180910390fd5b60006003600083815260200190815260200160002060030160006101000a81548160ff0219169083151502179055507f18e157e0458a7b81b7dc50365aeba841792d568f84fa35e6fcdc5cc580beb68281610cc383610b94565b604051610cd1929190611412565b60405180910390a150565b60008054906101000a900473ffffffffffffffffffffffffffffffffffffffff1673ffffffffffffffffffffffffffffffffffffffff163373ffffffffffffffffffffffffffffffffffffffff1614610d6a576040517f08c379a0000000000000000000000000000000000000000000000000000000008152600401610d61906112c6565b60405180910390fd5b85600360008881526020019081526020016000206002018190555084600360008881526020019081526020016000206001019080519060200190610daf929190610e47565b50836003600088815260200190815260200160002060030160006101000a81548160ff02191690831515021790555082600360008881526020019081526020016000206004019080519060200190610e08929190610e47565b50816003600088815260200190815260200160002060050181905550806003600088815260200190815260200160002060060181905550505050505050565b828054610e539061156c565b90600052602060002090601f016020900481019282610e755760008555610ebc565b82601f10610e8e57805160ff1916838001178555610ebc565b82800160010185558215610ebc579182015b82811115610ebb578251825591602001919060010190610ea0565b5b509050610ec99190610ecd565b5090565b5b80821115610ee6576000816000905550600101610ece565b5090565b6000610efd610ef884611460565b61143b565b905082815260208101848484011115610f1957610f186116aa565b5b610f2484828561152a565b509392505050565b600081359050610f3b81611719565b92915050565b600082601f830112610f5657610f556116a5565b5b8135610f66848260208601610eea565b91505092915050565b600081359050610f7e81611730565b92915050565b60008060408385031215610f9b57610f9a6116b4565b5b600083013567ffffffffffffffff811115610fb957610fb86116af565b5b610fc585828601610f41565b9250506020610fd685828601610f6f565b9150509250929050565b60008060008060008060c08789031215610ffd57610ffc6116b4565b5b600087013567ffffffffffffffff81111561101b5761101a6116af565b5b61102789828a01610f41565b965050602061103889828a01610f6f565b955050604061104989828a01610f6f565b945050606087013567ffffffffffffffff81111561106a576110696116af565b5b61107689828a01610f41565b935050608061108789828a01610f6f565b92505060a061109889828a01610f6f565b9150509295509295509295565b6000602082840312156110bb576110ba6116b4565b5b60006110c984828501610f6f565b91505092915050565b60008060008060008060c087890312156110ef576110ee6116b4565b5b60006110fd89828a01610f6f565b965050602087013567ffffffffffffffff81111561111e5761111d6116af565b5b61112a89828a01610f41565b955050604061113b89828a01610f2c565b945050606087013567ffffffffffffffff81111561115c5761115b6116af565b5b61116889828a01610f41565b935050608061117989828a01610f6f565b92505060a061118a89828a01610f6f565b9150509295509295509295565b6111a081611514565b82525050565b60006111b182611491565b6111bb818561149c565b93506111cb818560208601611539565b6111d4816116b9565b840191505092915050565b60006111ea82611491565b6111f481856114ad565b9350611204818560208601611539565b61120d816116b9565b840191505092915050565b6000611225602e836114ad565b9150611230826116ca565b604082019050919050565b6000604083016000830151848203600086015261125882826111a6565b915050602083015161126d6020860182611278565b508091505092915050565b61128181611520565b82525050565b61129081611520565b82525050565b600060408201905081810360008301526112b081856111df565b90506112bf6020830184611287565b9392505050565b600060208201905081810360008301526112df81611218565b9050919050565b60006020820190506112fb6000830184611287565b92915050565b600060c0820190506113166000830189611287565b818103602083015261132881886111df565b90506113376040830187611197565b818103606083015261134981866111df565b90506113586080830185611287565b61136560a0830184611287565b979650505050505050565b600061012082019050611386600083018c611287565b8181036020830152611398818b6111df565b90506113a7604083018a611287565b6113b46060830189611197565b81810360808301526113c681886111df565b90506113d560a0830187611287565b6113e260c0830186611287565b81810360e08301526113f4818561123b565b9050611404610100830184611287565b9a9950505050505050505050565b60006040820190506114276000830185611287565b6114346020830184611287565b9392505050565b6000611445611456565b9050611451828261159e565b919050565b6000604051905090565b600067ffffffffffffffff82111561147b5761147a611676565b5b611484826116b9565b9050602081019050919050565b600081519050919050565b600082825260208201905092915050565b600082825260208201905092915050565b60006114c982611520565b91506114d483611520565b9250827fffffffffffffffffffffffffffffffffffffffffffffffffffffffffffffffff0382111561150957611508611618565b5b828201905092915050565b60008115159050919050565b6000819050919050565b82818337600083830152505050565b60005b8381101561155757808201518184015260208101905061153c565b83811115611566576000848401525b50505050565b6000600282049050600182168061158457607f821691505b6020821081141561159857611597611647565b5b50919050565b6115a7826116b9565b810181811067ffffffffffffffff821117156115c6576115c5611676565b5b80604052505050565b60006115da82611520565b91507fffffffffffffffffffffffffffffffffffffffffffffffffffffffffffffffff82141561160d5761160c611618565b5b600182019050919050565b7f4e487b7100000000000000000000000000000000000000000000000000000000600052601160045260246000fd5b7f4e487b7100000000000000000000000000000000000000000000000000000000600052602260045260246000fd5b7f4e487b7100000000000000000000000000000000000000000000000000000000600052604160045260246000fd5b600080fd5b600080fd5b600080fd5b600080fd5b6000601f19601f8301169050919050565b7f596f75206d75737420626520616e206f776e657220746f20706572666f726d2060008201527f746869732066756e6374696f6e2e000000000000000000000000000000000000602082015250565b61172281611514565b811461172d57600080fd5b50565b61173981611520565b811461174457600080fd5b5056fea2646970667358221220abcf8e3fa5810596394184e85b23e07130fd98cf786d5ecbfc6ebad3fee002ff64736f6c63430008070033",
  "immutableReferences": {},
  "source": "pragma solidity ^0.8.7;\r\n\r\nimport \"./Branch.sol\";\r\n\r\ncontract Card is Branch {\r\n    \r\n    uint256 public cardCount; \r\n\r\n    struct PRCCard {\r\n        uint256 index;\r\n        string name;\r\n        uint256 idNumber;\r\n        bool isValid;\r\n        string profession; \r\n        uint256 dateOfBirth;\r\n        uint256 expirationDate;\r\n        PrcBranch issuedAt;\r\n        uint256 issuedOnCount;\r\n        mapping(uint256 => uint256) issuedOn;\r\n    }\r\n\r\n    mapping(uint256 => PRCCard) public cards;\r\n\r\n    event InvalidateCard(uint256 _idNumber, uint256 _issuedOn);\r\n\r\n    constructor() {\r\n        owner = msg.sender;\r\n        cardCount = 0;\r\n    }\r\n\r\n    function createCard(\r\n        string memory _name,\r\n        uint256 _idNumber,\r\n        uint256 _idNumberBranch,\r\n        string memory _profession,\r\n        uint256 _dateOfBirth,\r\n        uint256 _expirationDate\r\n    ) \r\n    \r\n    public onlyOwner {\r\n        PrcBranch memory branch = branches[_idNumberBranch];\r\n\r\n        cards[_idNumber].index = cardCount+1;\r\n        cards[_idNumber].name = _name;\r\n        cards[_idNumber].idNumber = _idNumber;\r\n        cards[_idNumber].isValid = true;\r\n        cards[_idNumber].profession = _profession;\r\n        cards[_idNumber].dateOfBirth = _dateOfBirth;\r\n        cards[_idNumber].expirationDate = _expirationDate;\r\n        cards[_idNumber].issuedAt = branch;\r\n        cards[_idNumber].issuedOnCount = 1;\r\n        cards[_idNumber].issuedOn[1] = block.timestamp;\r\n        cardCount += 1;\r\n    }\r\n\r\n    function revalidateCard(uint256 _idNumber) public onlyOwner {\r\n        cards[_idNumber].isValid = true;\r\n        cards[_idNumber].issuedOnCount++;\r\n        cards[_idNumber].issuedOn[cards[_idNumber].issuedOnCount] = block\r\n            .timestamp;\r\n    }\r\n\r\n    function invalidateCard(uint256 _idNumber) public onlyOwner {\r\n        cards[_idNumber].isValid = false;\r\n        emit InvalidateCard(_idNumber, getCardIssuedOn(_idNumber));\r\n    }\r\n\r\n    function getCardIssuedOn(uint256 _idNumber) public view returns (uint256) {\r\n        return cards[_idNumber].issuedOn[cards[_idNumber].issuedOnCount];\r\n    }\r\n\r\n    function getCardInfo(uint256 _idNumber) public view returns (uint256, string memory, bool, string memory, uint256, uint256){\r\n        PRCCard storage c = cards[_idNumber];\r\n        return (c.idNumber, c.name, c.isValid, c.profession, c.dateOfBirth, c.expirationDate); // Add branch\r\n    }\r\n\r\n    function getCardCount() public view returns (uint256) {\r\n        return cardCount;\r\n    }\r\n\r\n    function editCardInfo(uint256 _idNumber, string memory _name, bool _isValid, string memory _profession, uint256 _dateOfBirth, uint256 _expirationDate) public onlyOwner {\r\n        cards[_idNumber].idNumber = _idNumber;\r\n        cards[_idNumber].name = _name;\r\n        cards[_idNumber].isValid = _isValid;\r\n        cards[_idNumber].profession = _profession;\r\n        cards[_idNumber].dateOfBirth = _dateOfBirth;\r\n        cards[_idNumber].expirationDate = _expirationDate;\r\n    }\r\n}\r\n",
  "sourcePath": "F:/Dev/projects/thesis-ethereum/truffle/contracts/Card.sol",
  "compiler": {
    "name": "solc",
    "version": "0.8.7+commit.e28d00a7.Emscripten.clang"
  },
  "schemaVersion": "3.2.3",
  "updatedAt": "2021-10-05T07:05:47.842Z",
  "networkType": "ethereum",
  "devdoc": {
    "kind": "dev",
    "methods": {},
    "version": 1
  },
  "userdoc": {
    "kind": "user",
    "methods": {},
    "version": 1
  }
}