{
  "contractName": "Card",
  "abi": [
    {
      "inputs": [],
      "stateMutability": "nonpayable",
      "type": "constructor"
    },
    {
      "anonymous": false,
      "inputs": [
        {
          "indexed": false,
          "internalType": "uint256",
          "name": "_idNumber",
          "type": "uint256"
        },
        {
          "indexed": false,
          "internalType": "uint256",
          "name": "_issuedOn",
          "type": "uint256"
        }
      ],
      "name": "InvalidateCard",
      "type": "event"
    },
    {
      "inputs": [
        {
          "internalType": "uint256",
          "name": "",
          "type": "uint256"
        }
      ],
      "name": "branches",
      "outputs": [
        {
          "internalType": "string",
          "name": "location",
          "type": "string"
        },
        {
          "internalType": "uint256",
          "name": "idNumber",
          "type": "uint256"
        }
      ],
      "stateMutability": "view",
      "type": "function",
      "constant": true
    },
    {
      "inputs": [
        {
          "internalType": "uint256",
          "name": "",
          "type": "uint256"
        }
      ],
      "name": "cards",
      "outputs": [
        {
          "internalType": "string",
          "name": "name",
          "type": "string"
        },
        {
          "internalType": "uint256",
          "name": "idNumber",
          "type": "uint256"
        },
        {
          "internalType": "bool",
          "name": "isValid",
          "type": "bool"
        },
        {
          "components": [
            {
              "internalType": "string",
              "name": "location",
              "type": "string"
            },
            {
              "internalType": "uint256",
              "name": "idNumber",
              "type": "uint256"
            }
          ],
          "internalType": "struct Branch.PrcBranch",
          "name": "issuedAt",
          "type": "tuple"
        },
        {
          "internalType": "uint256",
          "name": "issuedOnCount",
          "type": "uint256"
        }
      ],
      "stateMutability": "view",
      "type": "function",
      "constant": true
    },
    {
      "inputs": [
        {
          "internalType": "string",
          "name": "_location",
          "type": "string"
        },
        {
          "internalType": "uint256",
          "name": "_idNumber",
          "type": "uint256"
        }
      ],
      "name": "createBranch",
      "outputs": [],
      "stateMutability": "nonpayable",
      "type": "function"
    },
    {
      "inputs": [
        {
          "internalType": "string",
          "name": "_name",
          "type": "string"
        },
        {
          "internalType": "uint256",
          "name": "_idNumber",
          "type": "uint256"
        },
        {
          "internalType": "uint256",
          "name": "_idNumberBranch",
          "type": "uint256"
        }
      ],
      "name": "createCard",
      "outputs": [],
      "stateMutability": "nonpayable",
      "type": "function"
    },
    {
      "inputs": [
        {
          "internalType": "uint256",
          "name": "_idNumber",
          "type": "uint256"
        }
      ],
      "name": "revalidateCard",
      "outputs": [],
      "stateMutability": "nonpayable",
      "type": "function"
    },
    {
      "inputs": [
        {
          "internalType": "uint256",
          "name": "_idNumber",
          "type": "uint256"
        }
      ],
      "name": "invalidateCard",
      "outputs": [],
      "stateMutability": "nonpayable",
      "type": "function"
    },
    {
      "inputs": [
        {
          "internalType": "uint256",
          "name": "_idNumber",
          "type": "uint256"
        }
      ],
      "name": "getCardIssuedOn",
      "outputs": [
        {
          "internalType": "uint256",
          "name": "",
          "type": "uint256"
        }
      ],
      "stateMutability": "view",
      "type": "function",
      "constant": true
    }
  ],
  "bytecode": "0x608060405234801561001057600080fd5b50336000806101000a81548173ffffffffffffffffffffffffffffffffffffffff021916908373ffffffffffffffffffffffffffffffffffffffff160217905550611038806100606000396000f3fe608060405234801561001057600080fd5b506004361061007d5760003560e01c80638dc107681161005b5780638dc10768146100eb5780639dcb8e781461011f578063adbee9bf1461013b578063d4fd4acd1461016b5761007d565b8063172fb22c146100825780631a2316001461009e57806383cc7660146100ba575b600080fd5b61009c60048036038101906100979190610a77565b610187565b005b6100b860048036038101906100b39190610ad3565b61026b565b005b6100d460048036038101906100cf9190610b42565b6104bc565b6040516100e2929190610c6e565b60405180910390f35b61010560048036038101906101009190610b42565b610568565b604051610116959493929190610c9e565b60405180910390f35b61013960048036038101906101349190610b42565b6106d9565b005b61015560048036038101906101509190610b42565b610807565b6040516101629190610d1f565b60405180910390f35b61018560048036038101906101809190610b42565b61084e565b005b60008054906101000a900473ffffffffffffffffffffffffffffffffffffffff1673ffffffffffffffffffffffffffffffffffffffff163373ffffffffffffffffffffffffffffffffffffffff1614610215576040517f08c379a000000000000000000000000000000000000000000000000000000000815260040161020c90610cff565b60405180910390fd5b60405180604001604052808381526020018281525060016000838152602001908152602001600020600082015181600001908051906020019061025992919061094f565b50602082015181600101559050505050565b60008054906101000a900473ffffffffffffffffffffffffffffffffffffffff1673ffffffffffffffffffffffffffffffffffffffff163373ffffffffffffffffffffffffffffffffffffffff16146102f9576040517f08c379a00000000000000000000000000000000000000000000000000000000081526004016102f090610cff565b60405180910390fd5b60006001600083815260200190815260200160002060405180604001604052908160008201805461032990610e3e565b80601f016020809104026020016040519081016040528092919081815260200182805461035590610e3e565b80156103a25780601f10610377576101008083540402835291602001916103a2565b820191906000526020600020905b81548152906001019060200180831161038557829003601f168201915b505050505081526020016001820154815250509050836002600085815260200190815260200160002060000190805190602001906103e192919061094f565b5082600260008581526020019081526020016000206001018190555060016002600085815260200190815260200160002060020160006101000a81548160ff0219169083151502179055508060026000858152602001908152602001600020600301600082015181600001908051906020019061045f92919061094f565b50602082015181600101559050506001600260008581526020019081526020016000206005018190555042600260008581526020019081526020016000206006016000600181526020019081526020016000208190555050505050565b60016020528060005260406000206000915090508060000180546104df90610e3e565b80601f016020809104026020016040519081016040528092919081815260200182805461050b90610e3e565b80156105585780601f1061052d57610100808354040283529160200191610558565b820191906000526020600020905b81548152906001019060200180831161053b57829003601f168201915b5050505050908060010154905082565b600260205280600052604060002060009150905080600001805461058b90610e3e565b80601f01602080910402602001604051908101604052809291908181526020018280546105b790610e3e565b80156106045780601f106105d957610100808354040283529160200191610604565b820191906000526020600020905b8154815290600101906020018083116105e757829003601f168201915b5050505050908060010154908060020160009054906101000a900460ff16908060030160405180604001604052908160008201805461064290610e3e565b80601f016020809104026020016040519081016040528092919081815260200182805461066e90610e3e565b80156106bb5780601f10610690576101008083540402835291602001916106bb565b820191906000526020600020905b81548152906001019060200180831161069e57829003601f168201915b50505050508152602001600182015481525050908060050154905085565b60008054906101000a900473ffffffffffffffffffffffffffffffffffffffff1673ffffffffffffffffffffffffffffffffffffffff163373ffffffffffffffffffffffffffffffffffffffff1614610767576040517f08c379a000000000000000000000000000000000000000000000000000000000815260040161075e90610cff565b60405180910390fd5b60016002600083815260200190815260200160002060020160006101000a81548160ff0219169083151502179055506002600082815260200190815260200160002060050160008154809291906107bd90610ea1565b919050555042600260008381526020019081526020016000206006016000600260008581526020019081526020016000206005015481526020019081526020016000208190555050565b600060026000838152602001908152602001600020600601600060026000858152602001908152602001600020600501548152602001908152602001600020549050919050565b60008054906101000a900473ffffffffffffffffffffffffffffffffffffffff1673ffffffffffffffffffffffffffffffffffffffff163373ffffffffffffffffffffffffffffffffffffffff16146108dc576040517f08c379a00000000000000000000000000000000000000000000000000000000081526004016108d390610cff565b60405180910390fd5b60006002600083815260200190815260200160002060020160006101000a81548160ff0219169083151502179055507f18e157e0458a7b81b7dc50365aeba841792d568f84fa35e6fcdc5cc580beb6828161093683610807565b604051610944929190610d3a565b60405180910390a150565b82805461095b90610e3e565b90600052602060002090601f01602090048101928261097d57600085556109c4565b82601f1061099657805160ff19168380011785556109c4565b828001600101855582156109c4579182015b828111156109c35782518255916020019190600101906109a8565b5b5090506109d191906109d5565b5090565b5b808211156109ee5760008160009055506001016109d6565b5090565b6000610a05610a0084610d88565b610d63565b905082815260208101848484011115610a2157610a20610f7c565b5b610a2c848285610dfc565b509392505050565b600082601f830112610a4957610a48610f77565b5b8135610a598482602086016109f2565b91505092915050565b600081359050610a7181610feb565b92915050565b60008060408385031215610a8e57610a8d610f86565b5b600083013567ffffffffffffffff811115610aac57610aab610f81565b5b610ab885828601610a34565b9250506020610ac985828601610a62565b9150509250929050565b600080600060608486031215610aec57610aeb610f86565b5b600084013567ffffffffffffffff811115610b0a57610b09610f81565b5b610b1686828701610a34565b9350506020610b2786828701610a62565b9250506040610b3886828701610a62565b9150509250925092565b600060208284031215610b5857610b57610f86565b5b6000610b6684828501610a62565b91505092915050565b610b7881610de6565b82525050565b6000610b8982610db9565b610b938185610dc4565b9350610ba3818560208601610e0b565b610bac81610f8b565b840191505092915050565b6000610bc282610db9565b610bcc8185610dd5565b9350610bdc818560208601610e0b565b610be581610f8b565b840191505092915050565b6000610bfd602e83610dd5565b9150610c0882610f9c565b604082019050919050565b60006040830160008301518482036000860152610c308282610b7e565b9150506020830151610c456020860182610c50565b508091505092915050565b610c5981610df2565b82525050565b610c6881610df2565b82525050565b60006040820190508181036000830152610c888185610bb7565b9050610c976020830184610c5f565b9392505050565b600060a0820190508181036000830152610cb88188610bb7565b9050610cc76020830187610c5f565b610cd46040830186610b6f565b8181036060830152610ce68185610c13565b9050610cf56080830184610c5f565b9695505050505050565b60006020820190508181036000830152610d1881610bf0565b9050919050565b6000602082019050610d346000830184610c5f565b92915050565b6000604082019050610d4f6000830185610c5f565b610d5c6020830184610c5f565b9392505050565b6000610d6d610d7e565b9050610d798282610e70565b919050565b6000604051905090565b600067ffffffffffffffff821115610da357610da2610f48565b5b610dac82610f8b565b9050602081019050919050565b600081519050919050565b600082825260208201905092915050565b600082825260208201905092915050565b60008115159050919050565b6000819050919050565b82818337600083830152505050565b60005b83811015610e29578082015181840152602081019050610e0e565b83811115610e38576000848401525b50505050565b60006002820490506001821680610e5657607f821691505b60208210811415610e6a57610e69610f19565b5b50919050565b610e7982610f8b565b810181811067ffffffffffffffff82111715610e9857610e97610f48565b5b80604052505050565b6000610eac82610df2565b91507fffffffffffffffffffffffffffffffffffffffffffffffffffffffffffffffff821415610edf57610ede610eea565b5b600182019050919050565b7f4e487b7100000000000000000000000000000000000000000000000000000000600052601160045260246000fd5b7f4e487b7100000000000000000000000000000000000000000000000000000000600052602260045260246000fd5b7f4e487b7100000000000000000000000000000000000000000000000000000000600052604160045260246000fd5b600080fd5b600080fd5b600080fd5b600080fd5b6000601f19601f8301169050919050565b7f596f75206d75737420626520616e206f776e657220746f20706572666f726d2060008201527f746869732066756e6374696f6e2e000000000000000000000000000000000000602082015250565b610ff481610df2565b8114610fff57600080fd5b5056fea2646970667358221220572e158ff6212d885aa5935bda5902e7f79e4ae0db1a65c0cc4431c73f83902e64736f6c63430008070033",
  "immutableReferences": {},
  "source": "pragma solidity ^0.8.7;\n\nimport \"./Branch.sol\";\n\ncontract Card is Branch {\n    struct PRCCard {\n        string name;\n        uint256 idNumber;\n        bool isValid;\n        PrcBranch issuedAt;\n        uint256 issuedOnCount;\n        mapping(uint256 => uint256) issuedOn;\n    }\n\n    mapping(uint256 => PRCCard) public cards;\n\n    event InvalidateCard(uint256 _idNumber, uint256 _issuedOn);\n\n    constructor() {\n        owner = msg.sender;\n    }\n\n    function createCard(\n        string memory _name,\n        uint256 _idNumber,\n        uint256 _idNumberBranch\n    ) public onlyOwner {\n        PrcBranch memory branch = branches[_idNumberBranch];\n\n        cards[_idNumber].name = _name;\n        cards[_idNumber].idNumber = _idNumber;\n        cards[_idNumber].isValid = true;\n        cards[_idNumber].issuedAt = branch;\n        cards[_idNumber].issuedOnCount = 1;\n        cards[_idNumber].issuedOn[1] = block.timestamp;\n    }\n\n    function revalidateCard(uint256 _idNumber) public onlyOwner {\n        cards[_idNumber].isValid = true;\n        cards[_idNumber].issuedOnCount++;\n        cards[_idNumber].issuedOn[cards[_idNumber].issuedOnCount] = block\n            .timestamp;\n    }\n\n    function invalidateCard(uint256 _idNumber) public onlyOwner {\n        cards[_idNumber].isValid = false;\n        emit InvalidateCard(_idNumber, getCardIssuedOn(_idNumber));\n    }\n\n    function getCardIssuedOn(uint256 _idNumber) public view returns (uint256) {\n        return cards[_idNumber].issuedOn[cards[_idNumber].issuedOnCount];\n    }\n}\n",
  "sourcePath": "/home/thislexic/me/class2/thesis/thesis-ethereum/truffle/contracts/Card.sol",
  "compiler": {
    "name": "solc",
    "version": "0.8.7+commit.e28d00a7.Emscripten.clang"
  },
  "schemaVersion": "3.4.3",
  "updatedAt": "2021-09-15T08:02:34.389Z",
  "networkType": "ethereum",
  "devdoc": {
    "kind": "dev",
    "methods": {},
    "version": 1
  },
  "userdoc": {
    "kind": "user",
    "methods": {},
    "version": 1
  }
}