{
  "contractName": "Card",
  "abi": [
    {
      "inputs": [
        {
          "internalType": "contract CardManager",
          "name": "_parentContract",
          "type": "address"
        },
        {
          "internalType": "contract Branch",
          "name": "_branch",
          "type": "address"
        },
        {
          "internalType": "uint256",
          "name": "_idNumber",
          "type": "uint256"
        },
        {
          "internalType": "string",
          "name": "_name",
          "type": "string"
        }
      ],
      "stateMutability": "nonpayable",
      "type": "constructor"
    },
    {
      "inputs": [],
      "name": "branch",
      "outputs": [
        {
          "internalType": "contract Branch",
          "name": "",
          "type": "address"
        }
      ],
      "stateMutability": "view",
      "type": "function"
    },
    {
      "inputs": [],
      "name": "idNumber",
      "outputs": [
        {
          "internalType": "uint256",
          "name": "",
          "type": "uint256"
        }
      ],
      "stateMutability": "view",
      "type": "function"
    },
    {
      "inputs": [],
      "name": "isValid",
      "outputs": [
        {
          "internalType": "bool",
          "name": "",
          "type": "bool"
        }
      ],
      "stateMutability": "view",
      "type": "function"
    },
    {
      "inputs": [
        {
          "internalType": "uint256",
          "name": "",
          "type": "uint256"
        }
      ],
      "name": "issuedOn",
      "outputs": [
        {
          "internalType": "uint256",
          "name": "",
          "type": "uint256"
        }
      ],
      "stateMutability": "view",
      "type": "function"
    },
    {
      "inputs": [],
      "name": "issuedOnCount",
      "outputs": [
        {
          "internalType": "uint256",
          "name": "",
          "type": "uint256"
        }
      ],
      "stateMutability": "view",
      "type": "function"
    },
    {
      "inputs": [],
      "name": "name",
      "outputs": [
        {
          "internalType": "string",
          "name": "",
          "type": "string"
        }
      ],
      "stateMutability": "view",
      "type": "function"
    }
  ],
  "bytecode": "0x60806040523480156200001157600080fd5b5060405162000a1d38038062000a1d833981810160405281019062000037919062000292565b83600560006101000a81548173ffffffffffffffffffffffffffffffffffffffff021916908373ffffffffffffffffffffffffffffffffffffffff1602179055508060009080519060200190620000909291906200011f565b50816001819055506001600260006101000a81548160ff02191690831515021790555082600260016101000a81548173ffffffffffffffffffffffffffffffffffffffff021916908373ffffffffffffffffffffffffffffffffffffffff160217905550600160038190555042600460006001815260200190815260200160002081905550505050506200055b565b8280546200012d906200041e565b90600052602060002090601f0160209004810192826200015157600085556200019d565b82601f106200016c57805160ff19168380011785556200019d565b828001600101855582156200019d579182015b828111156200019c5782518255916020019190600101906200017f565b5b509050620001ac9190620001b0565b5090565b5b80821115620001cb576000816000905550600101620001b1565b5090565b6000620001e6620001e0846200034c565b62000323565b905082815260208101848484011115620002055762000204620004ed565b5b62000212848285620003e8565b509392505050565b6000815190506200022b816200050d565b92915050565b600081519050620002428162000527565b92915050565b600082601f83011262000260576200025f620004e8565b5b815162000272848260208601620001cf565b91505092915050565b6000815190506200028c8162000541565b92915050565b60008060008060808587031215620002af57620002ae620004f7565b5b6000620002bf8782880162000231565b9450506020620002d2878288016200021a565b9350506040620002e5878288016200027b565b925050606085015167ffffffffffffffff811115620003095762000308620004f2565b5b620003178782880162000248565b91505092959194509250565b60006200032f62000342565b90506200033d828262000454565b919050565b6000604051905090565b600067ffffffffffffffff8211156200036a5762000369620004b9565b5b6200037582620004fc565b9050602081019050919050565b60006200038f82620003be565b9050919050565b6000620003a38262000382565b9050919050565b6000620003b78262000382565b9050919050565b600073ffffffffffffffffffffffffffffffffffffffff82169050919050565b6000819050919050565b60005b8381101562000408578082015181840152602081019050620003eb565b8381111562000418576000848401525b50505050565b600060028204905060018216806200043757607f821691505b602082108114156200044e576200044d6200048a565b5b50919050565b6200045f82620004fc565b810181811067ffffffffffffffff82111715620004815762000480620004b9565b5b80604052505050565b7f4e487b7100000000000000000000000000000000000000000000000000000000600052602260045260246000fd5b7f4e487b7100000000000000000000000000000000000000000000000000000000600052604160045260246000fd5b600080fd5b600080fd5b600080fd5b600080fd5b6000601f19601f8301169050919050565b620005188162000396565b81146200052457600080fd5b50565b6200053281620003aa565b81146200053e57600080fd5b50565b6200054c81620003de565b81146200055857600080fd5b50565b6104b2806200056b6000396000f3fe608060405234801561001057600080fd5b50600436106100625760003560e01c806306fdde03146100675780633f83ea3b146100855780634b72d0d4146100a35780634c2e7fe9146100c1578063bb5d40eb146100df578063eb47b01d146100fd575b600080fd5b61006f61012d565b60405161007c91906102f6565b60405180910390f35b61008d6101bb565b60405161009a9190610318565b60405180910390f35b6100ab6101c1565b6040516100b891906102db565b60405180910390f35b6100c96101e7565b6040516100d69190610318565b60405180910390f35b6100e76101ed565b6040516100f491906102c0565b60405180910390f35b6101176004803603810190610112919061022d565b610200565b6040516101249190610318565b60405180910390f35b6000805461013a906103ee565b80601f0160208091040260200160405190810160405280929190818152602001828054610166906103ee565b80156101b35780601f10610188576101008083540402835291602001916101b3565b820191906000526020600020905b81548152906001019060200180831161019657829003601f168201915b505050505081565b60015481565b600260019054906101000a900473ffffffffffffffffffffffffffffffffffffffff1681565b60035481565b600260009054906101000a900460ff1681565b60046020528060005260406000206000915090505481565b60008135905061022781610465565b92915050565b6000602082840312156102435761024261044f565b5b600061025184828501610218565b91505092915050565b6102638161034f565b82525050565b61027281610385565b82525050565b600061028382610333565b61028d818561033e565b935061029d8185602086016103bb565b6102a681610454565b840191505092915050565b6102ba8161037b565b82525050565b60006020820190506102d5600083018461025a565b92915050565b60006020820190506102f06000830184610269565b92915050565b600060208201905081810360008301526103108184610278565b905092915050565b600060208201905061032d60008301846102b1565b92915050565b600081519050919050565b600082825260208201905092915050565b60008115159050919050565b600073ffffffffffffffffffffffffffffffffffffffff82169050919050565b6000819050919050565b600061039082610397565b9050919050565b60006103a2826103a9565b9050919050565b60006103b48261035b565b9050919050565b60005b838110156103d95780820151818401526020810190506103be565b838111156103e8576000848401525b50505050565b6000600282049050600182168061040657607f821691505b6020821081141561041a57610419610420565b5b50919050565b7f4e487b7100000000000000000000000000000000000000000000000000000000600052602260045260246000fd5b600080fd5b6000601f19601f8301169050919050565b61046e8161037b565b811461047957600080fd5b5056fea26469706673582212208b92a3e0a327d9ed63bd970424fc3c00d40ea502982db67a0f727415fd72db4c64736f6c63430008070033",
  "immutableReferences": {},
  "source": "pragma solidity ^0.8.7;\n\nimport \"./Branch.sol\";\nimport \"./CardManager.sol\";\n\ncontract Card {\n    string public name;\n    uint256 public idNumber;\n    bool public isValid;\n    Branch public branch;\n    uint256 public issuedOnCount;\n    mapping(uint256 => uint256) public issuedOn;\n\n    CardManager parentContract;\n\n    constructor(CardManager _parentContract, Branch _branch, uint256 _idNumber, string memory _name) public {\n        parentContract = _parentContract;\n        name = _name;\n        idNumber = _idNumber;\n        isValid = true;\n        branch = _branch;\n        issuedOnCount = 1;\n        issuedOn[1] = block.timestamp;\n    }\n}\n\n",
  "sourcePath": "/home/thislexic/me/class2/thesis/thesis-ethereum/truffle/contracts/Card.sol",
  "compiler": {
    "name": "solc",
    "version": "0.8.7+commit.e28d00a7.Emscripten.clang"
  },
  "schemaVersion": "3.4.3",
  "updatedAt": "2021-10-26T06:52:48.312Z",
  "devdoc": {
    "kind": "dev",
    "methods": {},
    "version": 1
  },
  "userdoc": {
    "kind": "user",
    "methods": {},
    "version": 1
  }
}