{
  "contractName": "CardManager",
  "abi": [
    {
      "inputs": [
        {
          "internalType": "uint256",
          "name": "",
          "type": "uint256"
        }
      ],
      "name": "cards",
      "outputs": [
        {
          "internalType": "contract Card",
          "name": "card",
          "type": "address"
        }
      ],
      "stateMutability": "view",
      "type": "function",
      "constant": true
    },
    {
      "inputs": [
        {
          "internalType": "string",
          "name": "_branch",
          "type": "string"
        },
        {
          "internalType": "string",
          "name": "_name",
          "type": "string"
        },
        {
          "internalType": "uint256",
          "name": "_idNumber",
          "type": "uint256"
        }
      ],
      "name": "createCard",
      "outputs": [],
      "stateMutability": "nonpayable",
      "type": "function"
    }
  ],
  "bytecode": "0x608060405234801561001057600080fd5b50610f90806100206000396000f3fe60806040523480156200001157600080fd5b50600436106200003a5760003560e01c80634c47eeaf146200003f5780638dc10768146200005f575b600080fd5b6200005d60048036038101906200005791906200020d565b62000095565b005b6200007d6004803603810190620000779190620002a7565b6200012c565b6040516200008c9190620003a8565b60405180910390f35b30838284604051620000a7906200016a565b620000b694939291906200034d565b604051809103906000f080158015620000d3573d6000803e3d6000fd5b5060008083815260200190815260200160002060000160006101000a81548173ffffffffffffffffffffffffffffffffffffffff021916908373ffffffffffffffffffffffffffffffffffffffff160217905550505050565b60006020528060005260406000206000915090508060000160009054906101000a900473ffffffffffffffffffffffffffffffffffffffff16905081565b6109b780620005a483390190565b60006200018f6200018984620003ee565b620003c5565b905082815260208101848484011115620001ae57620001ad62000569565b5b620001bb848285620004ba565b509392505050565b600082601f830112620001db57620001da62000564565b5b8135620001ed84826020860162000178565b91505092915050565b600081359050620002078162000589565b92915050565b60008060006060848603121562000229576200022862000573565b5b600084013567ffffffffffffffff8111156200024a57620002496200056e565b5b6200025886828701620001c3565b935050602084013567ffffffffffffffff8111156200027c576200027b6200056e565b5b6200028a86828701620001c3565b92505060406200029d86828701620001f6565b9150509250925092565b600060208284031215620002c057620002bf62000573565b5b6000620002d084828501620001f6565b91505092915050565b620002e4816200046a565b82525050565b620002f5816200047e565b82525050565b6000620003088262000424565b6200031481856200042f565b935062000326818560208601620004c9565b620003318162000578565b840191505092915050565b620003478162000460565b82525050565b6000608082019050620003646000830187620002d9565b8181036020830152620003788186620002fb565b90506200038960408301856200033c565b81810360608301526200039d8184620002fb565b905095945050505050565b6000602082019050620003bf6000830184620002ea565b92915050565b6000620003d1620003e4565b9050620003df8282620004ff565b919050565b6000604051905090565b600067ffffffffffffffff8211156200040c576200040b62000535565b5b620004178262000578565b9050602081019050919050565b600081519050919050565b600082825260208201905092915050565b600073ffffffffffffffffffffffffffffffffffffffff82169050919050565b6000819050919050565b6000620004778262000492565b9050919050565b60006200048b8262000492565b9050919050565b60006200049f82620004a6565b9050919050565b6000620004b38262000440565b9050919050565b82818337600083830152505050565b60005b83811015620004e9578082015181840152602081019050620004cc565b83811115620004f9576000848401525b50505050565b6200050a8262000578565b810181811067ffffffffffffffff821117156200052c576200052b62000535565b5b80604052505050565b7f4e487b7100000000000000000000000000000000000000000000000000000000600052604160045260246000fd5b600080fd5b600080fd5b600080fd5b600080fd5b6000601f19601f8301169050919050565b620005948162000460565b8114620005a057600080fd5b5056fe60806040523480156200001157600080fd5b50604051620009b7380380620009b7833981810160405281019062000037919062000253565b83600660006101000a81548173ffffffffffffffffffffffffffffffffffffffff021916908373ffffffffffffffffffffffffffffffffffffffff160217905550806000908051906020019062000090929190620000f7565b50816001819055506001600260006101000a81548160ff0219169083151502179055508260039080519060200190620000cb929190620000f7565b50600160048190555042600560006001815260200190815260200160002081905550505050506200050d565b8280546200010590620003ea565b90600052602060002090601f01602090048101928262000129576000855562000175565b82601f106200014457805160ff191683800117855562000175565b8280016001018555821562000175579182015b828111156200017457825182559160200191906001019062000157565b5b50905062000184919062000188565b5090565b5b80821115620001a357600081600090555060010162000189565b5090565b6000620001be620001b8846200032c565b62000303565b905082815260208101848484011115620001dd57620001dc620004b9565b5b620001ea848285620003b4565b509392505050565b6000815190506200020381620004d9565b92915050565b600082601f830112620002215762000220620004b4565b5b815162000233848260208601620001a7565b91505092915050565b6000815190506200024d81620004f3565b92915050565b6000806000806080858703121562000270576200026f620004c3565b5b60006200028087828801620001f2565b945050602085015167ffffffffffffffff811115620002a457620002a3620004be565b5b620002b28782880162000209565b9350506040620002c5878288016200023c565b925050606085015167ffffffffffffffff811115620002e957620002e8620004be565b5b620002f78782880162000209565b91505092959194509250565b60006200030f62000322565b90506200031d828262000420565b919050565b6000604051905090565b600067ffffffffffffffff8211156200034a576200034962000485565b5b6200035582620004c8565b9050602081019050919050565b60006200036f826200038a565b9050919050565b6000620003838262000362565b9050919050565b600073ffffffffffffffffffffffffffffffffffffffff82169050919050565b6000819050919050565b60005b83811015620003d4578082015181840152602081019050620003b7565b83811115620003e4576000848401525b50505050565b600060028204905060018216806200040357607f821691505b602082108114156200041a576200041962000456565b5b50919050565b6200042b82620004c8565b810181811067ffffffffffffffff821117156200044d576200044c62000485565b5b80604052505050565b7f4e487b7100000000000000000000000000000000000000000000000000000000600052602260045260246000fd5b7f4e487b7100000000000000000000000000000000000000000000000000000000600052604160045260246000fd5b600080fd5b600080fd5b600080fd5b600080fd5b6000601f19601f8301169050919050565b620004e48162000376565b8114620004f057600080fd5b50565b620004fe81620003aa565b81146200050a57600080fd5b50565b61049a806200051d6000396000f3fe608060405234801561001057600080fd5b50600436106100625760003560e01c806306fdde03146100675780633f83ea3b146100855780634b72d0d4146100a35780634c2e7fe9146100c1578063bb5d40eb146100df578063eb47b01d146100fd575b600080fd5b61006f61012d565b60405161007c9190610334565b60405180910390f35b61008d6101bb565b60405161009a9190610356565b60405180910390f35b6100ab6101c1565b6040516100b89190610334565b60405180910390f35b6100c961024f565b6040516100d69190610356565b60405180910390f35b6100e7610255565b6040516100f49190610319565b60405180910390f35b61011760048036038101906101129190610295565b610268565b6040516101249190610356565b60405180910390f35b6000805461013a906103d6565b80601f0160208091040260200160405190810160405280929190818152602001828054610166906103d6565b80156101b35780601f10610188576101008083540402835291602001916101b3565b820191906000526020600020905b81548152906001019060200180831161019657829003601f168201915b505050505081565b60015481565b600380546101ce906103d6565b80601f01602080910402602001604051908101604052809291908181526020018280546101fa906103d6565b80156102475780601f1061021c57610100808354040283529160200191610247565b820191906000526020600020905b81548152906001019060200180831161022a57829003601f168201915b505050505081565b60045481565b600260009054906101000a900460ff1681565b60056020528060005260406000206000915090505481565b60008135905061028f8161044d565b92915050565b6000602082840312156102ab576102aa610437565b5b60006102b984828501610280565b91505092915050565b6102cb8161038d565b82525050565b60006102dc82610371565b6102e6818561037c565b93506102f68185602086016103a3565b6102ff8161043c565b840191505092915050565b61031381610399565b82525050565b600060208201905061032e60008301846102c2565b92915050565b6000602082019050818103600083015261034e81846102d1565b905092915050565b600060208201905061036b600083018461030a565b92915050565b600081519050919050565b600082825260208201905092915050565b60008115159050919050565b6000819050919050565b60005b838110156103c15780820151818401526020810190506103a6565b838111156103d0576000848401525b50505050565b600060028204905060018216806103ee57607f821691505b6020821081141561040257610401610408565b5b50919050565b7f4e487b7100000000000000000000000000000000000000000000000000000000600052602260045260246000fd5b600080fd5b6000601f19601f8301169050919050565b61045681610399565b811461046157600080fd5b5056fea2646970667358221220c6f1094a681cbb586700590f0fecb6bc436dd59e64902cffaa4f5c3394716d8064736f6c63430008070033a26469706673582212203ea18c5370ab00e4d1eae16c185cf230bf1d1c59d6587e0a55d7066b42dfc70864736f6c63430008070033",
  "immutableReferences": {},
  "source": "pragma solidity ^0.8.7;\r\n\r\nimport \"./Card.sol\";\r\n\r\ncontract CardManager {\r\n    \r\n    struct P_Card {\r\n        Card card;\r\n    }\r\n    \r\n    mapping(uint => P_Card) public cards;\r\n    \r\n    function createCard(string memory _branch, string memory _name, uint256 _idNumber) public {\r\n        cards[_idNumber].card = new Card(this, _branch, _idNumber, _name);\r\n    }\r\n}\r\n",
  "sourcePath": "C:\\Users\\kcabu\\Documents\\New folder (2)\\thesis-ethereum\\truffle\\contracts\\CardManager.sol",
  "compiler": {
    "name": "solc",
    "version": "0.8.7+commit.e28d00a7.Emscripten.clang"
  },
  "schemaVersion": "3.4.3",
  "updatedAt": "2021-10-26T12:42:14.329Z",
  "networkType": "ethereum",
  "devdoc": {
    "kind": "dev",
    "methods": {},
    "version": 1
  },
  "userdoc": {
    "kind": "user",
    "methods": {},
    "version": 1
  }
}