{
  "contractName": "CardManager",
  "abi": [
    {
      "anonymous": false,
      "inputs": [
        {
          "indexed": true,
          "internalType": "uint256",
          "name": "_idNumber",
          "type": "uint256"
        },
        {
          "indexed": false,
          "internalType": "string",
          "name": "_ipfsHash",
          "type": "string"
        }
      ],
      "name": "CreateCardEvent",
      "type": "event"
    },
    {
      "inputs": [
        {
          "internalType": "uint256",
          "name": "",
          "type": "uint256"
        }
      ],
      "name": "cards",
      "outputs": [
        {
          "internalType": "contract Card",
          "name": "card",
          "type": "address"
        }
      ],
      "stateMutability": "view",
      "type": "function",
      "constant": true
    },
    {
      "inputs": [
        {
          "internalType": "string",
          "name": "_branch",
          "type": "string"
        },
        {
          "internalType": "uint256",
          "name": "_idNumber",
          "type": "uint256"
        },
        {
          "internalType": "string",
          "name": "_name",
          "type": "string"
        },
        {
          "internalType": "string",
          "name": "_ipfsHash",
          "type": "string"
        }
      ],
      "name": "createCard",
      "outputs": [],
      "stateMutability": "nonpayable",
      "type": "function"
    },
    {
      "inputs": [
        {
          "internalType": "uint256",
          "name": "_idNumber",
          "type": "uint256"
        }
      ],
      "name": "viewCard",
      "outputs": [
        {
          "internalType": "string",
          "name": "ipfsHash",
          "type": "string"
        }
      ],
      "stateMutability": "view",
      "type": "function",
      "constant": true
    }
  ],
  "bytecode": "0x608060405234801561001057600080fd5b50611655806100206000396000f3fe60806040523480156200001157600080fd5b5060043610620000465760003560e01c806354d12a3a146200004b5780638dc107681462000081578063fd47401f14620000b7575b600080fd5b620000696004803603810190620000639190620004ef565b620000d7565b60405162000078919062000624565b60405180910390f35b6200009f6004803603810190620000999190620004ef565b6200019c565b604051620000ae919062000607565b60405180910390f35b620000d56004803603810190620000cf919062000420565b620001da565b005b606060008083815260200190815260200160002060000160009054906101000a900473ffffffffffffffffffffffffffffffffffffffff1673ffffffffffffffffffffffffffffffffffffffff1663d13319c46040518163ffffffff1660e01b815260040160006040518083038186803b1580156200015557600080fd5b505afa1580156200016a573d6000803e3d6000fd5b505050506040513d6000823e3d601f19601f82011682018060405250810190620001959190620003cf565b9050919050565b60006020528060005260406000206000915090508060000160009054906101000a900473ffffffffffffffffffffffffffffffffffffffff16905081565b3084848484604051620001ed90620002ae565b620001fd95949392919062000595565b604051809103906000f0801580156200021a573d6000803e3d6000fd5b5060008085815260200190815260200160002060000160006101000a81548173ffffffffffffffffffffffffffffffffffffffff021916908373ffffffffffffffffffffffffffffffffffffffff160217905550827f1a8cce4d0d696ddd761ef867b35d4873c5add1730f71d3cb59a6f4ba55351a0382604051620002a0919062000624565b60405180910390a250505050565b610df9806200082783390190565b6000620002d3620002cd8462000671565b62000648565b905082815260208101848484011115620002f257620002f1620007ec565b5b620002ff8482856200073d565b509392505050565b60006200031e620003188462000671565b62000648565b9050828152602081018484840111156200033d576200033c620007ec565b5b6200034a8482856200074c565b509392505050565b600082601f8301126200036a5762000369620007e7565b5b81356200037c848260208601620002bc565b91505092915050565b600082601f8301126200039d576200039c620007e7565b5b8151620003af84826020860162000307565b91505092915050565b600081359050620003c9816200080c565b92915050565b600060208284031215620003e857620003e7620007f6565b5b600082015167ffffffffffffffff811115620004095762000408620007f1565b5b620004178482850162000385565b91505092915050565b600080600080608085870312156200043d576200043c620007f6565b5b600085013567ffffffffffffffff8111156200045e576200045d620007f1565b5b6200046c8782880162000352565b94505060206200047f87828801620003b8565b935050604085013567ffffffffffffffff811115620004a357620004a2620007f1565b5b620004b18782880162000352565b925050606085013567ffffffffffffffff811115620004d557620004d4620007f1565b5b620004e38782880162000352565b91505092959194509250565b600060208284031215620005085762000507620007f6565b5b60006200051884828501620003b8565b91505092915050565b6200052c81620006ed565b82525050565b6200053d8162000701565b82525050565b60006200055082620006a7565b6200055c8185620006b2565b93506200056e8185602086016200074c565b6200057981620007fb565b840191505092915050565b6200058f81620006e3565b82525050565b600060a082019050620005ac600083018862000521565b8181036020830152620005c0818762000543565b9050620005d1604083018662000584565b8181036060830152620005e5818562000543565b90508181036080830152620005fb818462000543565b90509695505050505050565b60006020820190506200061e600083018462000532565b92915050565b6000602082019050818103600083015262000640818462000543565b905092915050565b60006200065462000667565b905062000662828262000782565b919050565b6000604051905090565b600067ffffffffffffffff8211156200068f576200068e620007b8565b5b6200069a82620007fb565b9050602081019050919050565b600081519050919050565b600082825260208201905092915050565b600073ffffffffffffffffffffffffffffffffffffffff82169050919050565b6000819050919050565b6000620006fa8262000715565b9050919050565b60006200070e8262000715565b9050919050565b6000620007228262000729565b9050919050565b60006200073682620006c3565b9050919050565b82818337600083830152505050565b60005b838110156200076c5780820151818401526020810190506200074f565b838111156200077c576000848401525b50505050565b6200078d82620007fb565b810181811067ffffffffffffffff82111715620007af57620007ae620007b8565b5b80604052505050565b7f4e487b7100000000000000000000000000000000000000000000000000000000600052604160045260246000fd5b600080fd5b600080fd5b600080fd5b600080fd5b6000601f19601f8301169050919050565b6200081781620006e3565b81146200082357600080fd5b5056fe60806040523480156200001157600080fd5b5060405162000df938038062000df983398181016040528101906200003791906200026d565b84600760006101000a81548173ffffffffffffffffffffffffffffffffffffffff021916908373ffffffffffffffffffffffffffffffffffffffff16021790555081600090805190602001906200009092919062000111565b50826001819055506001600260006101000a81548160ff0219169083151502179055508360039080519060200190620000cb92919062000111565b5060016004819055504260056000600181526020019081526020016000208190555080600690805190602001906200010592919062000111565b5050505050506200055c565b8280546200011f9062000439565b90600052602060002090601f0160209004810192826200014357600085556200018f565b82601f106200015e57805160ff19168380011785556200018f565b828001600101855582156200018f579182015b828111156200018e57825182559160200191906001019062000171565b5b5090506200019e9190620001a2565b5090565b5b80821115620001bd576000816000905550600101620001a3565b5090565b6000620001d8620001d2846200037b565b62000352565b905082815260208101848484011115620001f757620001f662000508565b5b6200020484828562000403565b509392505050565b6000815190506200021d8162000528565b92915050565b600082601f8301126200023b576200023a62000503565b5b81516200024d848260208601620001c1565b91505092915050565b600081519050620002678162000542565b92915050565b600080600080600060a086880312156200028c576200028b62000512565b5b60006200029c888289016200020c565b955050602086015167ffffffffffffffff811115620002c057620002bf6200050d565b5b620002ce8882890162000223565b9450506040620002e18882890162000256565b935050606086015167ffffffffffffffff8111156200030557620003046200050d565b5b620003138882890162000223565b925050608086015167ffffffffffffffff8111156200033757620003366200050d565b5b620003458882890162000223565b9150509295509295909350565b60006200035e62000371565b90506200036c82826200046f565b919050565b6000604051905090565b600067ffffffffffffffff821115620003995762000398620004d4565b5b620003a48262000517565b9050602081019050919050565b6000620003be82620003d9565b9050919050565b6000620003d282620003b1565b9050919050565b600073ffffffffffffffffffffffffffffffffffffffff82169050919050565b6000819050919050565b60005b838110156200042357808201518184015260208101905062000406565b8381111562000433576000848401525b50505050565b600060028204905060018216806200045257607f821691505b60208210811415620004695762000468620004a5565b5b50919050565b6200047a8262000517565b810181811067ffffffffffffffff821117156200049c576200049b620004d4565b5b80604052505050565b7f4e487b7100000000000000000000000000000000000000000000000000000000600052602260045260246000fd5b7f4e487b7100000000000000000000000000000000000000000000000000000000600052604160045260246000fd5b600080fd5b600080fd5b600080fd5b600080fd5b6000601f19601f8301169050919050565b6200053381620003c5565b81146200053f57600080fd5b50565b6200054d81620003f9565b81146200055957600080fd5b50565b61088d806200056c6000396000f3fe608060405234801561001057600080fd5b50600436106100935760003560e01c80634c2e7fe9116100665780634c2e7fe91461010e578063bb5d40eb1461012c578063c623674f1461014a578063d13319c414610168578063eb47b01d1461018657610093565b806306fdde03146100985780631ed83fd4146100b65780633f83ea3b146100d25780634b72d0d4146100f0575b600080fd5b6100a06101b6565b6040516100ad9190610653565b60405180910390f35b6100d060048036038101906100cb919061056b565b610244565b005b6100da61025e565b6040516100e79190610675565b60405180910390f35b6100f8610264565b6040516101059190610653565b60405180910390f35b6101166102f2565b6040516101239190610675565b60405180910390f35b6101346102f8565b6040516101419190610638565b60405180910390f35b61015261030b565b60405161015f9190610653565b60405180910390f35b610170610399565b60405161017d9190610653565b60405180910390f35b6101a0600480360381019061019b91906105b4565b61042b565b6040516101ad9190610675565b60405180910390f35b600080546101c39061075a565b80601f01602080910402602001604051908101604052809291908181526020018280546101ef9061075a565b801561023c5780601f106102115761010080835404028352916020019161023c565b820191906000526020600020905b81548152906001019060200180831161021f57829003601f168201915b505050505081565b806006908051906020019061025a929190610443565b5050565b60015481565b600380546102719061075a565b80601f016020809104026020016040519081016040528092919081815260200182805461029d9061075a565b80156102ea5780601f106102bf576101008083540402835291602001916102ea565b820191906000526020600020905b8154815290600101906020018083116102cd57829003601f168201915b505050505081565b60045481565b600260009054906101000a900460ff1681565b600680546103189061075a565b80601f01602080910402602001604051908101604052809291908181526020018280546103449061075a565b80156103915780601f1061036657610100808354040283529160200191610391565b820191906000526020600020905b81548152906001019060200180831161037457829003601f168201915b505050505081565b6060600680546103a89061075a565b80601f01602080910402602001604051908101604052809291908181526020018280546103d49061075a565b80156104215780601f106103f657610100808354040283529160200191610421565b820191906000526020600020905b81548152906001019060200180831161040457829003601f168201915b5050505050905090565b60056020528060005260406000206000915090505481565b82805461044f9061075a565b90600052602060002090601f01602090048101928261047157600085556104b8565b82601f1061048a57805160ff19168380011785556104b8565b828001600101855582156104b8579182015b828111156104b757825182559160200191906001019061049c565b5b5090506104c591906104c9565b5090565b5b808211156104e25760008160009055506001016104ca565b5090565b60006104f96104f4846106b5565b610690565b90508281526020810184848401111561051557610514610820565b5b610520848285610718565b509392505050565b600082601f83011261053d5761053c61081b565b5b813561054d8482602086016104e6565b91505092915050565b60008135905061056581610840565b92915050565b6000602082840312156105815761058061082a565b5b600082013567ffffffffffffffff81111561059f5761059e610825565b5b6105ab84828501610528565b91505092915050565b6000602082840312156105ca576105c961082a565b5b60006105d884828501610556565b91505092915050565b6105ea81610702565b82525050565b60006105fb826106e6565b61060581856106f1565b9350610615818560208601610727565b61061e8161082f565b840191505092915050565b6106328161070e565b82525050565b600060208201905061064d60008301846105e1565b92915050565b6000602082019050818103600083015261066d81846105f0565b905092915050565b600060208201905061068a6000830184610629565b92915050565b600061069a6106ab565b90506106a6828261078c565b919050565b6000604051905090565b600067ffffffffffffffff8211156106d0576106cf6107ec565b5b6106d98261082f565b9050602081019050919050565b600081519050919050565b600082825260208201905092915050565b60008115159050919050565b6000819050919050565b82818337600083830152505050565b60005b8381101561074557808201518184015260208101905061072a565b83811115610754576000848401525b50505050565b6000600282049050600182168061077257607f821691505b60208210811415610786576107856107bd565b5b50919050565b6107958261082f565b810181811067ffffffffffffffff821117156107b4576107b36107ec565b5b80604052505050565b7f4e487b7100000000000000000000000000000000000000000000000000000000600052602260045260246000fd5b7f4e487b7100000000000000000000000000000000000000000000000000000000600052604160045260246000fd5b600080fd5b600080fd5b600080fd5b600080fd5b6000601f19601f8301169050919050565b6108498161070e565b811461085457600080fd5b5056fea2646970667358221220cbb809507413cb58a552a309800078521ab14aca61ab8c95616bd384f987854564736f6c63430008070033a26469706673582212205f491701fd3097801d6454f7bfaf699153ebab560630c293df7c42e6c15bd09f64736f6c63430008070033",
  "immutableReferences": {},
  "source": "pragma solidity ^0.8.7;\r\n\r\nimport \"./Card.sol\";\r\n\r\ncontract CardManager {\r\n    \r\n    event CreateCardEvent(uint indexed _idNumber, string _ipfsHash);\r\n\r\n    struct P_Card {\r\n        Card card;\r\n    }\r\n    \r\n    mapping(uint => P_Card) public cards;\r\n    \r\n    function createCard(string memory _branch, uint256 _idNumber,  string memory _name, string memory _ipfsHash) public {\r\n        cards[_idNumber].card = new Card(this, _branch, _idNumber, _name, _ipfsHash);\r\n        emit CreateCardEvent(_idNumber, _ipfsHash);\r\n    }\r\n\r\n    function viewCard(uint256 _idNumber) public view returns(string memory ipfsHash){\r\n        return (cards[_idNumber].card.getHash());\r\n    }\r\n    \r\n}\r\n",
  "sourcePath": "C:\\Users\\kcabu\\Documents\\New folder (2)\\thesis-ethereum\\truffle\\contracts\\CardManager.sol",
  "compiler": {
    "name": "solc",
    "version": "0.8.7+commit.e28d00a7.Emscripten.clang"
  },
  "schemaVersion": "3.4.3",
  "updatedAt": "2021-11-30T13:51:05.299Z",
  "networkType": "ethereum",
  "devdoc": {
    "kind": "dev",
    "methods": {},
    "version": 1
  },
  "userdoc": {
    "kind": "user",
    "methods": {},
    "version": 1
  }
}