{
  "contractName": "CardManager",
  "abi": [
    {
      "anonymous": false,
      "inputs": [
        {
          "indexed": true,
          "internalType": "uint256",
          "name": "_idNumber",
          "type": "uint256"
        },
        {
          "indexed": false,
          "internalType": "string",
          "name": "_ipfsHash",
          "type": "string"
        }
      ],
      "name": "CreateCardEvent",
      "type": "event"
    },
    {
      "anonymous": false,
      "inputs": [
        {
          "indexed": true,
          "internalType": "uint256",
          "name": "_idNumber",
          "type": "uint256"
        },
        {
          "indexed": false,
          "internalType": "string",
          "name": "_ipfsHash",
          "type": "string"
        }
      ],
      "name": "EditCardEvent",
      "type": "event"
    },
    {
      "anonymous": false,
      "inputs": [
        {
          "indexed": true,
          "internalType": "uint256",
          "name": "_idNumber",
          "type": "uint256"
        },
        {
          "indexed": false,
          "internalType": "string",
          "name": "_ipfsHash",
          "type": "string"
        }
      ],
      "name": "RenewCardEvent",
      "type": "event"
    },
    {
      "inputs": [
        {
          "internalType": "uint256",
          "name": "",
          "type": "uint256"
        }
      ],
      "name": "cards",
      "outputs": [
        {
          "internalType": "contract Card",
          "name": "card",
          "type": "address"
        }
      ],
      "stateMutability": "view",
      "type": "function"
    },
    {
      "inputs": [
        {
          "internalType": "uint256",
          "name": "_idNumber",
          "type": "uint256"
        },
        {
          "internalType": "string",
          "name": "_ipfsHash",
          "type": "string"
        }
      ],
      "name": "createCard",
      "outputs": [],
      "stateMutability": "nonpayable",
      "type": "function"
    },
    {
      "inputs": [
        {
          "internalType": "uint256",
          "name": "_idNumber",
          "type": "uint256"
        },
        {
          "internalType": "string",
          "name": "_ipfsHash",
          "type": "string"
        }
      ],
      "name": "editCard",
      "outputs": [],
      "stateMutability": "nonpayable",
      "type": "function"
    },
    {
      "inputs": [
        {
          "internalType": "uint256",
          "name": "_idNumber",
          "type": "uint256"
        },
        {
          "internalType": "string",
          "name": "_ipfsHash",
          "type": "string"
        }
      ],
      "name": "renewCard",
      "outputs": [],
      "stateMutability": "nonpayable",
      "type": "function"
    },
    {
      "inputs": [
        {
          "internalType": "uint256",
          "name": "_idNumber",
          "type": "uint256"
        }
      ],
      "name": "viewCard",
      "outputs": [
        {
          "internalType": "string",
          "name": "ipfsHash",
          "type": "string"
        }
      ],
      "stateMutability": "view",
      "type": "function"
    }
  ],
  "bytecode": "0x608060405234801561001057600080fd5b50611407806100206000396000f3fe60806040523480156200001157600080fd5b50600436106200005e5760003560e01c8063234d2137146200006357806354d12a3a14620000835780638dc1076814620000b9578063d06eb41a14620000ef578063ec52df77146200010f575b600080fd5b6200008160048036038101906200007b919062000640565b6200012f565b005b620000a160048036038101906200009b91906200060e565b620001fd565b604051620000b091906200077b565b60405180910390f35b620000d76004803603810190620000d191906200060e565b620002c2565b604051620000e691906200075e565b60405180910390f35b6200010d600480360381019062000107919062000640565b62000300565b005b6200012d600480360381019062000127919062000640565b620003ce565b005b30828260405162000140906200049c565b6200014e939291906200071a565b604051809103906000f0801580156200016b573d6000803e3d6000fd5b5060008084815260200190815260200160002060000160006101000a81548173ffffffffffffffffffffffffffffffffffffffff021916908373ffffffffffffffffffffffffffffffffffffffff160217905550817f1a8cce4d0d696ddd761ef867b35d4873c5add1730f71d3cb59a6f4ba55351a0382604051620001f191906200077b565b60405180910390a25050565b606060008083815260200190815260200160002060000160009054906101000a900473ffffffffffffffffffffffffffffffffffffffff1673ffffffffffffffffffffffffffffffffffffffff1663d13319c46040518163ffffffff1660e01b815260040160006040518083038186803b1580156200027b57600080fd5b505afa15801562000290573d6000803e3d6000fd5b505050506040513d6000823e3d601f19601f82011682018060405250810190620002bb9190620005bd565b9050919050565b60006020528060005260406000206000915090508060000160009054906101000a900473ffffffffffffffffffffffffffffffffffffffff16905081565b30828260405162000311906200049c565b6200031f939291906200071a565b604051809103906000f0801580156200033c573d6000803e3d6000fd5b5060008084815260200190815260200160002060000160006101000a81548173ffffffffffffffffffffffffffffffffffffffff021916908373ffffffffffffffffffffffffffffffffffffffff160217905550817ffbd0fa3b983abc898884ab2bf0550bf66a7af22a99dd3fc7aca59ba8309ead2182604051620003c291906200077b565b60405180910390a25050565b308282604051620003df906200049c565b620003ed939291906200071a565b604051809103906000f0801580156200040a573d6000803e3d6000fd5b5060008084815260200190815260200160002060000160006101000a81548173ffffffffffffffffffffffffffffffffffffffff021916908373ffffffffffffffffffffffffffffffffffffffff160217905550817f88db5ab9fe395c521eb212c9f3888089c6af2c531fc6a39f27341b7c69919c5b826040516200049091906200077b565b60405180910390a25050565b610a54806200097e83390190565b6000620004c1620004bb84620007c8565b6200079f565b905082815260208101848484011115620004e057620004df62000943565b5b620004ed84828562000894565b509392505050565b60006200050c6200050684620007c8565b6200079f565b9050828152602081018484840111156200052b576200052a62000943565b5b62000538848285620008a3565b509392505050565b600082601f8301126200055857620005576200093e565b5b81356200056a848260208601620004aa565b91505092915050565b600082601f8301126200058b576200058a6200093e565b5b81516200059d848260208601620004f5565b91505092915050565b600081359050620005b78162000963565b92915050565b600060208284031215620005d657620005d56200094d565b5b600082015167ffffffffffffffff811115620005f757620005f662000948565b5b620006058482850162000573565b91505092915050565b6000602082840312156200062757620006266200094d565b5b60006200063784828501620005a6565b91505092915050565b600080604083850312156200065a57620006596200094d565b5b60006200066a85828601620005a6565b925050602083013567ffffffffffffffff8111156200068e576200068d62000948565b5b6200069c8582860162000540565b9150509250929050565b620006b18162000844565b82525050565b620006c28162000858565b82525050565b6000620006d582620007fe565b620006e1818562000809565b9350620006f3818560208601620008a3565b620006fe8162000952565b840191505092915050565b62000714816200083a565b82525050565b6000606082019050620007316000830186620006a6565b62000740602083018562000709565b8181036040830152620007548184620006c8565b9050949350505050565b6000602082019050620007756000830184620006b7565b92915050565b60006020820190508181036000830152620007978184620006c8565b905092915050565b6000620007ab620007be565b9050620007b98282620008d9565b919050565b6000604051905090565b600067ffffffffffffffff821115620007e657620007e56200090f565b5b620007f18262000952565b9050602081019050919050565b600081519050919050565b600082825260208201905092915050565b600073ffffffffffffffffffffffffffffffffffffffff82169050919050565b6000819050919050565b600062000851826200086c565b9050919050565b600062000865826200086c565b9050919050565b6000620008798262000880565b9050919050565b60006200088d826200081a565b9050919050565b82818337600083830152505050565b60005b83811015620008c3578082015181840152602081019050620008a6565b83811115620008d3576000848401525b50505050565b620008e48262000952565b810181811067ffffffffffffffff821117156200090657620009056200090f565b5b80604052505050565b7f4e487b7100000000000000000000000000000000000000000000000000000000600052604160045260246000fd5b600080fd5b600080fd5b600080fd5b600080fd5b6000601f19601f8301169050919050565b6200096e816200083a565b81146200097a57600080fd5b5056fe60806040523480156200001157600080fd5b5060405162000a5438038062000a548339818101604052810190620000379190620001fd565b82600260006101000a81548173ffffffffffffffffffffffffffffffffffffffff021916908373ffffffffffffffffffffffffffffffffffffffff16021790555081600081905550806001908051906020019062000097929190620000a1565b5050505062000482565b828054620000af906200035f565b90600052602060002090601f016020900481019282620000d357600085556200011f565b82601f10620000ee57805160ff19168380011785556200011f565b828001600101855582156200011f579182015b828111156200011e57825182559160200191906001019062000101565b5b5090506200012e919062000132565b5090565b5b808211156200014d57600081600090555060010162000133565b5090565b6000620001686200016284620002a1565b62000278565b9050828152602081018484840111156200018757620001866200042e565b5b6200019484828562000329565b509392505050565b600081519050620001ad816200044e565b92915050565b600082601f830112620001cb57620001ca62000429565b5b8151620001dd84826020860162000151565b91505092915050565b600081519050620001f78162000468565b92915050565b60008060006060848603121562000219576200021862000438565b5b600062000229868287016200019c565b93505060206200023c86828701620001e6565b925050604084015167ffffffffffffffff81111562000260576200025f62000433565b5b6200026e86828701620001b3565b9150509250925092565b60006200028462000297565b905062000292828262000395565b919050565b6000604051905090565b600067ffffffffffffffff821115620002bf57620002be620003fa565b5b620002ca826200043d565b9050602081019050919050565b6000620002e482620002ff565b9050919050565b6000620002f882620002d7565b9050919050565b600073ffffffffffffffffffffffffffffffffffffffff82169050919050565b6000819050919050565b60005b83811015620003495780820151818401526020810190506200032c565b8381111562000359576000848401525b50505050565b600060028204905060018216806200037857607f821691505b602082108114156200038f576200038e620003cb565b5b50919050565b620003a0826200043d565b810181811067ffffffffffffffff82111715620003c257620003c1620003fa565b5b80604052505050565b7f4e487b7100000000000000000000000000000000000000000000000000000000600052602260045260246000fd5b7f4e487b7100000000000000000000000000000000000000000000000000000000600052604160045260246000fd5b600080fd5b600080fd5b600080fd5b600080fd5b6000601f19601f8301169050919050565b6200045981620002eb565b81146200046557600080fd5b50565b62000473816200031f565b81146200047f57600080fd5b50565b6105c280620004926000396000f3fe608060405234801561001057600080fd5b506004361061004c5760003560e01c80631ed83fd4146100515780633f83ea3b1461006d578063c623674f1461008b578063d13319c4146100a9575b600080fd5b61006b6004803603810190610066919061031a565b6100c7565b005b6100756100e1565b60405161008291906103cd565b60405180910390f35b6100936100e7565b6040516100a091906103ab565b60405180910390f35b6100b1610175565b6040516100be91906103ab565b60405180910390f35b80600190805190602001906100dd929190610207565b5050565b60005481565b600180546100f4906104a6565b80601f0160208091040260200160405190810160405280929190818152602001828054610120906104a6565b801561016d5780601f106101425761010080835404028352916020019161016d565b820191906000526020600020905b81548152906001019060200180831161015057829003601f168201915b505050505081565b606060018054610184906104a6565b80601f01602080910402602001604051908101604052809291908181526020018280546101b0906104a6565b80156101fd5780601f106101d2576101008083540402835291602001916101fd565b820191906000526020600020905b8154815290600101906020018083116101e057829003601f168201915b5050505050905090565b828054610213906104a6565b90600052602060002090601f016020900481019282610235576000855561027c565b82601f1061024e57805160ff191683800117855561027c565b8280016001018555821561027c579182015b8281111561027b578251825591602001919060010190610260565b5b509050610289919061028d565b5090565b5b808211156102a657600081600090555060010161028e565b5090565b60006102bd6102b88461040d565b6103e8565b9050828152602081018484840111156102d9576102d861056c565b5b6102e4848285610464565b509392505050565b600082601f83011261030157610300610567565b5b81356103118482602086016102aa565b91505092915050565b6000602082840312156103305761032f610576565b5b600082013567ffffffffffffffff81111561034e5761034d610571565b5b61035a848285016102ec565b91505092915050565b600061036e8261043e565b6103788185610449565b9350610388818560208601610473565b6103918161057b565b840191505092915050565b6103a58161045a565b82525050565b600060208201905081810360008301526103c58184610363565b905092915050565b60006020820190506103e2600083018461039c565b92915050565b60006103f2610403565b90506103fe82826104d8565b919050565b6000604051905090565b600067ffffffffffffffff82111561042857610427610538565b5b6104318261057b565b9050602081019050919050565b600081519050919050565b600082825260208201905092915050565b6000819050919050565b82818337600083830152505050565b60005b83811015610491578082015181840152602081019050610476565b838111156104a0576000848401525b50505050565b600060028204905060018216806104be57607f821691505b602082108114156104d2576104d1610509565b5b50919050565b6104e18261057b565b810181811067ffffffffffffffff82111715610500576104ff610538565b5b80604052505050565b7f4e487b7100000000000000000000000000000000000000000000000000000000600052602260045260246000fd5b7f4e487b7100000000000000000000000000000000000000000000000000000000600052604160045260246000fd5b600080fd5b600080fd5b600080fd5b600080fd5b6000601f19601f830116905091905056fea26469706673582212205996ac8f1ac6261e7ae82f10ed85ee5a37464fff1e22a315d6f310fc82b9f5a564736f6c63430008070033a2646970667358221220a04ab69615ce57fb8bd0bd323c391c6c642078f070f29a5f0898d019f3283bad64736f6c63430008070033",
  "immutableReferences": {},
  "source": "pragma solidity ^0.8.7;\r\n\r\nimport \"./Card.sol\";\r\n\r\ncontract CardManager {\r\n    \r\n    event CreateCardEvent(uint indexed _idNumber, string _ipfsHash);\r\n    event EditCardEvent(uint indexed _idNumber, string _ipfsHash);\r\n    event RenewCardEvent(uint indexed _idNumber, string _ipfsHash);\r\n    struct P_Card {\r\n        Card card;\r\n    }\r\n    \r\n    mapping(uint => P_Card) public cards;\r\n    \r\n    function createCard(uint256 _idNumber, string memory _ipfsHash) public {\r\n        cards[_idNumber].card = new Card(this, _idNumber, _ipfsHash);\r\n        emit CreateCardEvent(_idNumber, _ipfsHash);\r\n    }\r\n\r\n    function editCard(uint256 _idNumber, string memory _ipfsHash) public {\r\n        cards[_idNumber].card = new Card(this, _idNumber, _ipfsHash);\r\n        emit EditCardEvent(_idNumber, _ipfsHash);\r\n    }\r\n\r\n    function renewCard(uint256 _idNumber, string memory _ipfsHash) public {\r\n        cards[_idNumber].card = new Card(this, _idNumber, _ipfsHash);\r\n        emit RenewCardEvent(_idNumber, _ipfsHash);\r\n    }\r\n\r\n    function viewCard(uint256 _idNumber) public view returns(string memory ipfsHash){\r\n        return (cards[_idNumber].card.getHash());\r\n    }\r\n    \r\n}\r\n",
  "sourcePath": "C:\\Users\\kcabu\\Documents\\New folder (2)\\thesis-ethereum\\truffle\\contracts\\CardManager.sol",
  "compiler": {
    "name": "solc",
    "version": "0.8.7+commit.e28d00a7.Emscripten.clang"
  },
  "schemaVersion": "3.4.3",
  "updatedAt": "2022-02-09T11:49:13.466Z",
  "devdoc": {
    "kind": "dev",
    "methods": {},
    "version": 1
  },
  "userdoc": {
    "kind": "user",
    "methods": {},
    "version": 1
  }
}