{
  "contractName": "CardManager",
  "abi": [
    {
      "inputs": [
        {
          "internalType": "uint256",
          "name": "",
          "type": "uint256"
        }
      ],
      "name": "cards",
      "outputs": [
        {
          "internalType": "contract Card",
          "name": "card",
          "type": "address"
        }
      ],
      "stateMutability": "view",
      "type": "function",
      "constant": true
    },
    {
      "inputs": [
        {
          "internalType": "contract Branch",
          "name": "_branch",
          "type": "address"
        },
        {
          "internalType": "string",
          "name": "_name",
          "type": "string"
        },
        {
          "internalType": "uint256",
          "name": "_idNumber",
          "type": "uint256"
        }
      ],
      "name": "createCard",
      "outputs": [],
      "stateMutability": "nonpayable",
      "type": "function"
    }
  ],
  "bytecode": "0x608060405234801561001057600080fd5b5061104e806100206000396000f3fe60806040523480156200001157600080fd5b50600436106200003a5760003560e01c80636fd0aaf8146200003f5780638dc10768146200005f575b600080fd5b6200005d600480360381019062000057919062000224565b62000095565b005b6200007d60048036038101906200007791906200029f565b6200012c565b6040516200008c9190620003aa565b60405180910390f35b30838284604051620000a7906200016a565b620000b6949392919062000356565b604051809103906000f080158015620000d3573d6000803e3d6000fd5b5060008083815260200190815260200160002060000160006101000a81548173ffffffffffffffffffffffffffffffffffffffff021916908373ffffffffffffffffffffffffffffffffffffffff160217905550505050565b60006020528060005260406000206000915090508060000160009054906101000a900473ffffffffffffffffffffffffffffffffffffffff16905081565b610a1d80620005fc83390190565b60006200018f6200018984620003f0565b620003c7565b905082815260208101848484011115620001ae57620001ad620005a7565b5b620001bb848285620004f8565b509392505050565b600081359050620001d481620005c7565b92915050565b600082601f830112620001f257620001f1620005a2565b5b81356200020484826020860162000178565b91505092915050565b6000813590506200021e81620005e1565b92915050565b60008060006060848603121562000240576200023f620005b1565b5b60006200025086828701620001c3565b935050602084013567ffffffffffffffff811115620002745762000273620005ac565b5b6200028286828701620001da565b925050604062000295868287016200020d565b9150509250925092565b600060208284031215620002b857620002b7620005b1565b5b6000620002c8848285016200020d565b91505092915050565b620002dc8162000494565b82525050565b620002ed81620004a8565b82525050565b620002fe81620004bc565b82525050565b6000620003118262000426565b6200031d818562000431565b93506200032f81856020860162000507565b6200033a81620005b6565b840191505092915050565b62000350816200048a565b82525050565b60006080820190506200036d6000830187620002e2565b6200037c6020830186620002d1565b6200038b604083018562000345565b81810360608301526200039f818462000304565b905095945050505050565b6000602082019050620003c16000830184620002f3565b92915050565b6000620003d3620003e6565b9050620003e182826200053d565b919050565b6000604051905090565b600067ffffffffffffffff8211156200040e576200040d62000573565b5b6200041982620005b6565b9050602081019050919050565b600081519050919050565b600082825260208201905092915050565b60006200044f826200046a565b9050919050565b6000620004638262000442565b9050919050565b600073ffffffffffffffffffffffffffffffffffffffff82169050919050565b6000819050919050565b6000620004a182620004d0565b9050919050565b6000620004b582620004d0565b9050919050565b6000620004c982620004d0565b9050919050565b6000620004dd82620004e4565b9050919050565b6000620004f1826200046a565b9050919050565b82818337600083830152505050565b60005b83811015620005275780820151818401526020810190506200050a565b8381111562000537576000848401525b50505050565b6200054882620005b6565b810181811067ffffffffffffffff821117156200056a576200056962000573565b5b80604052505050565b7f4e487b7100000000000000000000000000000000000000000000000000000000600052604160045260246000fd5b600080fd5b600080fd5b600080fd5b600080fd5b6000601f19601f8301169050919050565b620005d28162000456565b8114620005de57600080fd5b50565b620005ec816200048a565b8114620005f857600080fd5b5056fe60806040523480156200001157600080fd5b5060405162000a1d38038062000a1d833981810160405281019062000037919062000292565b83600560006101000a81548173ffffffffffffffffffffffffffffffffffffffff021916908373ffffffffffffffffffffffffffffffffffffffff1602179055508060009080519060200190620000909291906200011f565b50816001819055506001600260006101000a81548160ff02191690831515021790555082600260016101000a81548173ffffffffffffffffffffffffffffffffffffffff021916908373ffffffffffffffffffffffffffffffffffffffff160217905550600160038190555042600460006001815260200190815260200160002081905550505050506200055b565b8280546200012d906200041e565b90600052602060002090601f0160209004810192826200015157600085556200019d565b82601f106200016c57805160ff19168380011785556200019d565b828001600101855582156200019d579182015b828111156200019c5782518255916020019190600101906200017f565b5b509050620001ac9190620001b0565b5090565b5b80821115620001cb576000816000905550600101620001b1565b5090565b6000620001e6620001e0846200034c565b62000323565b905082815260208101848484011115620002055762000204620004ed565b5b62000212848285620003e8565b509392505050565b6000815190506200022b816200050d565b92915050565b600081519050620002428162000527565b92915050565b600082601f83011262000260576200025f620004e8565b5b815162000272848260208601620001cf565b91505092915050565b6000815190506200028c8162000541565b92915050565b60008060008060808587031215620002af57620002ae620004f7565b5b6000620002bf8782880162000231565b9450506020620002d2878288016200021a565b9350506040620002e5878288016200027b565b925050606085015167ffffffffffffffff811115620003095762000308620004f2565b5b620003178782880162000248565b91505092959194509250565b60006200032f62000342565b90506200033d828262000454565b919050565b6000604051905090565b600067ffffffffffffffff8211156200036a5762000369620004b9565b5b6200037582620004fc565b9050602081019050919050565b60006200038f82620003be565b9050919050565b6000620003a38262000382565b9050919050565b6000620003b78262000382565b9050919050565b600073ffffffffffffffffffffffffffffffffffffffff82169050919050565b6000819050919050565b60005b8381101562000408578082015181840152602081019050620003eb565b8381111562000418576000848401525b50505050565b600060028204905060018216806200043757607f821691505b602082108114156200044e576200044d6200048a565b5b50919050565b6200045f82620004fc565b810181811067ffffffffffffffff82111715620004815762000480620004b9565b5b80604052505050565b7f4e487b7100000000000000000000000000000000000000000000000000000000600052602260045260246000fd5b7f4e487b7100000000000000000000000000000000000000000000000000000000600052604160045260246000fd5b600080fd5b600080fd5b600080fd5b600080fd5b6000601f19601f8301169050919050565b620005188162000396565b81146200052457600080fd5b50565b6200053281620003aa565b81146200053e57600080fd5b50565b6200054c81620003de565b81146200055857600080fd5b50565b6104b2806200056b6000396000f3fe608060405234801561001057600080fd5b50600436106100625760003560e01c806306fdde03146100675780633f83ea3b146100855780634b72d0d4146100a35780634c2e7fe9146100c1578063bb5d40eb146100df578063eb47b01d146100fd575b600080fd5b61006f61012d565b60405161007c91906102f6565b60405180910390f35b61008d6101bb565b60405161009a9190610318565b60405180910390f35b6100ab6101c1565b6040516100b891906102db565b60405180910390f35b6100c96101e7565b6040516100d69190610318565b60405180910390f35b6100e76101ed565b6040516100f491906102c0565b60405180910390f35b6101176004803603810190610112919061022d565b610200565b6040516101249190610318565b60405180910390f35b6000805461013a906103ee565b80601f0160208091040260200160405190810160405280929190818152602001828054610166906103ee565b80156101b35780601f10610188576101008083540402835291602001916101b3565b820191906000526020600020905b81548152906001019060200180831161019657829003601f168201915b505050505081565b60015481565b600260019054906101000a900473ffffffffffffffffffffffffffffffffffffffff1681565b60035481565b600260009054906101000a900460ff1681565b60046020528060005260406000206000915090505481565b60008135905061022781610465565b92915050565b6000602082840312156102435761024261044f565b5b600061025184828501610218565b91505092915050565b6102638161034f565b82525050565b61027281610385565b82525050565b600061028382610333565b61028d818561033e565b935061029d8185602086016103bb565b6102a681610454565b840191505092915050565b6102ba8161037b565b82525050565b60006020820190506102d5600083018461025a565b92915050565b60006020820190506102f06000830184610269565b92915050565b600060208201905081810360008301526103108184610278565b905092915050565b600060208201905061032d60008301846102b1565b92915050565b600081519050919050565b600082825260208201905092915050565b60008115159050919050565b600073ffffffffffffffffffffffffffffffffffffffff82169050919050565b6000819050919050565b600061039082610397565b9050919050565b60006103a2826103a9565b9050919050565b60006103b48261035b565b9050919050565b60005b838110156103d95780820151818401526020810190506103be565b838111156103e8576000848401525b50505050565b6000600282049050600182168061040657607f821691505b6020821081141561041a57610419610420565b5b50919050565b7f4e487b7100000000000000000000000000000000000000000000000000000000600052602260045260246000fd5b600080fd5b6000601f19601f8301169050919050565b61046e8161037b565b811461047957600080fd5b5056fea26469706673582212208b92a3e0a327d9ed63bd970424fc3c00d40ea502982db67a0f727415fd72db4c64736f6c63430008070033a26469706673582212204c1633c08ee87b71c7e57efed40707191378115b4565729afa9d1a81595ee8d664736f6c63430008070033",
  "immutableReferences": {},
  "source": "pragma solidity ^0.8.7;\n\nimport \"./Card.sol\";\nimport \"./Branch.sol\";\n\ncontract CardManager {\n    \n    struct P_Card {\n        Card card;\n    }\n    \n    mapping(uint => P_Card) public cards;\n    \n    function createCard(Branch _branch, string memory _name, uint256 _idNumber) public {\n        cards[_idNumber].card = new Card(this, _branch, _idNumber, _name);\n    }\n}\n",
  "sourcePath": "/home/thislexic/me/class2/thesis/thesis-ethereum/truffle/contracts/CardManager.sol",
  "compiler": {
    "name": "solc",
    "version": "0.8.7+commit.e28d00a7.Emscripten.clang"
  },
  "schemaVersion": "3.4.3",
  "updatedAt": "2021-10-26T06:55:01.470Z",
  "networkType": "ethereum",
  "devdoc": {
    "kind": "dev",
    "methods": {},
    "version": 1
  },
  "userdoc": {
    "kind": "user",
    "methods": {},
    "version": 1
  }
}