{
  "contractName": "Card",
  "abi": [
    {
      "inputs": [
        {
          "internalType": "contract CardManager",
          "name": "_parentContract",
          "type": "address"
        },
        {
          "internalType": "uint256",
          "name": "_idNumber",
          "type": "uint256"
        },
        {
          "internalType": "string",
          "name": "_ipfsHash",
          "type": "string"
        }
      ],
      "stateMutability": "nonpayable",
      "type": "constructor"
    },
    {
      "inputs": [],
      "name": "idNumber",
      "outputs": [
        {
          "internalType": "uint256",
          "name": "",
          "type": "uint256"
        }
      ],
      "stateMutability": "view",
      "type": "function"
    },
    {
      "inputs": [],
      "name": "ipfsHash",
      "outputs": [
        {
          "internalType": "string",
          "name": "",
          "type": "string"
        }
      ],
      "stateMutability": "view",
      "type": "function"
    },
    {
      "inputs": [
        {
          "internalType": "string",
          "name": "_ipfsHash",
          "type": "string"
        }
      ],
      "name": "setHash",
      "outputs": [],
      "stateMutability": "nonpayable",
      "type": "function"
    },
    {
      "inputs": [],
      "name": "getHash",
      "outputs": [
        {
          "internalType": "string",
          "name": "",
          "type": "string"
        }
      ],
      "stateMutability": "view",
      "type": "function"
    }
  ],
  "bytecode": "0x60806040523480156200001157600080fd5b5060405162000a5438038062000a548339818101604052810190620000379190620001fd565b82600260006101000a81548173ffffffffffffffffffffffffffffffffffffffff021916908373ffffffffffffffffffffffffffffffffffffffff16021790555081600081905550806001908051906020019062000097929190620000a1565b5050505062000482565b828054620000af906200035f565b90600052602060002090601f016020900481019282620000d357600085556200011f565b82601f10620000ee57805160ff19168380011785556200011f565b828001600101855582156200011f579182015b828111156200011e57825182559160200191906001019062000101565b5b5090506200012e919062000132565b5090565b5b808211156200014d57600081600090555060010162000133565b5090565b6000620001686200016284620002a1565b62000278565b9050828152602081018484840111156200018757620001866200042e565b5b6200019484828562000329565b509392505050565b600081519050620001ad816200044e565b92915050565b600082601f830112620001cb57620001ca62000429565b5b8151620001dd84826020860162000151565b91505092915050565b600081519050620001f78162000468565b92915050565b60008060006060848603121562000219576200021862000438565b5b600062000229868287016200019c565b93505060206200023c86828701620001e6565b925050604084015167ffffffffffffffff81111562000260576200025f62000433565b5b6200026e86828701620001b3565b9150509250925092565b60006200028462000297565b905062000292828262000395565b919050565b6000604051905090565b600067ffffffffffffffff821115620002bf57620002be620003fa565b5b620002ca826200043d565b9050602081019050919050565b6000620002e482620002ff565b9050919050565b6000620002f882620002d7565b9050919050565b600073ffffffffffffffffffffffffffffffffffffffff82169050919050565b6000819050919050565b60005b83811015620003495780820151818401526020810190506200032c565b8381111562000359576000848401525b50505050565b600060028204905060018216806200037857607f821691505b602082108114156200038f576200038e620003cb565b5b50919050565b620003a0826200043d565b810181811067ffffffffffffffff82111715620003c257620003c1620003fa565b5b80604052505050565b7f4e487b7100000000000000000000000000000000000000000000000000000000600052602260045260246000fd5b7f4e487b7100000000000000000000000000000000000000000000000000000000600052604160045260246000fd5b600080fd5b600080fd5b600080fd5b600080fd5b6000601f19601f8301169050919050565b6200045981620002eb565b81146200046557600080fd5b50565b62000473816200031f565b81146200047f57600080fd5b50565b6105c280620004926000396000f3fe608060405234801561001057600080fd5b506004361061004c5760003560e01c80631ed83fd4146100515780633f83ea3b1461006d578063c623674f1461008b578063d13319c4146100a9575b600080fd5b61006b6004803603810190610066919061031a565b6100c7565b005b6100756100e1565b60405161008291906103cd565b60405180910390f35b6100936100e7565b6040516100a091906103ab565b60405180910390f35b6100b1610175565b6040516100be91906103ab565b60405180910390f35b80600190805190602001906100dd929190610207565b5050565b60005481565b600180546100f4906104a6565b80601f0160208091040260200160405190810160405280929190818152602001828054610120906104a6565b801561016d5780601f106101425761010080835404028352916020019161016d565b820191906000526020600020905b81548152906001019060200180831161015057829003601f168201915b505050505081565b606060018054610184906104a6565b80601f01602080910402602001604051908101604052809291908181526020018280546101b0906104a6565b80156101fd5780601f106101d2576101008083540402835291602001916101fd565b820191906000526020600020905b8154815290600101906020018083116101e057829003601f168201915b5050505050905090565b828054610213906104a6565b90600052602060002090601f016020900481019282610235576000855561027c565b82601f1061024e57805160ff191683800117855561027c565b8280016001018555821561027c579182015b8281111561027b578251825591602001919060010190610260565b5b509050610289919061028d565b5090565b5b808211156102a657600081600090555060010161028e565b5090565b60006102bd6102b88461040d565b6103e8565b9050828152602081018484840111156102d9576102d861056c565b5b6102e4848285610464565b509392505050565b600082601f83011261030157610300610567565b5b81356103118482602086016102aa565b91505092915050565b6000602082840312156103305761032f610576565b5b600082013567ffffffffffffffff81111561034e5761034d610571565b5b61035a848285016102ec565b91505092915050565b600061036e8261043e565b6103788185610449565b9350610388818560208601610473565b6103918161057b565b840191505092915050565b6103a58161045a565b82525050565b600060208201905081810360008301526103c58184610363565b905092915050565b60006020820190506103e2600083018461039c565b92915050565b60006103f2610403565b90506103fe82826104d8565b919050565b6000604051905090565b600067ffffffffffffffff82111561042857610427610538565b5b6104318261057b565b9050602081019050919050565b600081519050919050565b600082825260208201905092915050565b6000819050919050565b82818337600083830152505050565b60005b83811015610491578082015181840152602081019050610476565b838111156104a0576000848401525b50505050565b600060028204905060018216806104be57607f821691505b602082108114156104d2576104d1610509565b5b50919050565b6104e18261057b565b810181811067ffffffffffffffff82111715610500576104ff610538565b5b80604052505050565b7f4e487b7100000000000000000000000000000000000000000000000000000000600052602260045260246000fd5b7f4e487b7100000000000000000000000000000000000000000000000000000000600052604160045260246000fd5b600080fd5b600080fd5b600080fd5b600080fd5b6000601f19601f830116905091905056fea26469706673582212205996ac8f1ac6261e7ae82f10ed85ee5a37464fff1e22a315d6f310fc82b9f5a564736f6c63430008070033",
  "immutableReferences": {},
  "source": "pragma solidity ^0.8.7;\r\n\r\nimport \"./CardManager.sol\";\r\n\r\ncontract Card {\r\n    uint256 public idNumber;\r\n    string public ipfsHash;\r\n\r\n    CardManager parentContract;\r\n\r\n    constructor(CardManager _parentContract, uint256 _idNumber, string memory _ipfsHash) public {\r\n        parentContract = _parentContract;\r\n        idNumber = _idNumber;\r\n        ipfsHash = _ipfsHash;\r\n    }\r\n\r\n    function setHash(string memory _ipfsHash) public {\r\n        ipfsHash = _ipfsHash;\r\n    }\r\n\r\n    function getHash() public view returns (string memory) {\r\n        return ipfsHash;\r\n    }\r\n    \r\n}\r\n\r\n",
  "sourcePath": "C:\\Users\\kcabu\\Documents\\New folder (2)\\thesis-ethereum\\truffle\\contracts\\Card.sol",
  "compiler": {
    "name": "solc",
    "version": "0.8.7+commit.e28d00a7.Emscripten.clang"
  },
  "schemaVersion": "3.4.3",
  "updatedAt": "2022-01-14T04:19:28.334Z",
  "devdoc": {
    "kind": "dev",
    "methods": {},
    "version": 1
  },
  "userdoc": {
    "kind": "user",
    "methods": {},
    "version": 1
  }
}