{
  "contractName": "Card",
  "abi": [
    {
      "inputs": [
        {
          "internalType": "contract CardManager",
          "name": "_parentContract",
          "type": "address"
        },
        {
          "internalType": "contract Branch",
          "name": "_branch",
          "type": "address"
        },
        {
          "internalType": "uint256",
          "name": "_idNumber",
          "type": "uint256"
        },
        {
          "internalType": "string",
          "name": "_name",
          "type": "string"
        }
      ],
      "stateMutability": "nonpayable",
      "type": "constructor"
    },
    {
      "inputs": [],
      "name": "branch",
      "outputs": [
        {
          "internalType": "contract Branch",
          "name": "",
          "type": "address"
        }
      ],
      "stateMutability": "view",
      "type": "function"
    },
    {
      "inputs": [],
      "name": "idNumber",
      "outputs": [
        {
          "internalType": "uint256",
          "name": "",
          "type": "uint256"
        }
      ],
      "stateMutability": "view",
      "type": "function"
    },
    {
      "inputs": [],
      "name": "isValid",
      "outputs": [
        {
          "internalType": "bool",
          "name": "",
          "type": "bool"
        }
      ],
      "stateMutability": "view",
      "type": "function"
    },
    {
      "inputs": [
        {
          "internalType": "uint256",
          "name": "",
          "type": "uint256"
        }
      ],
      "name": "issuedOn",
      "outputs": [
        {
          "internalType": "uint256",
          "name": "",
          "type": "uint256"
        }
      ],
      "stateMutability": "view",
      "type": "function"
    },
    {
      "inputs": [],
      "name": "issuedOnCount",
      "outputs": [
        {
          "internalType": "uint256",
          "name": "",
          "type": "uint256"
        }
      ],
      "stateMutability": "view",
      "type": "function"
    },
    {
      "inputs": [],
      "name": "name",
      "outputs": [
        {
          "internalType": "string",
          "name": "",
          "type": "string"
        }
      ],
      "stateMutability": "view",
      "type": "function"
    },
    {
      "inputs": [
        {
          "internalType": "string",
          "name": "_ipfsHash",
          "type": "string"
        }
      ],
      "name": "setHash",
      "outputs": [],
      "stateMutability": "nonpayable",
      "type": "function"
    },
    {
      "inputs": [],
      "name": "getHash",
      "outputs": [
        {
          "internalType": "string",
          "name": "",
          "type": "string"
        }
      ],
      "stateMutability": "view",
      "type": "function"
    }
  ],
  "bytecode": "0x60806040523480156200001157600080fd5b5060405162000d5938038062000d59833981810160405281019062000037919062000292565b83600660006101000a81548173ffffffffffffffffffffffffffffffffffffffff021916908373ffffffffffffffffffffffffffffffffffffffff1602179055508060009080519060200190620000909291906200011f565b50816001819055506001600260006101000a81548160ff02191690831515021790555082600260016101000a81548173ffffffffffffffffffffffffffffffffffffffff021916908373ffffffffffffffffffffffffffffffffffffffff160217905550600160038190555042600460006001815260200190815260200160002081905550505050506200055b565b8280546200012d906200041e565b90600052602060002090601f0160209004810192826200015157600085556200019d565b82601f106200016c57805160ff19168380011785556200019d565b828001600101855582156200019d579182015b828111156200019c5782518255916020019190600101906200017f565b5b509050620001ac9190620001b0565b5090565b5b80821115620001cb576000816000905550600101620001b1565b5090565b6000620001e6620001e0846200034c565b62000323565b905082815260208101848484011115620002055762000204620004ed565b5b62000212848285620003e8565b509392505050565b6000815190506200022b816200050d565b92915050565b600081519050620002428162000527565b92915050565b600082601f83011262000260576200025f620004e8565b5b815162000272848260208601620001cf565b91505092915050565b6000815190506200028c8162000541565b92915050565b60008060008060808587031215620002af57620002ae620004f7565b5b6000620002bf8782880162000231565b9450506020620002d2878288016200021a565b9350506040620002e5878288016200027b565b925050606085015167ffffffffffffffff811115620003095762000308620004f2565b5b620003178782880162000248565b91505092959194509250565b60006200032f62000342565b90506200033d828262000454565b919050565b6000604051905090565b600067ffffffffffffffff8211156200036a5762000369620004b9565b5b6200037582620004fc565b9050602081019050919050565b60006200038f82620003be565b9050919050565b6000620003a38262000382565b9050919050565b6000620003b78262000382565b9050919050565b600073ffffffffffffffffffffffffffffffffffffffff82169050919050565b6000819050919050565b60005b8381101562000408578082015181840152602081019050620003eb565b8381111562000418576000848401525b50505050565b600060028204905060018216806200043757607f821691505b602082108114156200044e576200044d6200048a565b5b50919050565b6200045f82620004fc565b810181811067ffffffffffffffff82111715620004815762000480620004b9565b5b80604052505050565b7f4e487b7100000000000000000000000000000000000000000000000000000000600052602260045260246000fd5b7f4e487b7100000000000000000000000000000000000000000000000000000000600052604160045260246000fd5b600080fd5b600080fd5b600080fd5b600080fd5b6000601f19601f8301169050919050565b620005188162000396565b81146200052457600080fd5b50565b6200053281620003aa565b81146200053e57600080fd5b50565b6200054c81620003de565b81146200055857600080fd5b50565b6107ee806200056b6000396000f3fe608060405234801561001057600080fd5b50600436106100885760003560e01c80634c2e7fe91161005b5780634c2e7fe914610103578063bb5d40eb14610121578063d13319c41461013f578063eb47b01d1461015d57610088565b806306fdde031461008d5780631ed83fd4146100ab5780633f83ea3b146100c75780634b72d0d4146100e5575b600080fd5b61009561018d565b6040516100a2919061055e565b60405180910390f35b6100c560048036038101906100c0919061044c565b61021b565b005b6100cf610235565b6040516100dc9190610580565b60405180910390f35b6100ed61023b565b6040516100fa9190610543565b60405180910390f35b61010b610261565b6040516101189190610580565b60405180910390f35b610129610267565b6040516101369190610528565b60405180910390f35b61014761027a565b604051610154919061055e565b60405180910390f35b61017760048036038101906101729190610495565b61030c565b6040516101849190610580565b60405180910390f35b6000805461019a906106bb565b80601f01602080910402602001604051908101604052809291908181526020018280546101c6906106bb565b80156102135780601f106101e857610100808354040283529160200191610213565b820191906000526020600020905b8154815290600101906020018083116101f657829003601f168201915b505050505081565b8060059080519060200190610231929190610324565b5050565b60015481565b600260019054906101000a900473ffffffffffffffffffffffffffffffffffffffff1681565b60035481565b600260009054906101000a900460ff1681565b606060058054610289906106bb565b80601f01602080910402602001604051908101604052809291908181526020018280546102b5906106bb565b80156103025780601f106102d757610100808354040283529160200191610302565b820191906000526020600020905b8154815290600101906020018083116102e557829003601f168201915b5050505050905090565b60046020528060005260406000206000915090505481565b828054610330906106bb565b90600052602060002090601f0160209004810192826103525760008555610399565b82601f1061036b57805160ff1916838001178555610399565b82800160010185558215610399579182015b8281111561039857825182559160200191906001019061037d565b5b5090506103a691906103aa565b5090565b5b808211156103c35760008160009055506001016103ab565b5090565b60006103da6103d5846105c0565b61059b565b9050828152602081018484840111156103f6576103f5610781565b5b610401848285610679565b509392505050565b600082601f83011261041e5761041d61077c565b5b813561042e8482602086016103c7565b91505092915050565b600081359050610446816107a1565b92915050565b6000602082840312156104625761046161078b565b5b600082013567ffffffffffffffff8111156104805761047f610786565b5b61048c84828501610409565b91505092915050565b6000602082840312156104ab576104aa61078b565b5b60006104b984828501610437565b91505092915050565b6104cb8161060d565b82525050565b6104da81610643565b82525050565b60006104eb826105f1565b6104f581856105fc565b9350610505818560208601610688565b61050e81610790565b840191505092915050565b61052281610639565b82525050565b600060208201905061053d60008301846104c2565b92915050565b600060208201905061055860008301846104d1565b92915050565b6000602082019050818103600083015261057881846104e0565b905092915050565b60006020820190506105956000830184610519565b92915050565b60006105a56105b6565b90506105b182826106ed565b919050565b6000604051905090565b600067ffffffffffffffff8211156105db576105da61074d565b5b6105e482610790565b9050602081019050919050565b600081519050919050565b600082825260208201905092915050565b60008115159050919050565b600073ffffffffffffffffffffffffffffffffffffffff82169050919050565b6000819050919050565b600061064e82610655565b9050919050565b600061066082610667565b9050919050565b600061067282610619565b9050919050565b82818337600083830152505050565b60005b838110156106a657808201518184015260208101905061068b565b838111156106b5576000848401525b50505050565b600060028204905060018216806106d357607f821691505b602082108114156106e7576106e661071e565b5b50919050565b6106f682610790565b810181811067ffffffffffffffff821117156107155761071461074d565b5b80604052505050565b7f4e487b7100000000000000000000000000000000000000000000000000000000600052602260045260246000fd5b7f4e487b7100000000000000000000000000000000000000000000000000000000600052604160045260246000fd5b600080fd5b600080fd5b600080fd5b600080fd5b6000601f19601f8301169050919050565b6107aa81610639565b81146107b557600080fd5b5056fea26469706673582212201b118060f5c88ce2af2f1ed28950753aad5b2c9030a9cd76c40b25f92c482a0864736f6c63430008070033",
  "immutableReferences": {},
  "source": "pragma solidity ^0.8.7;\r\n\r\nimport \"./Branch.sol\";\r\nimport \"./CardManager.sol\";\r\n\r\ncontract Card {\r\n    string public name;\r\n    uint256 public idNumber;\r\n    bool public isValid;\r\n    Branch public branch;\r\n    uint256 public issuedOnCount;\r\n    mapping(uint256 => uint256) public issuedOn;\r\n    string ipfsHash;\r\n\r\n    CardManager parentContract;\r\n\r\n    constructor(CardManager _parentContract, Branch _branch, uint256 _idNumber, string memory _name) public {\r\n        parentContract = _parentContract;\r\n        name = _name;\r\n        idNumber = _idNumber;\r\n        isValid = true;\r\n        branch = _branch;\r\n        issuedOnCount = 1;\r\n        issuedOn[1] = block.timestamp;\r\n    }\r\n\r\n    function setHash(string memory _ipfsHash) public {\r\n        ipfsHash = _ipfsHash;\r\n    }\r\n\r\n    function getHash() public view returns (string memory) {\r\n        return ipfsHash;\r\n    }\r\n}\r\n\r\n",
  "sourcePath": "F:\\Dev\\projects\\thesis-ethereum\\truffle\\contracts\\Card.sol",
  "compiler": {
    "name": "solc",
    "version": "0.8.7+commit.e28d00a7.Emscripten.clang"
  },
  "schemaVersion": "3.2.3",
  "updatedAt": "2021-10-26T07:24:11.181Z",
  "devdoc": {
    "kind": "dev",
    "methods": {},
    "version": 1
  },
  "userdoc": {
    "kind": "user",
    "methods": {},
    "version": 1
  }
}