{
  "contractName": "Manager",
  "abi": [
    {
      "inputs": [
        {
          "internalType": "address",
          "name": "root",
          "type": "address"
        }
      ],
      "stateMutability": "nonpayable",
      "type": "constructor"
    },
    {
      "anonymous": false,
      "inputs": [
        {
          "indexed": true,
          "internalType": "address",
          "name": "_address",
          "type": "address"
        },
        {
          "indexed": false,
          "internalType": "uint256",
          "name": "_idNumber",
          "type": "uint256"
        },
        {
          "indexed": false,
          "internalType": "string",
          "name": "_ipfsHash",
          "type": "string"
        },
        {
          "indexed": false,
          "internalType": "uint256",
          "name": "_time",
          "type": "uint256"
        }
      ],
      "name": "CreateCardEvent",
      "type": "event"
    },
    {
      "anonymous": false,
      "inputs": [
        {
          "indexed": true,
          "internalType": "address",
          "name": "_address",
          "type": "address"
        },
        {
          "indexed": false,
          "internalType": "uint256",
          "name": "_idNumber",
          "type": "uint256"
        },
        {
          "indexed": false,
          "internalType": "string",
          "name": "_ipfsHash",
          "type": "string"
        },
        {
          "indexed": false,
          "internalType": "uint256",
          "name": "_time",
          "type": "uint256"
        }
      ],
      "name": "EditCardEvent",
      "type": "event"
    },
    {
      "anonymous": false,
      "inputs": [
        {
          "indexed": true,
          "internalType": "address",
          "name": "_address",
          "type": "address"
        },
        {
          "indexed": false,
          "internalType": "uint256",
          "name": "_idNumber",
          "type": "uint256"
        },
        {
          "indexed": false,
          "internalType": "string",
          "name": "_ipfsHash",
          "type": "string"
        },
        {
          "indexed": false,
          "internalType": "uint256",
          "name": "_time",
          "type": "uint256"
        }
      ],
      "name": "RenewCardEvent",
      "type": "event"
    },
    {
      "anonymous": false,
      "inputs": [
        {
          "indexed": true,
          "internalType": "address",
          "name": "_address",
          "type": "address"
        },
        {
          "indexed": false,
          "internalType": "string",
          "name": "_ipfsHash",
          "type": "string"
        },
        {
          "indexed": false,
          "internalType": "uint256",
          "name": "_time",
          "type": "uint256"
        }
      ],
      "name": "RequestCPDUnitsEvent",
      "type": "event"
    },
    {
      "anonymous": false,
      "inputs": [
        {
          "indexed": true,
          "internalType": "address",
          "name": "_address",
          "type": "address"
        },
        {
          "indexed": false,
          "internalType": "string",
          "name": "_ipfsHash",
          "type": "string"
        },
        {
          "indexed": false,
          "internalType": "uint256",
          "name": "_time",
          "type": "uint256"
        }
      ],
      "name": "RequestCardEvent",
      "type": "event"
    },
    {
      "anonymous": false,
      "inputs": [
        {
          "indexed": true,
          "internalType": "address",
          "name": "_address",
          "type": "address"
        },
        {
          "indexed": false,
          "internalType": "string",
          "name": "_ipfsHash",
          "type": "string"
        },
        {
          "indexed": false,
          "internalType": "uint256",
          "name": "_time",
          "type": "uint256"
        }
      ],
      "name": "RequestRenewalEvent",
      "type": "event"
    },
    {
      "anonymous": false,
      "inputs": [
        {
          "indexed": true,
          "internalType": "bytes32",
          "name": "role",
          "type": "bytes32"
        },
        {
          "indexed": true,
          "internalType": "bytes32",
          "name": "previousAdminRole",
          "type": "bytes32"
        },
        {
          "indexed": true,
          "internalType": "bytes32",
          "name": "newAdminRole",
          "type": "bytes32"
        }
      ],
      "name": "RoleAdminChanged",
      "type": "event"
    },
    {
      "anonymous": false,
      "inputs": [
        {
          "indexed": true,
          "internalType": "bytes32",
          "name": "role",
          "type": "bytes32"
        },
        {
          "indexed": true,
          "internalType": "address",
          "name": "account",
          "type": "address"
        },
        {
          "indexed": true,
          "internalType": "address",
          "name": "sender",
          "type": "address"
        }
      ],
      "name": "RoleGranted",
      "type": "event"
    },
    {
      "anonymous": false,
      "inputs": [
        {
          "indexed": true,
          "internalType": "bytes32",
          "name": "role",
          "type": "bytes32"
        },
        {
          "indexed": true,
          "internalType": "address",
          "name": "account",
          "type": "address"
        },
        {
          "indexed": true,
          "internalType": "address",
          "name": "sender",
          "type": "address"
        }
      ],
      "name": "RoleRevoked",
      "type": "event"
    },
    {
      "inputs": [],
      "name": "DEFAULT_ADMIN_ROLE",
      "outputs": [
        {
          "internalType": "bytes32",
          "name": "",
          "type": "bytes32"
        }
      ],
      "stateMutability": "view",
      "type": "function",
      "constant": true
    },
    {
      "inputs": [],
      "name": "PRC_EMP_ROLE",
      "outputs": [
        {
          "internalType": "bytes32",
          "name": "",
          "type": "bytes32"
        }
      ],
      "stateMutability": "view",
      "type": "function",
      "constant": true
    },
    {
      "inputs": [],
      "name": "PRC_PROF_ROLE",
      "outputs": [
        {
          "internalType": "bytes32",
          "name": "",
          "type": "bytes32"
        }
      ],
      "stateMutability": "view",
      "type": "function",
      "constant": true
    },
    {
      "inputs": [
        {
          "internalType": "address",
          "name": "",
          "type": "address"
        }
      ],
      "name": "cards",
      "outputs": [
        {
          "internalType": "contract Card",
          "name": "card",
          "type": "address"
        }
      ],
      "stateMutability": "view",
      "type": "function",
      "constant": true
    },
    {
      "inputs": [
        {
          "internalType": "bytes32",
          "name": "role",
          "type": "bytes32"
        }
      ],
      "name": "getRoleAdmin",
      "outputs": [
        {
          "internalType": "bytes32",
          "name": "",
          "type": "bytes32"
        }
      ],
      "stateMutability": "view",
      "type": "function",
      "constant": true
    },
    {
      "inputs": [
        {
          "internalType": "bytes32",
          "name": "role",
          "type": "bytes32"
        },
        {
          "internalType": "address",
          "name": "account",
          "type": "address"
        }
      ],
      "name": "grantRole",
      "outputs": [],
      "stateMutability": "nonpayable",
      "type": "function"
    },
    {
      "inputs": [
        {
          "internalType": "bytes32",
          "name": "role",
          "type": "bytes32"
        },
        {
          "internalType": "address",
          "name": "account",
          "type": "address"
        }
      ],
      "name": "hasRole",
      "outputs": [
        {
          "internalType": "bool",
          "name": "",
          "type": "bool"
        }
      ],
      "stateMutability": "view",
      "type": "function",
      "constant": true
    },
    {
      "inputs": [
        {
          "internalType": "bytes32",
          "name": "role",
          "type": "bytes32"
        },
        {
          "internalType": "address",
          "name": "account",
          "type": "address"
        }
      ],
      "name": "renounceRole",
      "outputs": [],
      "stateMutability": "nonpayable",
      "type": "function"
    },
    {
      "inputs": [
        {
          "internalType": "address",
          "name": "",
          "type": "address"
        }
      ],
      "name": "requests",
      "outputs": [
        {
          "internalType": "contract Request",
          "name": "request",
          "type": "address"
        }
      ],
      "stateMutability": "view",
      "type": "function",
      "constant": true
    },
    {
      "inputs": [
        {
          "internalType": "bytes32",
          "name": "role",
          "type": "bytes32"
        },
        {
          "internalType": "address",
          "name": "account",
          "type": "address"
        }
      ],
      "name": "revokeRole",
      "outputs": [],
      "stateMutability": "nonpayable",
      "type": "function"
    },
    {
      "inputs": [
        {
          "internalType": "bytes4",
          "name": "interfaceId",
          "type": "bytes4"
        }
      ],
      "name": "supportsInterface",
      "outputs": [
        {
          "internalType": "bool",
          "name": "",
          "type": "bool"
        }
      ],
      "stateMutability": "view",
      "type": "function",
      "constant": true
    },
    {
      "inputs": [
        {
          "internalType": "address",
          "name": "_address",
          "type": "address"
        },
        {
          "internalType": "uint256",
          "name": "_idNumber",
          "type": "uint256"
        },
        {
          "internalType": "string",
          "name": "_ipfsHash",
          "type": "string"
        }
      ],
      "name": "createCard",
      "outputs": [],
      "stateMutability": "nonpayable",
      "type": "function"
    },
    {
      "inputs": [
        {
          "internalType": "address",
          "name": "_address",
          "type": "address"
        },
        {
          "internalType": "uint256",
          "name": "_idNumber",
          "type": "uint256"
        },
        {
          "internalType": "string",
          "name": "_ipfsHash",
          "type": "string"
        }
      ],
      "name": "editCard",
      "outputs": [],
      "stateMutability": "nonpayable",
      "type": "function"
    },
    {
      "inputs": [
        {
          "internalType": "address",
          "name": "_address",
          "type": "address"
        },
        {
          "internalType": "uint256",
          "name": "_idNumber",
          "type": "uint256"
        },
        {
          "internalType": "string",
          "name": "_ipfsHash",
          "type": "string"
        }
      ],
      "name": "renewCard",
      "outputs": [],
      "stateMutability": "nonpayable",
      "type": "function"
    },
    {
      "inputs": [
        {
          "internalType": "address",
          "name": "_address",
          "type": "address"
        }
      ],
      "name": "viewCard",
      "outputs": [
        {
          "internalType": "string",
          "name": "ipfsHash",
          "type": "string"
        }
      ],
      "stateMutability": "view",
      "type": "function",
      "constant": true
    },
    {
      "inputs": [
        {
          "internalType": "address",
          "name": "_address",
          "type": "address"
        },
        {
          "internalType": "string",
          "name": "_ipfsHash",
          "type": "string"
        }
      ],
      "name": "requestCard",
      "outputs": [],
      "stateMutability": "nonpayable",
      "type": "function"
    },
    {
      "inputs": [
        {
          "internalType": "address",
          "name": "_address",
          "type": "address"
        },
        {
          "internalType": "string",
          "name": "_ipfsHash",
          "type": "string"
        }
      ],
      "name": "requestCPDUnits",
      "outputs": [],
      "stateMutability": "nonpayable",
      "type": "function"
    },
    {
      "inputs": [
        {
          "internalType": "address",
          "name": "_address",
          "type": "address"
        },
        {
          "internalType": "string",
          "name": "_ipfsHash",
          "type": "string"
        }
      ],
      "name": "requestRenewal",
      "outputs": [],
      "stateMutability": "nonpayable",
      "type": "function"
    },
    {
      "inputs": [
        {
          "internalType": "address",
          "name": "_address",
          "type": "address"
        }
      ],
      "name": "viewRequest",
      "outputs": [
        {
          "internalType": "string",
          "name": "ipfsHash",
          "type": "string"
        }
      ],
      "stateMutability": "view",
      "type": "function",
      "constant": true
    },
    {
      "inputs": [
        {
          "internalType": "address",
          "name": "account",
          "type": "address"
        }
      ],
      "name": "addPRCEmployee",
      "outputs": [],
      "stateMutability": "nonpayable",
      "type": "function"
    },
    {
      "inputs": [
        {
          "internalType": "address",
          "name": "account",
          "type": "address"
        }
      ],
      "name": "removePRCEmployee",
      "outputs": [],
      "stateMutability": "nonpayable",
      "type": "function"
    },
    {
      "inputs": [
        {
          "internalType": "address",
          "name": "account",
          "type": "address"
        }
      ],
      "name": "addPRCProfessional",
      "outputs": [],
      "stateMutability": "nonpayable",
      "type": "function"
    },
    {
      "inputs": [
        {
          "internalType": "address",
          "name": "account",
          "type": "address"
        }
      ],
      "name": "removePRCProfessional",
      "outputs": [],
      "stateMutability": "nonpayable",
      "type": "function"
    }
  ],
  "bytecode": "0x60806040523480156200001157600080fd5b5060405162004043380380620040438339818101604052810190620000379190620001e3565b6200004c6000801b826200005360201b60201c565b5062000268565b6200006582826200006960201b60201c565b5050565b6200007b82826200015a60201b60201c565b6200015657600160008084815260200190815260200160002060000160008373ffffffffffffffffffffffffffffffffffffffff1673ffffffffffffffffffffffffffffffffffffffff16815260200190815260200160002060006101000a81548160ff021916908315150217905550620000fb620001c460201b60201c565b73ffffffffffffffffffffffffffffffffffffffff168173ffffffffffffffffffffffffffffffffffffffff16837f2f8788117e7eff1d82e926ec794901d17c78024a50270940304540a733656f0d60405160405180910390a45b5050565b600080600084815260200190815260200160002060000160008373ffffffffffffffffffffffffffffffffffffffff1673ffffffffffffffffffffffffffffffffffffffff16815260200190815260200160002060009054906101000a900460ff16905092915050565b600033905090565b600081519050620001dd816200024e565b92915050565b600060208284031215620001fc57620001fb62000249565b5b60006200020c84828501620001cc565b91505092915050565b6000620002228262000229565b9050919050565b600073ffffffffffffffffffffffffffffffffffffffff82169050919050565b600080fd5b620002598162000215565b81146200026557600080fd5b50565b613dcb80620002786000396000f3fe60806040523480156200001157600080fd5b50600436106200016c5760003560e01c806374adad1d11620000d5578063e1dc0e541162000087578063e1dc0e541462000417578063e5fb59291462000439578063f00b1ac31462000459578063f2ced4241462000479578063f96f16df1462000499578063fff5739114620004cf576200016c565b806374adad1d146200032957806388863235146200035f57806391d14854146200037f5780639bd0d76014620003b5578063a217fddf14620003d5578063d547741f14620003f7576200016c565b8063367f544f116200012f578063367f544f146200023d5780633ce2611b146200025d5780633d701579146200027d5780634eb47b3114620002b35780635b91705414620002d357806370908f2114620002f3576200016c565b806301454aa7146200017157806301ffc9a71462000191578063248a9ca314620001c75780632f2ff15d14620001fd57806336568abe146200021d575b600080fd5b6200018f600480360381019062000189919062001bbf565b620004f1565b005b620001af6004803603810190620001a9919062001cb3565b62000677565b604051620001be919062001f78565b60405180910390f35b620001e56004803603810190620001df919062001c3a565b620006f4565b604051620001f4919062001f95565b60405180910390f35b6200021b600480360381019062000215919062001c6c565b62000713565b005b6200023b600480360381019062000235919062001c6c565b62000744565b005b6200025b600480360381019062000255919062001b59565b620007ce565b005b6200027b600480360381019062000275919062001bbf565b6200094f565b005b6200029b600480360381019062000295919062001b27565b62000ad5565b604051620002aa919062002084565b60405180910390f35b620002d16004803603810190620002cb919062001b27565b62000bc7565b005b620002f16004803603810190620002eb919062001b59565b62000c47565b005b6200031160048036038101906200030b919062001b27565b62000dc8565b60405162000320919062001fb2565b60405180910390f35b62000347600480360381019062000341919062001b27565b62000e06565b60405162000356919062002067565b60405180910390f35b6200037d600480360381019062000377919062001b27565b62000e44565b005b6200039d600480360381019062000397919062001c6c565b62000ee1565b604051620003ac919062001f78565b60405180910390f35b620003d36004803603810190620003cd919062001b59565b62000f4b565b005b620003df6200105e565b604051620003ee919062001f95565b60405180910390f35b6200041560048036038101906200040f919062001c6c565b62001065565b005b6200042162001096565b60405162000430919062001f95565b60405180910390f35b62000457600480360381019062000451919062001b27565b620010ba565b005b62000477600480360381019062000471919062001b27565b62001157565b005b62000497600480360381019062000491919062001bbf565b620011d7565b005b620004b76004803603810190620004b1919062001b27565b6200135d565b604051620004c6919062002084565b60405180910390f35b620004d96200144f565b604051620004e8919062001f95565b60405180910390f35b6200051d7fe4540c8f5874f56328e77f0c52e4192f853643b69770d59f9d05f7613e7df1a33362000ee1565b6200055f576040517f08c379a0000000000000000000000000000000000000000000000000000000008152600401620005569062002142565b60405180910390fd5b308383836040516200057190620019b3565b62000580949392919062002013565b604051809103906000f0801580156200059d573d6000803e3d6000fd5b50600160008573ffffffffffffffffffffffffffffffffffffffff1673ffffffffffffffffffffffffffffffffffffffff16815260200190815260200160002060000160006101000a81548173ffffffffffffffffffffffffffffffffffffffff021916908373ffffffffffffffffffffffffffffffffffffffff1602179055508273ffffffffffffffffffffffffffffffffffffffff167fe01dc327013bdeb4976a62ba4e6a16dcc91b6ccac54ddefba7c518905b2ac6838383426040516200066a9392919062002186565b60405180910390a2505050565b60007f7965db0b000000000000000000000000000000000000000000000000000000007bffffffffffffffffffffffffffffffffffffffffffffffffffffffff1916827bffffffffffffffffffffffffffffffffffffffffffffffffffffffff19161480620006ed5750620006ec8262001473565b5b9050919050565b6000806000838152602001908152602001600020600101549050919050565b6200071e82620006f4565b62000733816200072d620014dd565b620014e5565b6200073f83836200158d565b505050565b6200074e620014dd565b73ffffffffffffffffffffffffffffffffffffffff168173ffffffffffffffffffffffffffffffffffffffff1614620007be576040517f08c379a0000000000000000000000000000000000000000000000000000000008152600401620007b59062002164565b60405180910390fd5b620007ca828262001672565b5050565b620007fa7f6398aca6da75aa4763d6e3077fc1f79e14a058153d2970fc7b3d060e7dab56f23362000ee1565b6200083c576040517f08c379a0000000000000000000000000000000000000000000000000000000008152600401620008339062002120565b60405180910390fd5b3082826040516200084d90620019c1565b6200085b9392919062001fcf565b604051809103906000f08015801562000878573d6000803e3d6000fd5b50600260008473ffffffffffffffffffffffffffffffffffffffff1673ffffffffffffffffffffffffffffffffffffffff16815260200190815260200160002060000160006101000a81548173ffffffffffffffffffffffffffffffffffffffff021916908373ffffffffffffffffffffffffffffffffffffffff1602179055508173ffffffffffffffffffffffffffffffffffffffff167f8fa8e381b6116656ace2e6d07bad0109cf7bd7400ed40d1a9bce122050be1119824260405162000943929190620020a8565b60405180910390a25050565b6200097b7fe4540c8f5874f56328e77f0c52e4192f853643b69770d59f9d05f7613e7df1a33362000ee1565b620009bd576040517f08c379a0000000000000000000000000000000000000000000000000000000008152600401620009b49062002142565b60405180910390fd5b30838383604051620009cf90620019b3565b620009de949392919062002013565b604051809103906000f080158015620009fb573d6000803e3d6000fd5b50600160008573ffffffffffffffffffffffffffffffffffffffff1673ffffffffffffffffffffffffffffffffffffffff16815260200190815260200160002060000160006101000a81548173ffffffffffffffffffffffffffffffffffffffff021916908373ffffffffffffffffffffffffffffffffffffffff1602179055508273ffffffffffffffffffffffffffffffffffffffff167fa5fb1c9f3bbbdff6ecf4b8527aac7ba9b6a4be6e7d58902546d8b8895ec7dc6783834260405162000ac89392919062002186565b60405180910390a2505050565b6060600260008373ffffffffffffffffffffffffffffffffffffffff1673ffffffffffffffffffffffffffffffffffffffff16815260200190815260200160002060000160009054906101000a900473ffffffffffffffffffffffffffffffffffffffff1673ffffffffffffffffffffffffffffffffffffffff1663d13319c46040518163ffffffff1660e01b815260040160006040518083038186803b15801562000b8057600080fd5b505afa15801562000b95573d6000803e3d6000fd5b505050506040513d6000823e3d601f19601f8201168201806040525081019062000bc0919062001ce5565b9050919050565b62000bd66000801b3362000ee1565b62000c18576040517f08c379a000000000000000000000000000000000000000000000000000000000815260040162000c0f90620020fe565b60405180910390fd5b62000c447fe4540c8f5874f56328e77f0c52e4192f853643b69770d59f9d05f7613e7df1a38262001065565b50565b62000c737f6398aca6da75aa4763d6e3077fc1f79e14a058153d2970fc7b3d060e7dab56f23362000ee1565b62000cb5576040517f08c379a000000000000000000000000000000000000000000000000000000000815260040162000cac9062002120565b60405180910390fd5b30828260405162000cc690620019c1565b62000cd49392919062001fcf565b604051809103906000f08015801562000cf1573d6000803e3d6000fd5b50600260008473ffffffffffffffffffffffffffffffffffffffff1673ffffffffffffffffffffffffffffffffffffffff16815260200190815260200160002060000160006101000a81548173ffffffffffffffffffffffffffffffffffffffff021916908373ffffffffffffffffffffffffffffffffffffffff1602179055508173ffffffffffffffffffffffffffffffffffffffff167f9d52e4e09286cdaaa6167cf9f227ac6d7751cbdc009e9f32d4da8ab784ffd2f4824260405162000dbc929190620020a8565b60405180910390a25050565b60016020528060005260406000206000915090508060000160009054906101000a900473ffffffffffffffffffffffffffffffffffffffff16905081565b60026020528060005260406000206000915090508060000160009054906101000a900473ffffffffffffffffffffffffffffffffffffffff16905081565b62000e707fe4540c8f5874f56328e77f0c52e4192f853643b69770d59f9d05f7613e7df1a33362000ee1565b62000eb2576040517f08c379a000000000000000000000000000000000000000000000000000000000815260040162000ea99062002142565b60405180910390fd5b62000ede7f6398aca6da75aa4763d6e3077fc1f79e14a058153d2970fc7b3d060e7dab56f28262000713565b50565b600080600084815260200190815260200160002060000160008373ffffffffffffffffffffffffffffffffffffffff1673ffffffffffffffffffffffffffffffffffffffff16815260200190815260200160002060009054906101000a900460ff16905092915050565b30828260405162000f5c90620019c1565b62000f6a9392919062001fcf565b604051809103906000f08015801562000f87573d6000803e3d6000fd5b50600260008473ffffffffffffffffffffffffffffffffffffffff1673ffffffffffffffffffffffffffffffffffffffff16815260200190815260200160002060000160006101000a81548173ffffffffffffffffffffffffffffffffffffffff021916908373ffffffffffffffffffffffffffffffffffffffff1602179055503373ffffffffffffffffffffffffffffffffffffffff167f148e3f0eab6a54f3207ca709f8c9c45906c3eb1a6a80d73c9b60614b05c1f853824260405162001052929190620020a8565b60405180910390a25050565b6000801b81565b6200107082620006f4565b62001085816200107f620014dd565b620014e5565b62001091838362001672565b505050565b7f6398aca6da75aa4763d6e3077fc1f79e14a058153d2970fc7b3d060e7dab56f281565b620010e67fe4540c8f5874f56328e77f0c52e4192f853643b69770d59f9d05f7613e7df1a33362000ee1565b62001128576040517f08c379a00000000000000000000000000000000000000000000000000000000081526004016200111f9062002142565b60405180910390fd5b620011547f6398aca6da75aa4763d6e3077fc1f79e14a058153d2970fc7b3d060e7dab56f28262001065565b50565b620011666000801b3362000ee1565b620011a8576040517f08c379a00000000000000000000000000000000000000000000000000000000081526004016200119f90620020fe565b60405180910390fd5b620011d47fe4540c8f5874f56328e77f0c52e4192f853643b69770d59f9d05f7613e7df1a38262000713565b50565b620012037fe4540c8f5874f56328e77f0c52e4192f853643b69770d59f9d05f7613e7df1a33362000ee1565b62001245576040517f08c379a00000000000000000000000000000000000000000000000000000000081526004016200123c9062002142565b60405180910390fd5b308383836040516200125790620019b3565b62001266949392919062002013565b604051809103906000f08015801562001283573d6000803e3d6000fd5b50600160008573ffffffffffffffffffffffffffffffffffffffff1673ffffffffffffffffffffffffffffffffffffffff16815260200190815260200160002060000160006101000a81548173ffffffffffffffffffffffffffffffffffffffff021916908373ffffffffffffffffffffffffffffffffffffffff1602179055508273ffffffffffffffffffffffffffffffffffffffff167f9865d6f9c05e0ea72f33730672f9afff7b705f1798972d5bd77612305b0ecf9d838342604051620013509392919062002186565b60405180910390a2505050565b6060600160008373ffffffffffffffffffffffffffffffffffffffff1673ffffffffffffffffffffffffffffffffffffffff16815260200190815260200160002060000160009054906101000a900473ffffffffffffffffffffffffffffffffffffffff1673ffffffffffffffffffffffffffffffffffffffff1663d13319c46040518163ffffffff1660e01b815260040160006040518083038186803b1580156200140857600080fd5b505afa1580156200141d573d6000803e3d6000fd5b505050506040513d6000823e3d601f19601f8201168201806040525081019062001448919062001ce5565b9050919050565b7fe4540c8f5874f56328e77f0c52e4192f853643b69770d59f9d05f7613e7df1a381565b60007f01ffc9a7000000000000000000000000000000000000000000000000000000007bffffffffffffffffffffffffffffffffffffffffffffffffffffffff1916827bffffffffffffffffffffffffffffffffffffffffffffffffffffffff1916149050919050565b600033905090565b620014f1828262000ee1565b6200158957620015198173ffffffffffffffffffffffffffffffffffffffff16601462001758565b620015298360001c602062001758565b6040516020016200153c92919062001f36565b6040516020818303038152906040526040517f08c379a000000000000000000000000000000000000000000000000000000000815260040162001580919062002084565b60405180910390fd5b5050565b62001599828262000ee1565b6200166e57600160008084815260200190815260200160002060000160008373ffffffffffffffffffffffffffffffffffffffff1673ffffffffffffffffffffffffffffffffffffffff16815260200190815260200160002060006101000a81548160ff02191690831515021790555062001613620014dd565b73ffffffffffffffffffffffffffffffffffffffff168173ffffffffffffffffffffffffffffffffffffffff16837f2f8788117e7eff1d82e926ec794901d17c78024a50270940304540a733656f0d60405160405180910390a45b5050565b6200167e828262000ee1565b156200175457600080600084815260200190815260200160002060000160008373ffffffffffffffffffffffffffffffffffffffff1673ffffffffffffffffffffffffffffffffffffffff16815260200190815260200160002060006101000a81548160ff021916908315150217905550620016f9620014dd565b73ffffffffffffffffffffffffffffffffffffffff168173ffffffffffffffffffffffffffffffffffffffff16837ff6391f5c32d9c69d2a47ea670b442974b53935d1edc7fd64eb21e047a839171b60405160405180910390a45b5050565b6060600060028360026200176d9190620022ad565b62001779919062002250565b67ffffffffffffffff811115620017955762001794620024fa565b5b6040519080825280601f01601f191660200182016040528015620017c85781602001600182028036833780820191505090505b5090507f300000000000000000000000000000000000000000000000000000000000000081600081518110620018035762001802620024cb565b5b60200101907effffffffffffffffffffffffffffffffffffffffffffffffffffffffffffff1916908160001a9053507f7800000000000000000000000000000000000000000000000000000000000000816001815181106200186a5762001869620024cb565b5b60200101907effffffffffffffffffffffffffffffffffffffffffffffffffffffffffffff1916908160001a90535060006001846002620018ac9190620022ad565b620018b8919062002250565b90505b600181111562001962577f3031323334353637383961626364656600000000000000000000000000000000600f861660108110620018fe57620018fd620024cb565b5b1a60f81b828281518110620019185762001917620024cb565b5b60200101907effffffffffffffffffffffffffffffffffffffffffffffffffffffffffffff1916908160001a905350600485901c9450806200195a9062002437565b9050620018bb565b5060008414620019a9576040517f08c379a0000000000000000000000000000000000000000000000000000000008152600401620019a090620020dc565b60405180910390fd5b8091505092915050565b610b85806200274883390190565b610ac980620032cd83390190565b6000620019e6620019e084620021f3565b620021ca565b90508281526020810184848401111562001a055762001a046200252e565b5b62001a12848285620023f2565b509392505050565b600062001a3162001a2b84620021f3565b620021ca565b90508281526020810184848401111562001a505762001a4f6200252e565b5b62001a5d84828562002401565b509392505050565b60008135905062001a7681620026df565b92915050565b60008135905062001a8d81620026f9565b92915050565b60008135905062001aa48162002713565b92915050565b600082601f83011262001ac25762001ac162002529565b5b813562001ad4848260208601620019cf565b91505092915050565b600082601f83011262001af55762001af462002529565b5b815162001b0784826020860162001a1a565b91505092915050565b60008135905062001b21816200272d565b92915050565b60006020828403121562001b405762001b3f62002538565b5b600062001b508482850162001a65565b91505092915050565b6000806040838503121562001b735762001b7262002538565b5b600062001b838582860162001a65565b925050602083013567ffffffffffffffff81111562001ba75762001ba662002533565b5b62001bb58582860162001aaa565b9150509250929050565b60008060006060848603121562001bdb5762001bda62002538565b5b600062001beb8682870162001a65565b935050602062001bfe8682870162001b10565b925050604084013567ffffffffffffffff81111562001c225762001c2162002533565b5b62001c308682870162001aaa565b9150509250925092565b60006020828403121562001c535762001c5262002538565b5b600062001c638482850162001a7c565b91505092915050565b6000806040838503121562001c865762001c8562002538565b5b600062001c968582860162001a7c565b925050602062001ca98582860162001a65565b9150509250929050565b60006020828403121562001ccc5762001ccb62002538565b5b600062001cdc8482850162001a93565b91505092915050565b60006020828403121562001cfe5762001cfd62002538565b5b600082015167ffffffffffffffff81111562001d1f5762001d1e62002533565b5b62001d2d8482850162001add565b91505092915050565b62001d41816200230e565b82525050565b62001d528162002322565b82525050565b62001d63816200232e565b82525050565b62001d74816200238e565b82525050565b62001d8581620023a2565b82525050565b62001d9681620023b6565b82525050565b600062001da98262002229565b62001db5818562002234565b935062001dc781856020860162002401565b62001dd2816200253d565b840191505092915050565b600062001dea8262002229565b62001df6818562002245565b935062001e0881856020860162002401565b80840191505092915050565b600062001e2360208362002234565b915062001e30826200254e565b602082019050919050565b600062001e4a60158362002234565b915062001e578262002577565b602082019050919050565b600062001e7160178362002245565b915062001e7e82620025a0565b601782019050919050565b600062001e9860368362002234565b915062001ea582620025c9565b604082019050919050565b600062001ebf60328362002234565b915062001ecc8262002618565b604082019050919050565b600062001ee660118362002245565b915062001ef38262002667565b601182019050919050565b600062001f0d602f8362002234565b915062001f1a8262002690565b604082019050919050565b62001f308162002384565b82525050565b600062001f438262001e62565b915062001f51828562001ddd565b915062001f5e8262001ed7565b915062001f6c828462001ddd565b91508190509392505050565b600060208201905062001f8f600083018462001d47565b92915050565b600060208201905062001fac600083018462001d58565b92915050565b600060208201905062001fc9600083018462001d69565b92915050565b600060608201905062001fe6600083018662001d7a565b62001ff5602083018562001d36565b818103604083015262002009818462001d9c565b9050949350505050565b60006080820190506200202a600083018762001d7a565b62002039602083018662001d36565b62002048604083018562001f25565b81810360608301526200205c818462001d9c565b905095945050505050565b60006020820190506200207e600083018462001d8b565b92915050565b60006020820190508181036000830152620020a0818462001d9c565b905092915050565b60006040820190508181036000830152620020c4818562001d9c565b9050620020d5602083018462001f25565b9392505050565b60006020820190508181036000830152620020f78162001e14565b9050919050565b60006020820190508181036000830152620021198162001e3b565b9050919050565b600060208201905081810360008301526200213b8162001e89565b9050919050565b600060208201905081810360008301526200215d8162001eb0565b9050919050565b600060208201905081810360008301526200217f8162001efe565b9050919050565b60006060820190506200219d600083018662001f25565b8181036020830152620021b1818562001d9c565b9050620021c2604083018462001f25565b949350505050565b6000620021d6620021e9565b9050620021e4828262002466565b919050565b6000604051905090565b600067ffffffffffffffff821115620022115762002210620024fa565b5b6200221c826200253d565b9050602081019050919050565b600081519050919050565b600082825260208201905092915050565b600081905092915050565b60006200225d8262002384565b91506200226a8362002384565b9250827fffffffffffffffffffffffffffffffffffffffffffffffffffffffffffffffff03821115620022a257620022a16200249c565b5b828201905092915050565b6000620022ba8262002384565b9150620022c78362002384565b9250817fffffffffffffffffffffffffffffffffffffffffffffffffffffffffffffffff04831182151516156200230357620023026200249c565b5b828202905092915050565b60006200231b8262002364565b9050919050565b60008115159050919050565b6000819050919050565b60007fffffffff0000000000000000000000000000000000000000000000000000000082169050919050565b600073ffffffffffffffffffffffffffffffffffffffff82169050919050565b6000819050919050565b60006200239b82620023ca565b9050919050565b6000620023af82620023ca565b9050919050565b6000620023c382620023ca565b9050919050565b6000620023d782620023de565b9050919050565b6000620023eb8262002364565b9050919050565b82818337600083830152505050565b60005b838110156200242157808201518184015260208101905062002404565b8381111562002431576000848401525b50505050565b6000620024448262002384565b915060008214156200245b576200245a6200249c565b5b600182039050919050565b62002471826200253d565b810181811067ffffffffffffffff82111715620024935762002492620024fa565b5b80604052505050565b7f4e487b7100000000000000000000000000000000000000000000000000000000600052601160045260246000fd5b7f4e487b7100000000000000000000000000000000000000000000000000000000600052603260045260246000fd5b7f4e487b7100000000000000000000000000000000000000000000000000000000600052604160045260246000fd5b600080fd5b600080fd5b600080fd5b600080fd5b6000601f19601f8301169050919050565b7f537472696e67733a20686578206c656e67746820696e73756666696369656e74600082015250565b7f5265737472696374656420746f2061646d696e732e0000000000000000000000600082015250565b7f416363657373436f6e74726f6c3a206163636f756e7420000000000000000000600082015250565b7f596f75206d7573742062652061205052432070726f66657373696f6e616c207460008201527f6f2061636365737320746869732066756e6374696f6e00000000000000000000602082015250565b7f596f75206d75737420626520612050524320656d706c6f79656520746f20616360008201527f6365737320746869732066756e6374696f6e0000000000000000000000000000602082015250565b7f206973206d697373696e6720726f6c6520000000000000000000000000000000600082015250565b7f416363657373436f6e74726f6c3a2063616e206f6e6c792072656e6f756e636560008201527f20726f6c657320666f722073656c660000000000000000000000000000000000602082015250565b620026ea816200230e565b8114620026f657600080fd5b50565b62002704816200232e565b81146200271057600080fd5b50565b6200271e8162002338565b81146200272a57600080fd5b50565b620027388162002384565b81146200274457600080fd5b5056fe60806040523480156200001157600080fd5b5060405162000b8538038062000b85833981810160405281019062000037919062000255565b83600360006101000a81548173ffffffffffffffffffffffffffffffffffffffff021916908373ffffffffffffffffffffffffffffffffffffffff160217905550826000806101000a81548173ffffffffffffffffffffffffffffffffffffffff021916908373ffffffffffffffffffffffffffffffffffffffff160217905550816001819055508060029080519060200190620000d7929190620000e2565b50505050506200050a565b828054620000f090620003cd565b90600052602060002090601f01602090048101928262000114576000855562000160565b82601f106200012f57805160ff191683800117855562000160565b8280016001018555821562000160579182015b828111156200015f57825182559160200191906001019062000142565b5b5090506200016f919062000173565b5090565b5b808211156200018e57600081600090555060010162000174565b5090565b6000620001a9620001a3846200030f565b620002e6565b905082815260208101848484011115620001c857620001c76200049c565b5b620001d584828562000397565b509392505050565b600081519050620001ee81620004bc565b92915050565b6000815190506200020581620004d6565b92915050565b600082601f83011262000223576200022262000497565b5b81516200023584826020860162000192565b91505092915050565b6000815190506200024f81620004f0565b92915050565b60008060008060808587031215620002725762000271620004a6565b5b60006200028287828801620001f4565b94505060206200029587828801620001dd565b9350506040620002a8878288016200023e565b925050606085015167ffffffffffffffff811115620002cc57620002cb620004a1565b5b620002da878288016200020b565b91505092959194509250565b6000620002f262000305565b905062000300828262000403565b919050565b6000604051905090565b600067ffffffffffffffff8211156200032d576200032c62000468565b5b6200033882620004ab565b9050602081019050919050565b600062000352826200036d565b9050919050565b6000620003668262000345565b9050919050565b600073ffffffffffffffffffffffffffffffffffffffff82169050919050565b6000819050919050565b60005b83811015620003b75780820151818401526020810190506200039a565b83811115620003c7576000848401525b50505050565b60006002820490506001821680620003e657607f821691505b60208210811415620003fd57620003fc62000439565b5b50919050565b6200040e82620004ab565b810181811067ffffffffffffffff8211171562000430576200042f62000468565b5b80604052505050565b7f4e487b7100000000000000000000000000000000000000000000000000000000600052602260045260246000fd5b7f4e487b7100000000000000000000000000000000000000000000000000000000600052604160045260246000fd5b600080fd5b600080fd5b600080fd5b600080fd5b6000601f19601f8301169050919050565b620004c78162000345565b8114620004d357600080fd5b50565b620004e18162000359565b8114620004ed57600080fd5b50565b620004fb816200038d565b81146200050757600080fd5b50565b61066b806200051a6000396000f3fe608060405234801561001057600080fd5b50600436106100575760003560e01c80631ed83fd41461005c5780633f83ea3b14610078578063767800de14610096578063c623674f146100b4578063d13319c4146100d2575b600080fd5b61007660048036038101906100719190610367565b6100f0565b005b61008061010a565b60405161008d9190610444565b60405180910390f35b61009e610110565b6040516100ab9190610407565b60405180910390f35b6100bc610134565b6040516100c99190610422565b60405180910390f35b6100da6101c2565b6040516100e79190610422565b60405180910390f35b8060029080519060200190610106929190610254565b5050565b60015481565b60008054906101000a900473ffffffffffffffffffffffffffffffffffffffff1681565b600280546101419061054f565b80601f016020809104026020016040519081016040528092919081815260200182805461016d9061054f565b80156101ba5780601f1061018f576101008083540402835291602001916101ba565b820191906000526020600020905b81548152906001019060200180831161019d57829003601f168201915b505050505081565b6060600280546101d19061054f565b80601f01602080910402602001604051908101604052809291908181526020018280546101fd9061054f565b801561024a5780601f1061021f5761010080835404028352916020019161024a565b820191906000526020600020905b81548152906001019060200180831161022d57829003601f168201915b5050505050905090565b8280546102609061054f565b90600052602060002090601f01602090048101928261028257600085556102c9565b82601f1061029b57805160ff19168380011785556102c9565b828001600101855582156102c9579182015b828111156102c85782518255916020019190600101906102ad565b5b5090506102d691906102da565b5090565b5b808211156102f35760008160009055506001016102db565b5090565b600061030a61030584610484565b61045f565b90508281526020810184848401111561032657610325610615565b5b61033184828561050d565b509392505050565b600082601f83011261034e5761034d610610565b5b813561035e8482602086016102f7565b91505092915050565b60006020828403121561037d5761037c61061f565b5b600082013567ffffffffffffffff81111561039b5761039a61061a565b5b6103a784828501610339565b91505092915050565b6103b9816104d1565b82525050565b60006103ca826104b5565b6103d481856104c0565b93506103e481856020860161051c565b6103ed81610624565b840191505092915050565b61040181610503565b82525050565b600060208201905061041c60008301846103b0565b92915050565b6000602082019050818103600083015261043c81846103bf565b905092915050565b600060208201905061045960008301846103f8565b92915050565b600061046961047a565b90506104758282610581565b919050565b6000604051905090565b600067ffffffffffffffff82111561049f5761049e6105e1565b5b6104a882610624565b9050602081019050919050565b600081519050919050565b600082825260208201905092915050565b60006104dc826104e3565b9050919050565b600073ffffffffffffffffffffffffffffffffffffffff82169050919050565b6000819050919050565b82818337600083830152505050565b60005b8381101561053a57808201518184015260208101905061051f565b83811115610549576000848401525b50505050565b6000600282049050600182168061056757607f821691505b6020821081141561057b5761057a6105b2565b5b50919050565b61058a82610624565b810181811067ffffffffffffffff821117156105a9576105a86105e1565b5b80604052505050565b7f4e487b7100000000000000000000000000000000000000000000000000000000600052602260045260246000fd5b7f4e487b7100000000000000000000000000000000000000000000000000000000600052604160045260246000fd5b600080fd5b600080fd5b600080fd5b600080fd5b6000601f19601f830116905091905056fea264697066735822122007134d55119670a5fe13a81698c802950ee5bd204fd78817252243df16503bd264736f6c6343000807003360806040523480156200001157600080fd5b5060405162000ac938038062000ac9833981810160405281019062000037919062000236565b82600260006101000a81548173ffffffffffffffffffffffffffffffffffffffff021916908373ffffffffffffffffffffffffffffffffffffffff160217905550816000806101000a81548173ffffffffffffffffffffffffffffffffffffffff021916908373ffffffffffffffffffffffffffffffffffffffff1602179055508060019080519060200190620000d0929190620000da565b50505050620004b1565b828054620000e8906200038e565b90600052602060002090601f0160209004810192826200010c576000855562000158565b82601f106200012757805160ff191683800117855562000158565b8280016001018555821562000158579182015b82811115620001575782518255916020019190600101906200013a565b5b5090506200016791906200016b565b5090565b5b80821115620001865760008160009055506001016200016c565b5090565b6000620001a16200019b84620002da565b620002b1565b905082815260208101848484011115620001c057620001bf6200045d565b5b620001cd84828562000358565b509392505050565b600081519050620001e6816200047d565b92915050565b600081519050620001fd8162000497565b92915050565b600082601f8301126200021b576200021a62000458565b5b81516200022d8482602086016200018a565b91505092915050565b60008060006060848603121562000252576200025162000467565b5b60006200026286828701620001ec565b93505060206200027586828701620001d5565b925050604084015167ffffffffffffffff81111562000299576200029862000462565b5b620002a78682870162000203565b9150509250925092565b6000620002bd620002d0565b9050620002cb8282620003c4565b919050565b6000604051905090565b600067ffffffffffffffff821115620002f857620002f762000429565b5b62000303826200046c565b9050602081019050919050565b60006200031d8262000338565b9050919050565b6000620003318262000310565b9050919050565b600073ffffffffffffffffffffffffffffffffffffffff82169050919050565b60005b83811015620003785780820151818401526020810190506200035b565b8381111562000388576000848401525b50505050565b60006002820490506001821680620003a757607f821691505b60208210811415620003be57620003bd620003fa565b5b50919050565b620003cf826200046c565b810181811067ffffffffffffffff82111715620003f157620003f062000429565b5b80604052505050565b7f4e487b7100000000000000000000000000000000000000000000000000000000600052602260045260246000fd5b7f4e487b7100000000000000000000000000000000000000000000000000000000600052604160045260246000fd5b600080fd5b600080fd5b600080fd5b600080fd5b6000601f19601f8301169050919050565b620004888162000310565b81146200049457600080fd5b50565b620004a28162000324565b8114620004ae57600080fd5b50565b61060880620004c16000396000f3fe608060405234801561001057600080fd5b506004361061004c5760003560e01c80631ed83fd414610051578063c623674f1461006d578063d13319c41461008b578063e4128fb3146100a9575b600080fd5b61006b60048036038101906100669190610338565b6100c7565b005b6100756100e1565b60405161008291906103e4565b60405180910390f35b61009361016f565b6040516100a091906103e4565b60405180910390f35b6100b1610201565b6040516100be91906103c9565b60405180910390f35b80600190805190602001906100dd929190610225565b5050565b600180546100ee906104ec565b80601f016020809104026020016040519081016040528092919081815260200182805461011a906104ec565b80156101675780601f1061013c57610100808354040283529160200191610167565b820191906000526020600020905b81548152906001019060200180831161014a57829003601f168201915b505050505081565b60606001805461017e906104ec565b80601f01602080910402602001604051908101604052809291908181526020018280546101aa906104ec565b80156101f75780601f106101cc576101008083540402835291602001916101f7565b820191906000526020600020905b8154815290600101906020018083116101da57829003601f168201915b5050505050905090565b60008054906101000a900473ffffffffffffffffffffffffffffffffffffffff1681565b828054610231906104ec565b90600052602060002090601f016020900481019282610253576000855561029a565b82601f1061026c57805160ff191683800117855561029a565b8280016001018555821561029a579182015b8281111561029957825182559160200191906001019061027e565b5b5090506102a791906102ab565b5090565b5b808211156102c45760008160009055506001016102ac565b5090565b60006102db6102d68461042b565b610406565b9050828152602081018484840111156102f7576102f66105b2565b5b6103028482856104aa565b509392505050565b600082601f83011261031f5761031e6105ad565b5b813561032f8482602086016102c8565b91505092915050565b60006020828403121561034e5761034d6105bc565b5b600082013567ffffffffffffffff81111561036c5761036b6105b7565b5b6103788482850161030a565b91505092915050565b61038a81610478565b82525050565b600061039b8261045c565b6103a58185610467565b93506103b58185602086016104b9565b6103be816105c1565b840191505092915050565b60006020820190506103de6000830184610381565b92915050565b600060208201905081810360008301526103fe8184610390565b905092915050565b6000610410610421565b905061041c828261051e565b919050565b6000604051905090565b600067ffffffffffffffff8211156104465761044561057e565b5b61044f826105c1565b9050602081019050919050565b600081519050919050565b600082825260208201905092915050565b60006104838261048a565b9050919050565b600073ffffffffffffffffffffffffffffffffffffffff82169050919050565b82818337600083830152505050565b60005b838110156104d75780820151818401526020810190506104bc565b838111156104e6576000848401525b50505050565b6000600282049050600182168061050457607f821691505b602082108114156105185761051761054f565b5b50919050565b610527826105c1565b810181811067ffffffffffffffff821117156105465761054561057e565b5b80604052505050565b7f4e487b7100000000000000000000000000000000000000000000000000000000600052602260045260246000fd5b7f4e487b7100000000000000000000000000000000000000000000000000000000600052604160045260246000fd5b600080fd5b600080fd5b600080fd5b600080fd5b6000601f19601f830116905091905056fea264697066735822122043467b0d4eb751a4ffd04ac45d2d2cd1dcb5c27841e4a682f54f9ede4815c7c964736f6c63430008070033a26469706673582212204fb7ad07d948a8f0909c1b9126e03d61f5e91117ff39dd1754be6e307508305664736f6c63430008070033",
  "immutableReferences": {},
  "source": "pragma solidity ^0.8.7;\r\n\r\nimport \"./Card.sol\";\r\nimport \"./Request.sol\";\r\n\r\nimport \"@openzeppelin/contracts/access/AccessControl.sol\";\r\n\r\ncontract Manager is AccessControl {\r\n    bytes32 public constant PRC_EMP_ROLE = keccak256(\"PRC_EMP_ROLE\");\r\n    bytes32 public constant PRC_PROF_ROLE = keccak256(\"PRC_PROF_ROLE\");\r\n\r\n    event CreateCardEvent(address indexed _address, uint256 _idNumber, string _ipfsHash, uint256 _time);\r\n    event EditCardEvent(address indexed _address, uint256 _idNumber, string _ipfsHash, uint256 _time);\r\n    event RenewCardEvent(address indexed _address, uint256 _idNumber, string _ipfsHash, uint256 _time);\r\n\r\n    event RequestCardEvent(address indexed _address, string _ipfsHash, uint256 _time);\r\n    event RequestCPDUnitsEvent(address indexed _address, string _ipfsHash, uint256 _time);\r\n    event RequestRenewalEvent(address indexed _address, string _ipfsHash, uint256 _time);\r\n\r\n    struct P_Card {\r\n        Card card;\r\n    }\r\n\r\n    struct P_Request {\r\n        Request request;\r\n    }\r\n\r\n    mapping(address => P_Card) public cards;\r\n    mapping(address => P_Request) public requests;\r\n\r\n    constructor(address root) public {\r\n        _setupRole(DEFAULT_ADMIN_ROLE, root);\r\n    }\r\n\r\n    // Employee\r\n\r\n    modifier onlyPRCEmployee() {\r\n        require(\r\n            hasRole(PRC_EMP_ROLE, msg.sender),\r\n            \"You must be a PRC employee to access this function\"\r\n        );\r\n        _;\r\n    }\r\n\r\n    function createCard(address _address, uint256 _idNumber, string memory _ipfsHash)\r\n        public\r\n        onlyPRCEmployee\r\n    {\r\n        cards[_address].card = new Card(this, _address, _idNumber, _ipfsHash);\r\n        emit CreateCardEvent(_address, _idNumber, _ipfsHash, block.timestamp);\r\n    }\r\n\r\n    function editCard(address _address, uint256 _idNumber, string memory _ipfsHash)\r\n        public\r\n        onlyPRCEmployee\r\n    {\r\n        cards[_address].card = new Card(this, _address, _idNumber, _ipfsHash);\r\n        emit EditCardEvent(_address, _idNumber, _ipfsHash, block.timestamp);\r\n    }\r\n\r\n    function renewCard(address _address, uint256 _idNumber, string memory _ipfsHash)\r\n        public\r\n        onlyPRCEmployee\r\n    {\r\n        cards[_address].card = new Card(this, _address, _idNumber, _ipfsHash);\r\n        emit RenewCardEvent(_address, _idNumber, _ipfsHash, block.timestamp);\r\n    }\r\n\r\n    function viewCard(address _address)\r\n        public\r\n        view\r\n        returns (string memory ipfsHash)\r\n    {\r\n        return (cards[_address].card.getHash());\r\n    }\r\n\r\n    // Professional\r\n\r\n    modifier onlyPRCProfessional() {\r\n        require(\r\n            hasRole(PRC_PROF_ROLE, msg.sender),\r\n            \"You must be a PRC professional to access this function\"\r\n        );\r\n        _;\r\n    }\r\n\r\n    function requestCard(address _address, string memory _ipfsHash)\r\n        public\r\n    {\r\n        requests[_address].request = new Request(this, _address, _ipfsHash);\r\n        emit RequestCardEvent(msg.sender, _ipfsHash, block.timestamp);\r\n    }\r\n\r\n    function requestCPDUnits(address _address, string memory _ipfsHash)\r\n        public\r\n        onlyPRCProfessional\r\n    {\r\n        requests[_address].request = new Request(this, _address, _ipfsHash);\r\n        emit RequestCPDUnitsEvent(_address, _ipfsHash, block.timestamp);\r\n    }\r\n\r\n    function requestRenewal(address _address, string memory _ipfsHash)\r\n        public\r\n        onlyPRCProfessional\r\n    {\r\n        requests[_address].request = new Request(this, _address, _ipfsHash);\r\n        emit RequestRenewalEvent(_address, _ipfsHash, block.timestamp);\r\n    }\r\n\r\n    function viewRequest(address _address)\r\n        public\r\n        view\r\n        returns (string memory ipfsHash)\r\n    {\r\n        return (requests[_address].request.getHash());\r\n    }\r\n\r\n    // Roles\r\n\r\n    modifier onlyAdmin() {\r\n        require(\r\n            hasRole(DEFAULT_ADMIN_ROLE, msg.sender),\r\n            \"Restricted to admins.\"\r\n        );\r\n        _;\r\n    }\r\n\r\n    function addPRCEmployee(address account) public onlyAdmin {\r\n        grantRole(PRC_EMP_ROLE, account);\r\n    }\r\n\r\n    function removePRCEmployee(address account) public onlyAdmin {\r\n        revokeRole(PRC_EMP_ROLE, account);\r\n    }\r\n\r\n    function addPRCProfessional(address account) public onlyPRCEmployee {\r\n        grantRole(PRC_PROF_ROLE, account);\r\n    }\r\n\r\n    function removePRCProfessional(address account) public onlyPRCEmployee {\r\n        revokeRole(PRC_PROF_ROLE, account);\r\n    }\r\n}\r\n",
  "sourcePath": "C:\\Users\\kcabu\\Documents\\New folder (2)\\thesis-ethereum\\truffle\\contracts\\Manager.sol",
  "compiler": {
    "name": "solc",
    "version": "0.8.7+commit.e28d00a7.Emscripten.clang"
  },
  "schemaVersion": "3.4.3",
  "updatedAt": "2022-02-23T02:19:54.585Z",
  "networkType": "ethereum",
  "devdoc": {
    "kind": "dev",
    "methods": {
      "getRoleAdmin(bytes32)": {
        "details": "Returns the admin role that controls `role`. See {grantRole} and {revokeRole}. To change a role's admin, use {_setRoleAdmin}."
      },
      "grantRole(bytes32,address)": {
        "details": "Grants `role` to `account`. If `account` had not been already granted `role`, emits a {RoleGranted} event. Requirements: - the caller must have ``role``'s admin role."
      },
      "hasRole(bytes32,address)": {
        "details": "Returns `true` if `account` has been granted `role`."
      },
      "renounceRole(bytes32,address)": {
        "details": "Revokes `role` from the calling account. Roles are often managed via {grantRole} and {revokeRole}: this function's purpose is to provide a mechanism for accounts to lose their privileges if they are compromised (such as when a trusted device is misplaced). If the calling account had been revoked `role`, emits a {RoleRevoked} event. Requirements: - the caller must be `account`."
      },
      "revokeRole(bytes32,address)": {
        "details": "Revokes `role` from `account`. If `account` had been granted `role`, emits a {RoleRevoked} event. Requirements: - the caller must have ``role``'s admin role."
      },
      "supportsInterface(bytes4)": {
        "details": "See {IERC165-supportsInterface}."
      }
    },
    "version": 1
  },
  "userdoc": {
    "kind": "user",
    "methods": {},
    "version": 1
  }
}