{
  "contractName": "Manager",
  "abi": [
    {
      "inputs": [
        {
          "internalType": "address",
          "name": "root",
          "type": "address"
        }
      ],
      "stateMutability": "nonpayable",
      "type": "constructor"
    },
    {
      "anonymous": false,
      "inputs": [
        {
          "indexed": true,
          "internalType": "uint256",
          "name": "_idNumber",
          "type": "uint256"
        },
        {
          "indexed": false,
          "internalType": "string",
          "name": "_ipfsHash",
          "type": "string"
        },
        {
          "indexed": false,
          "internalType": "uint256",
          "name": "_time",
          "type": "uint256"
        }
      ],
      "name": "CreateCardEvent",
      "type": "event"
    },
    {
      "anonymous": false,
      "inputs": [
        {
          "indexed": true,
          "internalType": "uint256",
          "name": "_idNumber",
          "type": "uint256"
        },
        {
          "indexed": false,
          "internalType": "string",
          "name": "_ipfsHash",
          "type": "string"
        },
        {
          "indexed": false,
          "internalType": "uint256",
          "name": "_time",
          "type": "uint256"
        }
      ],
      "name": "EditCardEvent",
      "type": "event"
    },
    {
      "anonymous": false,
      "inputs": [
        {
          "indexed": true,
          "internalType": "uint256",
          "name": "_idNumber",
          "type": "uint256"
        },
        {
          "indexed": false,
          "internalType": "string",
          "name": "_ipfsHash",
          "type": "string"
        },
        {
          "indexed": false,
          "internalType": "uint256",
          "name": "_time",
          "type": "uint256"
        }
      ],
      "name": "RenewCardEvent",
      "type": "event"
    },
    {
      "anonymous": false,
      "inputs": [
        {
          "indexed": true,
          "internalType": "address",
          "name": "_address",
          "type": "address"
        },
        {
          "indexed": false,
          "internalType": "string",
          "name": "_ipfsHash",
          "type": "string"
        },
        {
          "indexed": false,
          "internalType": "uint256",
          "name": "_time",
          "type": "uint256"
        }
      ],
      "name": "RequestCPDUnitsEvent",
      "type": "event"
    },
    {
      "anonymous": false,
      "inputs": [
        {
          "indexed": true,
          "internalType": "address",
          "name": "_address",
          "type": "address"
        },
        {
          "indexed": false,
          "internalType": "string",
          "name": "_ipfsHash",
          "type": "string"
        },
        {
          "indexed": false,
          "internalType": "uint256",
          "name": "_time",
          "type": "uint256"
        }
      ],
      "name": "RequestCardEvent",
      "type": "event"
    },
    {
      "anonymous": false,
      "inputs": [
        {
          "indexed": true,
          "internalType": "address",
          "name": "_address",
          "type": "address"
        },
        {
          "indexed": false,
          "internalType": "string",
          "name": "_ipfsHash",
          "type": "string"
        },
        {
          "indexed": false,
          "internalType": "uint256",
          "name": "_time",
          "type": "uint256"
        }
      ],
      "name": "RequestRenewalEvent",
      "type": "event"
    },
    {
      "anonymous": false,
      "inputs": [
        {
          "indexed": true,
          "internalType": "bytes32",
          "name": "role",
          "type": "bytes32"
        },
        {
          "indexed": true,
          "internalType": "bytes32",
          "name": "previousAdminRole",
          "type": "bytes32"
        },
        {
          "indexed": true,
          "internalType": "bytes32",
          "name": "newAdminRole",
          "type": "bytes32"
        }
      ],
      "name": "RoleAdminChanged",
      "type": "event"
    },
    {
      "anonymous": false,
      "inputs": [
        {
          "indexed": true,
          "internalType": "bytes32",
          "name": "role",
          "type": "bytes32"
        },
        {
          "indexed": true,
          "internalType": "address",
          "name": "account",
          "type": "address"
        },
        {
          "indexed": true,
          "internalType": "address",
          "name": "sender",
          "type": "address"
        }
      ],
      "name": "RoleGranted",
      "type": "event"
    },
    {
      "anonymous": false,
      "inputs": [
        {
          "indexed": true,
          "internalType": "bytes32",
          "name": "role",
          "type": "bytes32"
        },
        {
          "indexed": true,
          "internalType": "address",
          "name": "account",
          "type": "address"
        },
        {
          "indexed": true,
          "internalType": "address",
          "name": "sender",
          "type": "address"
        }
      ],
      "name": "RoleRevoked",
      "type": "event"
    },
    {
      "inputs": [],
      "name": "DEFAULT_ADMIN_ROLE",
      "outputs": [
        {
          "internalType": "bytes32",
          "name": "",
          "type": "bytes32"
        }
      ],
      "stateMutability": "view",
      "type": "function",
      "constant": true
    },
    {
      "inputs": [],
      "name": "PRC_EMP_ROLE",
      "outputs": [
        {
          "internalType": "bytes32",
          "name": "",
          "type": "bytes32"
        }
      ],
      "stateMutability": "view",
      "type": "function",
      "constant": true
    },
    {
      "inputs": [],
      "name": "PRC_PROF_ROLE",
      "outputs": [
        {
          "internalType": "bytes32",
          "name": "",
          "type": "bytes32"
        }
      ],
      "stateMutability": "view",
      "type": "function",
      "constant": true
    },
    {
      "inputs": [
        {
          "internalType": "uint256",
          "name": "",
          "type": "uint256"
        }
      ],
      "name": "cards",
      "outputs": [
        {
          "internalType": "contract Card",
          "name": "card",
          "type": "address"
        }
      ],
      "stateMutability": "view",
      "type": "function",
      "constant": true
    },
    {
      "inputs": [
        {
          "internalType": "bytes32",
          "name": "role",
          "type": "bytes32"
        }
      ],
      "name": "getRoleAdmin",
      "outputs": [
        {
          "internalType": "bytes32",
          "name": "",
          "type": "bytes32"
        }
      ],
      "stateMutability": "view",
      "type": "function",
      "constant": true
    },
    {
      "inputs": [
        {
          "internalType": "bytes32",
          "name": "role",
          "type": "bytes32"
        },
        {
          "internalType": "address",
          "name": "account",
          "type": "address"
        }
      ],
      "name": "grantRole",
      "outputs": [],
      "stateMutability": "nonpayable",
      "type": "function"
    },
    {
      "inputs": [
        {
          "internalType": "bytes32",
          "name": "role",
          "type": "bytes32"
        },
        {
          "internalType": "address",
          "name": "account",
          "type": "address"
        }
      ],
      "name": "hasRole",
      "outputs": [
        {
          "internalType": "bool",
          "name": "",
          "type": "bool"
        }
      ],
      "stateMutability": "view",
      "type": "function",
      "constant": true
    },
    {
      "inputs": [
        {
          "internalType": "bytes32",
          "name": "role",
          "type": "bytes32"
        },
        {
          "internalType": "address",
          "name": "account",
          "type": "address"
        }
      ],
      "name": "renounceRole",
      "outputs": [],
      "stateMutability": "nonpayable",
      "type": "function"
    },
    {
      "inputs": [
        {
          "internalType": "address",
          "name": "",
          "type": "address"
        }
      ],
      "name": "requests",
      "outputs": [
        {
          "internalType": "contract Request",
          "name": "request",
          "type": "address"
        }
      ],
      "stateMutability": "view",
      "type": "function",
      "constant": true
    },
    {
      "inputs": [
        {
          "internalType": "bytes32",
          "name": "role",
          "type": "bytes32"
        },
        {
          "internalType": "address",
          "name": "account",
          "type": "address"
        }
      ],
      "name": "revokeRole",
      "outputs": [],
      "stateMutability": "nonpayable",
      "type": "function"
    },
    {
      "inputs": [
        {
          "internalType": "bytes4",
          "name": "interfaceId",
          "type": "bytes4"
        }
      ],
      "name": "supportsInterface",
      "outputs": [
        {
          "internalType": "bool",
          "name": "",
          "type": "bool"
        }
      ],
      "stateMutability": "view",
      "type": "function",
      "constant": true
    },
    {
      "inputs": [
        {
          "internalType": "uint256",
          "name": "_idNumber",
          "type": "uint256"
        },
        {
          "internalType": "string",
          "name": "_ipfsHash",
          "type": "string"
        }
      ],
      "name": "createCard",
      "outputs": [],
      "stateMutability": "nonpayable",
      "type": "function"
    },
    {
      "inputs": [
        {
          "internalType": "uint256",
          "name": "_idNumber",
          "type": "uint256"
        },
        {
          "internalType": "string",
          "name": "_ipfsHash",
          "type": "string"
        }
      ],
      "name": "editCard",
      "outputs": [],
      "stateMutability": "nonpayable",
      "type": "function"
    },
    {
      "inputs": [
        {
          "internalType": "uint256",
          "name": "_idNumber",
          "type": "uint256"
        },
        {
          "internalType": "string",
          "name": "_ipfsHash",
          "type": "string"
        }
      ],
      "name": "renewCard",
      "outputs": [],
      "stateMutability": "nonpayable",
      "type": "function"
    },
    {
      "inputs": [
        {
          "internalType": "uint256",
          "name": "_idNumber",
          "type": "uint256"
        }
      ],
      "name": "viewCard",
      "outputs": [
        {
          "internalType": "string",
          "name": "ipfsHash",
          "type": "string"
        }
      ],
      "stateMutability": "view",
      "type": "function",
      "constant": true
    },
    {
      "inputs": [
        {
          "internalType": "address",
          "name": "_address",
          "type": "address"
        },
        {
          "internalType": "string",
          "name": "_ipfsHash",
          "type": "string"
        }
      ],
      "name": "requestCard",
      "outputs": [],
      "stateMutability": "nonpayable",
      "type": "function"
    },
    {
      "inputs": [
        {
          "internalType": "address",
          "name": "_address",
          "type": "address"
        },
        {
          "internalType": "string",
          "name": "_ipfsHash",
          "type": "string"
        }
      ],
      "name": "requestCPDUnits",
      "outputs": [],
      "stateMutability": "nonpayable",
      "type": "function"
    },
    {
      "inputs": [
        {
          "internalType": "address",
          "name": "_address",
          "type": "address"
        },
        {
          "internalType": "string",
          "name": "_ipfsHash",
          "type": "string"
        }
      ],
      "name": "requestRenewal",
      "outputs": [],
      "stateMutability": "nonpayable",
      "type": "function"
    },
    {
      "inputs": [
        {
          "internalType": "address",
          "name": "_address",
          "type": "address"
        }
      ],
      "name": "viewRequest",
      "outputs": [
        {
          "internalType": "string",
          "name": "ipfsHash",
          "type": "string"
        }
      ],
      "stateMutability": "view",
      "type": "function",
      "constant": true
    },
    {
      "inputs": [
        {
          "internalType": "address",
          "name": "account",
          "type": "address"
        }
      ],
      "name": "addPRCEmployee",
      "outputs": [],
      "stateMutability": "nonpayable",
      "type": "function"
    },
    {
      "inputs": [
        {
          "internalType": "address",
          "name": "account",
          "type": "address"
        }
      ],
      "name": "removePRCEmployee",
      "outputs": [],
      "stateMutability": "nonpayable",
      "type": "function"
    },
    {
      "inputs": [
        {
          "internalType": "address",
          "name": "account",
          "type": "address"
        }
      ],
      "name": "addPRCProfessional",
      "outputs": [],
      "stateMutability": "nonpayable",
      "type": "function"
    },
    {
      "inputs": [
        {
          "internalType": "address",
          "name": "account",
          "type": "address"
        }
      ],
      "name": "removePRCProfessional",
      "outputs": [],
      "stateMutability": "nonpayable",
      "type": "function"
    }
  ],
  "bytecode": "0x60806040523480156200001157600080fd5b5060405162003e4838038062003e488339818101604052810190620000379190620001e3565b6200004c6000801b826200005360201b60201c565b5062000268565b6200006582826200006960201b60201c565b5050565b6200007b82826200015a60201b60201c565b6200015657600160008084815260200190815260200160002060000160008373ffffffffffffffffffffffffffffffffffffffff1673ffffffffffffffffffffffffffffffffffffffff16815260200190815260200160002060006101000a81548160ff021916908315150217905550620000fb620001c460201b60201c565b73ffffffffffffffffffffffffffffffffffffffff168173ffffffffffffffffffffffffffffffffffffffff16837f2f8788117e7eff1d82e926ec794901d17c78024a50270940304540a733656f0d60405160405180910390a45b5050565b600080600084815260200190815260200160002060000160008373ffffffffffffffffffffffffffffffffffffffff1673ffffffffffffffffffffffffffffffffffffffff16815260200190815260200160002060009054906101000a900460ff16905092915050565b600033905090565b600081519050620001dd816200024e565b92915050565b600060208284031215620001fc57620001fb62000249565b5b60006200020c84828501620001cc565b91505092915050565b6000620002228262000229565b9050919050565b600073ffffffffffffffffffffffffffffffffffffffff82169050919050565b600080fd5b620002598162000215565b81146200026557600080fd5b50565b613bd080620002786000396000f3fe60806040523480156200001157600080fd5b50600436106200016c5760003560e01c80638886323511620000d5578063d547741f1162000087578063d547741f146200042d578063e1dc0e54146200044d578063e5fb5929146200046f578063ec52df77146200048f578063f00b1ac314620004af578063fff5739114620004cf576200016c565b806388863235146200033f5780638dc10768146200035f57806391d1485414620003955780639bd0d76014620003cb578063a217fddf14620003eb578063d06eb41a146200040d576200016c565b8063367f544f116200012f578063367f544f146200023d5780633d701579146200025d5780634eb47b31146200029357806354d12a3a14620002b35780635b91705414620002e957806374adad1d1462000309576200016c565b806301ffc9a71462000171578063234d213714620001a7578063248a9ca314620001c75780632f2ff15d14620001fd57806336568abe146200021d575b600080fd5b6200018f600480360381019062000189919062001ba5565b620004f1565b6040516200019e919062001f02565b60405180910390f35b620001c56004803603810190620001bf919062001c5a565b6200056e565b005b620001e56004803603810190620001df919062001b2c565b620006ad565b604051620001f4919062001f1f565b60405180910390f35b6200021b600480360381019062000215919062001b5e565b620006cc565b005b6200023b600480360381019062000235919062001b5e565b620006fd565b005b6200025b600480360381019062000255919062001ac6565b62000787565b005b6200027b600480360381019062000275919062001a94565b62000908565b6040516200028a919062001ffe565b60405180910390f35b620002b16004803603810190620002ab919062001a94565b620009fa565b005b620002d16004803603810190620002cb919062001c28565b62000a7a565b604051620002e0919062001ffe565b60405180910390f35b62000307600480360381019062000301919062001ac6565b62000b40565b005b62000327600480360381019062000321919062001a94565b62000cc1565b60405162000336919062001fe1565b60405180910390f35b6200035d600480360381019062000357919062001a94565b62000cff565b005b6200037d600480360381019062000377919062001c28565b62000d9c565b6040516200038c919062001f3c565b60405180910390f35b620003b36004803603810190620003ad919062001b5e565b62000dda565b604051620003c2919062001f02565b60405180910390f35b620003e96004803603810190620003e3919062001ac6565b62000e44565b005b620003f562000fc5565b60405162000404919062001f1f565b60405180910390f35b6200042b600480360381019062000425919062001c5a565b62000fcc565b005b6200044b600480360381019062000445919062001b5e565b6200110b565b005b620004576200113c565b60405162000466919062001f1f565b60405180910390f35b6200048d600480360381019062000487919062001a94565b62001160565b005b620004ad6004803603810190620004a7919062001c5a565b620011fd565b005b620004cd6004803603810190620004c7919062001a94565b6200133c565b005b620004d9620013bc565b604051620004e8919062001f1f565b60405180910390f35b60007f7965db0b000000000000000000000000000000000000000000000000000000007bffffffffffffffffffffffffffffffffffffffffffffffffffffffff1916827bffffffffffffffffffffffffffffffffffffffffffffffffffffffff191614806200056757506200056682620013e0565b5b9050919050565b6200059a7fe4540c8f5874f56328e77f0c52e4192f853643b69770d59f9d05f7613e7df1a33362000dda565b620005dc576040517f08c379a0000000000000000000000000000000000000000000000000000000008152600401620005d390620020bc565b60405180910390fd5b308282604051620005ed9062001920565b620005fb9392919062001f9d565b604051809103906000f08015801562000618573d6000803e3d6000fd5b506001600084815260200190815260200160002060000160006101000a81548173ffffffffffffffffffffffffffffffffffffffff021916908373ffffffffffffffffffffffffffffffffffffffff160217905550817fbaf66f321698aca6b265695c14d748aad000d0c8857addf9363e8b82577d2e598242604051620006a192919062002022565b60405180910390a25050565b6000806000838152602001908152602001600020600101549050919050565b620006d782620006ad565b620006ec81620006e66200144a565b62001452565b620006f88383620014fa565b505050565b620007076200144a565b73ffffffffffffffffffffffffffffffffffffffff168173ffffffffffffffffffffffffffffffffffffffff161462000777576040517f08c379a00000000000000000000000000000000000000000000000000000000081526004016200076e90620020de565b60405180910390fd5b620007838282620015df565b5050565b620007b37f6398aca6da75aa4763d6e3077fc1f79e14a058153d2970fc7b3d060e7dab56f23362000dda565b620007f5576040517f08c379a0000000000000000000000000000000000000000000000000000000008152600401620007ec906200209a565b60405180910390fd5b30828260405162000806906200192e565b620008149392919062001f59565b604051809103906000f08015801562000831573d6000803e3d6000fd5b50600260008473ffffffffffffffffffffffffffffffffffffffff1673ffffffffffffffffffffffffffffffffffffffff16815260200190815260200160002060000160006101000a81548173ffffffffffffffffffffffffffffffffffffffff021916908373ffffffffffffffffffffffffffffffffffffffff1602179055508173ffffffffffffffffffffffffffffffffffffffff167f8fa8e381b6116656ace2e6d07bad0109cf7bd7400ed40d1a9bce122050be11198242604051620008fc92919062002022565b60405180910390a25050565b6060600260008373ffffffffffffffffffffffffffffffffffffffff1673ffffffffffffffffffffffffffffffffffffffff16815260200190815260200160002060000160009054906101000a900473ffffffffffffffffffffffffffffffffffffffff1673ffffffffffffffffffffffffffffffffffffffff1663d13319c46040518163ffffffff1660e01b815260040160006040518083038186803b158015620009b357600080fd5b505afa158015620009c8573d6000803e3d6000fd5b505050506040513d6000823e3d601f19601f82011682018060405250810190620009f3919062001bd7565b9050919050565b62000a096000801b3362000dda565b62000a4b576040517f08c379a000000000000000000000000000000000000000000000000000000000815260040162000a429062002078565b60405180910390fd5b62000a777fe4540c8f5874f56328e77f0c52e4192f853643b69770d59f9d05f7613e7df1a3826200110b565b50565b60606001600083815260200190815260200160002060000160009054906101000a900473ffffffffffffffffffffffffffffffffffffffff1673ffffffffffffffffffffffffffffffffffffffff1663d13319c46040518163ffffffff1660e01b815260040160006040518083038186803b15801562000af957600080fd5b505afa15801562000b0e573d6000803e3d6000fd5b505050506040513d6000823e3d601f19601f8201168201806040525081019062000b39919062001bd7565b9050919050565b62000b6c7f6398aca6da75aa4763d6e3077fc1f79e14a058153d2970fc7b3d060e7dab56f23362000dda565b62000bae576040517f08c379a000000000000000000000000000000000000000000000000000000000815260040162000ba5906200209a565b60405180910390fd5b30828260405162000bbf906200192e565b62000bcd9392919062001f59565b604051809103906000f08015801562000bea573d6000803e3d6000fd5b50600260008473ffffffffffffffffffffffffffffffffffffffff1673ffffffffffffffffffffffffffffffffffffffff16815260200190815260200160002060000160006101000a81548173ffffffffffffffffffffffffffffffffffffffff021916908373ffffffffffffffffffffffffffffffffffffffff1602179055508173ffffffffffffffffffffffffffffffffffffffff167f9d52e4e09286cdaaa6167cf9f227ac6d7751cbdc009e9f32d4da8ab784ffd2f4824260405162000cb592919062002022565b60405180910390a25050565b60026020528060005260406000206000915090508060000160009054906101000a900473ffffffffffffffffffffffffffffffffffffffff16905081565b62000d2b7fe4540c8f5874f56328e77f0c52e4192f853643b69770d59f9d05f7613e7df1a33362000dda565b62000d6d576040517f08c379a000000000000000000000000000000000000000000000000000000000815260040162000d6490620020bc565b60405180910390fd5b62000d997f6398aca6da75aa4763d6e3077fc1f79e14a058153d2970fc7b3d060e7dab56f282620006cc565b50565b60016020528060005260406000206000915090508060000160009054906101000a900473ffffffffffffffffffffffffffffffffffffffff16905081565b600080600084815260200190815260200160002060000160008373ffffffffffffffffffffffffffffffffffffffff1673ffffffffffffffffffffffffffffffffffffffff16815260200190815260200160002060009054906101000a900460ff16905092915050565b62000e707f6398aca6da75aa4763d6e3077fc1f79e14a058153d2970fc7b3d060e7dab56f23362000dda565b62000eb2576040517f08c379a000000000000000000000000000000000000000000000000000000000815260040162000ea9906200209a565b60405180910390fd5b30828260405162000ec3906200192e565b62000ed19392919062001f59565b604051809103906000f08015801562000eee573d6000803e3d6000fd5b50600260008473ffffffffffffffffffffffffffffffffffffffff1673ffffffffffffffffffffffffffffffffffffffff16815260200190815260200160002060000160006101000a81548173ffffffffffffffffffffffffffffffffffffffff021916908373ffffffffffffffffffffffffffffffffffffffff1602179055503373ffffffffffffffffffffffffffffffffffffffff167f148e3f0eab6a54f3207ca709f8c9c45906c3eb1a6a80d73c9b60614b05c1f853824260405162000fb992919062002022565b60405180910390a25050565b6000801b81565b62000ff87fe4540c8f5874f56328e77f0c52e4192f853643b69770d59f9d05f7613e7df1a33362000dda565b6200103a576040517f08c379a00000000000000000000000000000000000000000000000000000000081526004016200103190620020bc565b60405180910390fd5b3082826040516200104b9062001920565b620010599392919062001f9d565b604051809103906000f08015801562001076573d6000803e3d6000fd5b506001600084815260200190815260200160002060000160006101000a81548173ffffffffffffffffffffffffffffffffffffffff021916908373ffffffffffffffffffffffffffffffffffffffff160217905550817f8b4d746d08b36b41c8856a732b64645b0197077bddca74c0b577cb323aa8b98c8242604051620010ff92919062002022565b60405180910390a25050565b6200111682620006ad565b6200112b81620011256200144a565b62001452565b620011378383620015df565b505050565b7f6398aca6da75aa4763d6e3077fc1f79e14a058153d2970fc7b3d060e7dab56f281565b6200118c7fe4540c8f5874f56328e77f0c52e4192f853643b69770d59f9d05f7613e7df1a33362000dda565b620011ce576040517f08c379a0000000000000000000000000000000000000000000000000000000008152600401620011c590620020bc565b60405180910390fd5b620011fa7f6398aca6da75aa4763d6e3077fc1f79e14a058153d2970fc7b3d060e7dab56f2826200110b565b50565b620012297fe4540c8f5874f56328e77f0c52e4192f853643b69770d59f9d05f7613e7df1a33362000dda565b6200126b576040517f08c379a00000000000000000000000000000000000000000000000000000000081526004016200126290620020bc565b60405180910390fd5b3082826040516200127c9062001920565b6200128a9392919062001f9d565b604051809103906000f080158015620012a7573d6000803e3d6000fd5b506001600084815260200190815260200160002060000160006101000a81548173ffffffffffffffffffffffffffffffffffffffff021916908373ffffffffffffffffffffffffffffffffffffffff160217905550817fc5265270278643845b77eb4a6e81c2be5ae846a7f00c4c321ad5b28474dfc0bf82426040516200133092919062002022565b60405180910390a25050565b6200134b6000801b3362000dda565b6200138d576040517f08c379a0000000000000000000000000000000000000000000000000000000008152600401620013849062002078565b60405180910390fd5b620013b97fe4540c8f5874f56328e77f0c52e4192f853643b69770d59f9d05f7613e7df1a382620006cc565b50565b7fe4540c8f5874f56328e77f0c52e4192f853643b69770d59f9d05f7613e7df1a381565b60007f01ffc9a7000000000000000000000000000000000000000000000000000000007bffffffffffffffffffffffffffffffffffffffffffffffffffffffff1916827bffffffffffffffffffffffffffffffffffffffffffffffffffffffff1916149050919050565b600033905090565b6200145e828262000dda565b620014f657620014868173ffffffffffffffffffffffffffffffffffffffff166014620016c5565b620014968360001c6020620016c5565b604051602001620014a992919062001ec0565b6040516020818303038152906040526040517f08c379a0000000000000000000000000000000000000000000000000000000008152600401620014ed919062001ffe565b60405180910390fd5b5050565b62001506828262000dda565b620015db57600160008084815260200190815260200160002060000160008373ffffffffffffffffffffffffffffffffffffffff1673ffffffffffffffffffffffffffffffffffffffff16815260200190815260200160002060006101000a81548160ff021916908315150217905550620015806200144a565b73ffffffffffffffffffffffffffffffffffffffff168173ffffffffffffffffffffffffffffffffffffffff16837f2f8788117e7eff1d82e926ec794901d17c78024a50270940304540a733656f0d60405160405180910390a45b5050565b620015eb828262000dda565b15620016c157600080600084815260200190815260200160002060000160008373ffffffffffffffffffffffffffffffffffffffff1673ffffffffffffffffffffffffffffffffffffffff16815260200190815260200160002060006101000a81548160ff021916908315150217905550620016666200144a565b73ffffffffffffffffffffffffffffffffffffffff168173ffffffffffffffffffffffffffffffffffffffff16837ff6391f5c32d9c69d2a47ea670b442974b53935d1edc7fd64eb21e047a839171b60405160405180910390a45b5050565b606060006002836002620016da9190620021e3565b620016e6919062002186565b67ffffffffffffffff81111562001702576200170162002430565b5b6040519080825280601f01601f191660200182016040528015620017355781602001600182028036833780820191505090505b5090507f30000000000000000000000000000000000000000000000000000000000000008160008151811062001770576200176f62002401565b5b60200101907effffffffffffffffffffffffffffffffffffffffffffffffffffffffffffff1916908160001a9053507f780000000000000000000000000000000000000000000000000000000000000081600181518110620017d757620017d662002401565b5b60200101907effffffffffffffffffffffffffffffffffffffffffffffffffffffffffffff1916908160001a90535060006001846002620018199190620021e3565b62001825919062002186565b90505b6001811115620018cf577f3031323334353637383961626364656600000000000000000000000000000000600f8616601081106200186b576200186a62002401565b5b1a60f81b82828151811062001885576200188462002401565b5b60200101907effffffffffffffffffffffffffffffffffffffffffffffffffffffffffffff1916908160001a905350600485901c945080620018c7906200236d565b905062001828565b506000841462001916576040517f08c379a00000000000000000000000000000000000000000000000000000000081526004016200190d9062002056565b60405180910390fd5b8091505092915050565b610a54806200267e83390190565b610ac980620030d283390190565b6000620019536200194d8462002129565b62002100565b90508281526020810184848401111562001972576200197162002464565b5b6200197f84828562002328565b509392505050565b60006200199e620019988462002129565b62002100565b905082815260208101848484011115620019bd57620019bc62002464565b5b620019ca84828562002337565b509392505050565b600081359050620019e38162002615565b92915050565b600081359050620019fa816200262f565b92915050565b60008135905062001a118162002649565b92915050565b600082601f83011262001a2f5762001a2e6200245f565b5b813562001a418482602086016200193c565b91505092915050565b600082601f83011262001a625762001a616200245f565b5b815162001a7484826020860162001987565b91505092915050565b60008135905062001a8e8162002663565b92915050565b60006020828403121562001aad5762001aac6200246e565b5b600062001abd84828501620019d2565b91505092915050565b6000806040838503121562001ae05762001adf6200246e565b5b600062001af085828601620019d2565b925050602083013567ffffffffffffffff81111562001b145762001b1362002469565b5b62001b228582860162001a17565b9150509250929050565b60006020828403121562001b455762001b446200246e565b5b600062001b5584828501620019e9565b91505092915050565b6000806040838503121562001b785762001b776200246e565b5b600062001b8885828601620019e9565b925050602062001b9b85828601620019d2565b9150509250929050565b60006020828403121562001bbe5762001bbd6200246e565b5b600062001bce8482850162001a00565b91505092915050565b60006020828403121562001bf05762001bef6200246e565b5b600082015167ffffffffffffffff81111562001c115762001c1062002469565b5b62001c1f8482850162001a4a565b91505092915050565b60006020828403121562001c415762001c406200246e565b5b600062001c518482850162001a7d565b91505092915050565b6000806040838503121562001c745762001c736200246e565b5b600062001c848582860162001a7d565b925050602083013567ffffffffffffffff81111562001ca85762001ca762002469565b5b62001cb68582860162001a17565b9150509250929050565b62001ccb8162002244565b82525050565b62001cdc8162002258565b82525050565b62001ced8162002264565b82525050565b62001cfe81620022c4565b82525050565b62001d0f81620022d8565b82525050565b62001d2081620022ec565b82525050565b600062001d33826200215f565b62001d3f81856200216a565b935062001d5181856020860162002337565b62001d5c8162002473565b840191505092915050565b600062001d74826200215f565b62001d8081856200217b565b935062001d9281856020860162002337565b80840191505092915050565b600062001dad6020836200216a565b915062001dba8262002484565b602082019050919050565b600062001dd46015836200216a565b915062001de182620024ad565b602082019050919050565b600062001dfb6017836200217b565b915062001e0882620024d6565b601782019050919050565b600062001e226036836200216a565b915062001e2f82620024ff565b604082019050919050565b600062001e496032836200216a565b915062001e56826200254e565b604082019050919050565b600062001e706011836200217b565b915062001e7d826200259d565b601182019050919050565b600062001e97602f836200216a565b915062001ea482620025c6565b604082019050919050565b62001eba81620022ba565b82525050565b600062001ecd8262001dec565b915062001edb828562001d67565b915062001ee88262001e61565b915062001ef6828462001d67565b91508190509392505050565b600060208201905062001f19600083018462001cd1565b92915050565b600060208201905062001f36600083018462001ce2565b92915050565b600060208201905062001f53600083018462001cf3565b92915050565b600060608201905062001f70600083018662001d04565b62001f7f602083018562001cc0565b818103604083015262001f93818462001d26565b9050949350505050565b600060608201905062001fb4600083018662001d04565b62001fc3602083018562001eaf565b818103604083015262001fd7818462001d26565b9050949350505050565b600060208201905062001ff8600083018462001d15565b92915050565b600060208201905081810360008301526200201a818462001d26565b905092915050565b600060408201905081810360008301526200203e818562001d26565b90506200204f602083018462001eaf565b9392505050565b60006020820190508181036000830152620020718162001d9e565b9050919050565b60006020820190508181036000830152620020938162001dc5565b9050919050565b60006020820190508181036000830152620020b58162001e13565b9050919050565b60006020820190508181036000830152620020d78162001e3a565b9050919050565b60006020820190508181036000830152620020f98162001e88565b9050919050565b60006200210c6200211f565b90506200211a82826200239c565b919050565b6000604051905090565b600067ffffffffffffffff82111562002147576200214662002430565b5b620021528262002473565b9050602081019050919050565b600081519050919050565b600082825260208201905092915050565b600081905092915050565b60006200219382620022ba565b9150620021a083620022ba565b9250827fffffffffffffffffffffffffffffffffffffffffffffffffffffffffffffffff03821115620021d857620021d7620023d2565b5b828201905092915050565b6000620021f082620022ba565b9150620021fd83620022ba565b9250817fffffffffffffffffffffffffffffffffffffffffffffffffffffffffffffffff0483118215151615620022395762002238620023d2565b5b828202905092915050565b600062002251826200229a565b9050919050565b60008115159050919050565b6000819050919050565b60007fffffffff0000000000000000000000000000000000000000000000000000000082169050919050565b600073ffffffffffffffffffffffffffffffffffffffff82169050919050565b6000819050919050565b6000620022d18262002300565b9050919050565b6000620022e58262002300565b9050919050565b6000620022f98262002300565b9050919050565b60006200230d8262002314565b9050919050565b600062002321826200229a565b9050919050565b82818337600083830152505050565b60005b83811015620023575780820151818401526020810190506200233a565b8381111562002367576000848401525b50505050565b60006200237a82620022ba565b91506000821415620023915762002390620023d2565b5b600182039050919050565b620023a78262002473565b810181811067ffffffffffffffff82111715620023c957620023c862002430565b5b80604052505050565b7f4e487b7100000000000000000000000000000000000000000000000000000000600052601160045260246000fd5b7f4e487b7100000000000000000000000000000000000000000000000000000000600052603260045260246000fd5b7f4e487b7100000000000000000000000000000000000000000000000000000000600052604160045260246000fd5b600080fd5b600080fd5b600080fd5b600080fd5b6000601f19601f8301169050919050565b7f537472696e67733a20686578206c656e67746820696e73756666696369656e74600082015250565b7f5265737472696374656420746f2061646d696e732e0000000000000000000000600082015250565b7f416363657373436f6e74726f6c3a206163636f756e7420000000000000000000600082015250565b7f596f75206d7573742062652061205052432070726f66657373696f6e616c207460008201527f6f2061636365737320746869732066756e6374696f6e00000000000000000000602082015250565b7f596f75206d75737420626520612050524320656d706c6f79656520746f20616360008201527f6365737320746869732066756e6374696f6e0000000000000000000000000000602082015250565b7f206973206d697373696e6720726f6c6520000000000000000000000000000000600082015250565b7f416363657373436f6e74726f6c3a2063616e206f6e6c792072656e6f756e636560008201527f20726f6c657320666f722073656c660000000000000000000000000000000000602082015250565b620026208162002244565b81146200262c57600080fd5b50565b6200263a8162002264565b81146200264657600080fd5b50565b62002654816200226e565b81146200266057600080fd5b50565b6200266e81620022ba565b81146200267a57600080fd5b5056fe60806040523480156200001157600080fd5b5060405162000a5438038062000a548339818101604052810190620000379190620001fd565b82600260006101000a81548173ffffffffffffffffffffffffffffffffffffffff021916908373ffffffffffffffffffffffffffffffffffffffff16021790555081600081905550806001908051906020019062000097929190620000a1565b5050505062000482565b828054620000af906200035f565b90600052602060002090601f016020900481019282620000d357600085556200011f565b82601f10620000ee57805160ff19168380011785556200011f565b828001600101855582156200011f579182015b828111156200011e57825182559160200191906001019062000101565b5b5090506200012e919062000132565b5090565b5b808211156200014d57600081600090555060010162000133565b5090565b6000620001686200016284620002a1565b62000278565b9050828152602081018484840111156200018757620001866200042e565b5b6200019484828562000329565b509392505050565b600081519050620001ad816200044e565b92915050565b600082601f830112620001cb57620001ca62000429565b5b8151620001dd84826020860162000151565b91505092915050565b600081519050620001f78162000468565b92915050565b60008060006060848603121562000219576200021862000438565b5b600062000229868287016200019c565b93505060206200023c86828701620001e6565b925050604084015167ffffffffffffffff81111562000260576200025f62000433565b5b6200026e86828701620001b3565b9150509250925092565b60006200028462000297565b905062000292828262000395565b919050565b6000604051905090565b600067ffffffffffffffff821115620002bf57620002be620003fa565b5b620002ca826200043d565b9050602081019050919050565b6000620002e482620002ff565b9050919050565b6000620002f882620002d7565b9050919050565b600073ffffffffffffffffffffffffffffffffffffffff82169050919050565b6000819050919050565b60005b83811015620003495780820151818401526020810190506200032c565b8381111562000359576000848401525b50505050565b600060028204905060018216806200037857607f821691505b602082108114156200038f576200038e620003cb565b5b50919050565b620003a0826200043d565b810181811067ffffffffffffffff82111715620003c257620003c1620003fa565b5b80604052505050565b7f4e487b7100000000000000000000000000000000000000000000000000000000600052602260045260246000fd5b7f4e487b7100000000000000000000000000000000000000000000000000000000600052604160045260246000fd5b600080fd5b600080fd5b600080fd5b600080fd5b6000601f19601f8301169050919050565b6200045981620002eb565b81146200046557600080fd5b50565b62000473816200031f565b81146200047f57600080fd5b50565b6105c280620004926000396000f3fe608060405234801561001057600080fd5b506004361061004c5760003560e01c80631ed83fd4146100515780633f83ea3b1461006d578063c623674f1461008b578063d13319c4146100a9575b600080fd5b61006b6004803603810190610066919061031a565b6100c7565b005b6100756100e1565b60405161008291906103cd565b60405180910390f35b6100936100e7565b6040516100a091906103ab565b60405180910390f35b6100b1610175565b6040516100be91906103ab565b60405180910390f35b80600190805190602001906100dd929190610207565b5050565b60005481565b600180546100f4906104a6565b80601f0160208091040260200160405190810160405280929190818152602001828054610120906104a6565b801561016d5780601f106101425761010080835404028352916020019161016d565b820191906000526020600020905b81548152906001019060200180831161015057829003601f168201915b505050505081565b606060018054610184906104a6565b80601f01602080910402602001604051908101604052809291908181526020018280546101b0906104a6565b80156101fd5780601f106101d2576101008083540402835291602001916101fd565b820191906000526020600020905b8154815290600101906020018083116101e057829003601f168201915b5050505050905090565b828054610213906104a6565b90600052602060002090601f016020900481019282610235576000855561027c565b82601f1061024e57805160ff191683800117855561027c565b8280016001018555821561027c579182015b8281111561027b578251825591602001919060010190610260565b5b509050610289919061028d565b5090565b5b808211156102a657600081600090555060010161028e565b5090565b60006102bd6102b88461040d565b6103e8565b9050828152602081018484840111156102d9576102d861056c565b5b6102e4848285610464565b509392505050565b600082601f83011261030157610300610567565b5b81356103118482602086016102aa565b91505092915050565b6000602082840312156103305761032f610576565b5b600082013567ffffffffffffffff81111561034e5761034d610571565b5b61035a848285016102ec565b91505092915050565b600061036e8261043e565b6103788185610449565b9350610388818560208601610473565b6103918161057b565b840191505092915050565b6103a58161045a565b82525050565b600060208201905081810360008301526103c58184610363565b905092915050565b60006020820190506103e2600083018461039c565b92915050565b60006103f2610403565b90506103fe82826104d8565b919050565b6000604051905090565b600067ffffffffffffffff82111561042857610427610538565b5b6104318261057b565b9050602081019050919050565b600081519050919050565b600082825260208201905092915050565b6000819050919050565b82818337600083830152505050565b60005b83811015610491578082015181840152602081019050610476565b838111156104a0576000848401525b50505050565b600060028204905060018216806104be57607f821691505b602082108114156104d2576104d1610509565b5b50919050565b6104e18261057b565b810181811067ffffffffffffffff82111715610500576104ff610538565b5b80604052505050565b7f4e487b7100000000000000000000000000000000000000000000000000000000600052602260045260246000fd5b7f4e487b7100000000000000000000000000000000000000000000000000000000600052604160045260246000fd5b600080fd5b600080fd5b600080fd5b600080fd5b6000601f19601f830116905091905056fea2646970667358221220a9897da41bd201d2ac580272db8d7d1b56c215bb02ff1225610be6b6aae3d57a64736f6c6343000807003360806040523480156200001157600080fd5b5060405162000ac938038062000ac9833981810160405281019062000037919062000236565b82600260006101000a81548173ffffffffffffffffffffffffffffffffffffffff021916908373ffffffffffffffffffffffffffffffffffffffff160217905550816000806101000a81548173ffffffffffffffffffffffffffffffffffffffff021916908373ffffffffffffffffffffffffffffffffffffffff1602179055508060019080519060200190620000d0929190620000da565b50505050620004b1565b828054620000e8906200038e565b90600052602060002090601f0160209004810192826200010c576000855562000158565b82601f106200012757805160ff191683800117855562000158565b8280016001018555821562000158579182015b82811115620001575782518255916020019190600101906200013a565b5b5090506200016791906200016b565b5090565b5b80821115620001865760008160009055506001016200016c565b5090565b6000620001a16200019b84620002da565b620002b1565b905082815260208101848484011115620001c057620001bf6200045d565b5b620001cd84828562000358565b509392505050565b600081519050620001e6816200047d565b92915050565b600081519050620001fd8162000497565b92915050565b600082601f8301126200021b576200021a62000458565b5b81516200022d8482602086016200018a565b91505092915050565b60008060006060848603121562000252576200025162000467565b5b60006200026286828701620001ec565b93505060206200027586828701620001d5565b925050604084015167ffffffffffffffff81111562000299576200029862000462565b5b620002a78682870162000203565b9150509250925092565b6000620002bd620002d0565b9050620002cb8282620003c4565b919050565b6000604051905090565b600067ffffffffffffffff821115620002f857620002f762000429565b5b62000303826200046c565b9050602081019050919050565b60006200031d8262000338565b9050919050565b6000620003318262000310565b9050919050565b600073ffffffffffffffffffffffffffffffffffffffff82169050919050565b60005b83811015620003785780820151818401526020810190506200035b565b8381111562000388576000848401525b50505050565b60006002820490506001821680620003a757607f821691505b60208210811415620003be57620003bd620003fa565b5b50919050565b620003cf826200046c565b810181811067ffffffffffffffff82111715620003f157620003f062000429565b5b80604052505050565b7f4e487b7100000000000000000000000000000000000000000000000000000000600052602260045260246000fd5b7f4e487b7100000000000000000000000000000000000000000000000000000000600052604160045260246000fd5b600080fd5b600080fd5b600080fd5b600080fd5b6000601f19601f8301169050919050565b620004888162000310565b81146200049457600080fd5b50565b620004a28162000324565b8114620004ae57600080fd5b50565b61060880620004c16000396000f3fe608060405234801561001057600080fd5b506004361061004c5760003560e01c80631ed83fd414610051578063c623674f1461006d578063d13319c41461008b578063e4128fb3146100a9575b600080fd5b61006b60048036038101906100669190610338565b6100c7565b005b6100756100e1565b60405161008291906103e4565b60405180910390f35b61009361016f565b6040516100a091906103e4565b60405180910390f35b6100b1610201565b6040516100be91906103c9565b60405180910390f35b80600190805190602001906100dd929190610225565b5050565b600180546100ee906104ec565b80601f016020809104026020016040519081016040528092919081815260200182805461011a906104ec565b80156101675780601f1061013c57610100808354040283529160200191610167565b820191906000526020600020905b81548152906001019060200180831161014a57829003601f168201915b505050505081565b60606001805461017e906104ec565b80601f01602080910402602001604051908101604052809291908181526020018280546101aa906104ec565b80156101f75780601f106101cc576101008083540402835291602001916101f7565b820191906000526020600020905b8154815290600101906020018083116101da57829003601f168201915b5050505050905090565b60008054906101000a900473ffffffffffffffffffffffffffffffffffffffff1681565b828054610231906104ec565b90600052602060002090601f016020900481019282610253576000855561029a565b82601f1061026c57805160ff191683800117855561029a565b8280016001018555821561029a579182015b8281111561029957825182559160200191906001019061027e565b5b5090506102a791906102ab565b5090565b5b808211156102c45760008160009055506001016102ac565b5090565b60006102db6102d68461042b565b610406565b9050828152602081018484840111156102f7576102f66105b2565b5b6103028482856104aa565b509392505050565b600082601f83011261031f5761031e6105ad565b5b813561032f8482602086016102c8565b91505092915050565b60006020828403121561034e5761034d6105bc565b5b600082013567ffffffffffffffff81111561036c5761036b6105b7565b5b6103788482850161030a565b91505092915050565b61038a81610478565b82525050565b600061039b8261045c565b6103a58185610467565b93506103b58185602086016104b9565b6103be816105c1565b840191505092915050565b60006020820190506103de6000830184610381565b92915050565b600060208201905081810360008301526103fe8184610390565b905092915050565b6000610410610421565b905061041c828261051e565b919050565b6000604051905090565b600067ffffffffffffffff8211156104465761044561057e565b5b61044f826105c1565b9050602081019050919050565b600081519050919050565b600082825260208201905092915050565b60006104838261048a565b9050919050565b600073ffffffffffffffffffffffffffffffffffffffff82169050919050565b82818337600083830152505050565b60005b838110156104d75780820151818401526020810190506104bc565b838111156104e6576000848401525b50505050565b6000600282049050600182168061050457607f821691505b602082108114156105185761051761054f565b5b50919050565b610527826105c1565b810181811067ffffffffffffffff821117156105465761054561057e565b5b80604052505050565b7f4e487b7100000000000000000000000000000000000000000000000000000000600052602260045260246000fd5b7f4e487b7100000000000000000000000000000000000000000000000000000000600052604160045260246000fd5b600080fd5b600080fd5b600080fd5b600080fd5b6000601f19601f830116905091905056fea26469706673582212209166043731a830c08bbe39aa62de4038e0ddbb48a53ac6e43379d03a8c709c1f64736f6c63430008070033a2646970667358221220a6f2f730324c192918b1ef39b53ef78dc04933adc1d56ec8a0ab47ea898518e264736f6c63430008070033",
  "immutableReferences": {},
  "source": "pragma solidity ^0.8.7;\r\n\r\nimport \"./Card.sol\";\r\nimport \"./Request.sol\";\r\n\r\nimport \"@openzeppelin/contracts/access/AccessControl.sol\";\r\n\r\ncontract Manager is AccessControl {\r\n    bytes32 public constant PRC_EMP_ROLE = keccak256(\"PRC_EMP_ROLE\");\r\n    bytes32 public constant PRC_PROF_ROLE = keccak256(\"PRC_PROF_ROLE\");\r\n\r\n    event CreateCardEvent(uint256 indexed _idNumber, string _ipfsHash, uint256 _time);\r\n    event EditCardEvent(uint256 indexed _idNumber, string _ipfsHash, uint256 _time);\r\n    event RenewCardEvent(uint256 indexed _idNumber, string _ipfsHash, uint256 _time);\r\n\r\n    event RequestCardEvent(address indexed _address, string _ipfsHash, uint256 _time);\r\n    event RequestCPDUnitsEvent(address indexed _address, string _ipfsHash, uint256 _time);\r\n    event RequestRenewalEvent(address indexed _address, string _ipfsHash, uint256 _time);\r\n\r\n    struct P_Card {\r\n        Card card;\r\n    }\r\n\r\n    struct P_Request {\r\n        Request request;\r\n    }\r\n\r\n    mapping(uint256 => P_Card) public cards;\r\n    mapping(address => P_Request) public requests;\r\n\r\n    constructor(address root) public {\r\n        _setupRole(DEFAULT_ADMIN_ROLE, root);\r\n    }\r\n\r\n    // Employee\r\n\r\n    modifier onlyPRCEmployee() {\r\n        require(\r\n            hasRole(PRC_EMP_ROLE, msg.sender),\r\n            \"You must be a PRC employee to access this function\"\r\n        );\r\n        _;\r\n    }\r\n\r\n    function createCard(uint256 _idNumber, string memory _ipfsHash)\r\n        public\r\n        onlyPRCEmployee\r\n    {\r\n        cards[_idNumber].card = new Card(this, _idNumber, _ipfsHash);\r\n        emit CreateCardEvent(_idNumber, _ipfsHash, block.timestamp);\r\n    }\r\n\r\n    function editCard(uint256 _idNumber, string memory _ipfsHash)\r\n        public\r\n        onlyPRCEmployee\r\n    {\r\n        cards[_idNumber].card = new Card(this, _idNumber, _ipfsHash);\r\n        emit EditCardEvent(_idNumber, _ipfsHash, block.timestamp);\r\n    }\r\n\r\n    function renewCard(uint256 _idNumber, string memory _ipfsHash)\r\n        public\r\n        onlyPRCEmployee\r\n    {\r\n        cards[_idNumber].card = new Card(this, _idNumber, _ipfsHash);\r\n        emit RenewCardEvent(_idNumber, _ipfsHash, block.timestamp);\r\n    }\r\n\r\n    function viewCard(uint256 _idNumber)\r\n        public\r\n        view\r\n        returns (string memory ipfsHash)\r\n    {\r\n        return (cards[_idNumber].card.getHash());\r\n    }\r\n\r\n    // Professional\r\n\r\n    modifier onlyPRCProfessional() {\r\n        require(\r\n            hasRole(PRC_PROF_ROLE, msg.sender),\r\n            \"You must be a PRC professional to access this function\"\r\n        );\r\n        _;\r\n    }\r\n\r\n    function requestCard(address _address, string memory _ipfsHash)\r\n        public\r\n        onlyPRCProfessional\r\n    {\r\n        requests[_address].request = new Request(this, _address, _ipfsHash);\r\n        emit RequestCardEvent(msg.sender, _ipfsHash, block.timestamp);\r\n    }\r\n\r\n    function requestCPDUnits(address _address, string memory _ipfsHash)\r\n        public\r\n        onlyPRCProfessional\r\n    {\r\n        requests[_address].request = new Request(this, _address, _ipfsHash);\r\n        emit RequestCPDUnitsEvent(_address, _ipfsHash, block.timestamp);\r\n    }\r\n\r\n    function requestRenewal(address _address, string memory _ipfsHash)\r\n        public\r\n        onlyPRCProfessional\r\n    {\r\n        requests[_address].request = new Request(this, _address, _ipfsHash);\r\n        emit RequestRenewalEvent(_address, _ipfsHash, block.timestamp);\r\n    }\r\n\r\n    function viewRequest(address _address)\r\n        public\r\n        view\r\n        returns (string memory ipfsHash)\r\n    {\r\n        return (requests[_address].request.getHash());\r\n    }\r\n\r\n    // Roles\r\n\r\n    modifier onlyAdmin() {\r\n        require(\r\n            hasRole(DEFAULT_ADMIN_ROLE, msg.sender),\r\n            \"Restricted to admins.\"\r\n        );\r\n        _;\r\n    }\r\n\r\n    function addPRCEmployee(address account) public onlyAdmin {\r\n        grantRole(PRC_EMP_ROLE, account);\r\n    }\r\n\r\n    function removePRCEmployee(address account) public onlyAdmin {\r\n        revokeRole(PRC_EMP_ROLE, account);\r\n    }\r\n\r\n    function addPRCProfessional(address account) public onlyPRCEmployee {\r\n        grantRole(PRC_PROF_ROLE, account);\r\n    }\r\n\r\n    function removePRCProfessional(address account) public onlyPRCEmployee {\r\n        revokeRole(PRC_PROF_ROLE, account);\r\n    }\r\n}\r\n",
  "sourcePath": "C:\\Users\\kcabu\\Documents\\New folder (2)\\thesis-ethereum\\truffle\\contracts\\Manager.sol",
  "compiler": {
    "name": "solc",
    "version": "0.8.7+commit.e28d00a7.Emscripten.clang"
  },
  "schemaVersion": "3.4.3",
  "updatedAt": "2022-02-20T05:40:54.907Z",
  "networkType": "ethereum",
  "devdoc": {
    "kind": "dev",
    "methods": {
      "getRoleAdmin(bytes32)": {
        "details": "Returns the admin role that controls `role`. See {grantRole} and {revokeRole}. To change a role's admin, use {_setRoleAdmin}."
      },
      "grantRole(bytes32,address)": {
        "details": "Grants `role` to `account`. If `account` had not been already granted `role`, emits a {RoleGranted} event. Requirements: - the caller must have ``role``'s admin role."
      },
      "hasRole(bytes32,address)": {
        "details": "Returns `true` if `account` has been granted `role`."
      },
      "renounceRole(bytes32,address)": {
        "details": "Revokes `role` from the calling account. Roles are often managed via {grantRole} and {revokeRole}: this function's purpose is to provide a mechanism for accounts to lose their privileges if they are compromised (such as when a trusted device is misplaced). If the calling account had been revoked `role`, emits a {RoleRevoked} event. Requirements: - the caller must be `account`."
      },
      "revokeRole(bytes32,address)": {
        "details": "Revokes `role` from `account`. If `account` had been granted `role`, emits a {RoleRevoked} event. Requirements: - the caller must have ``role``'s admin role."
      },
      "supportsInterface(bytes4)": {
        "details": "See {IERC165-supportsInterface}."
      }
    },
    "version": 1
  },
  "userdoc": {
    "kind": "user",
    "methods": {},
    "version": 1
  }
}