{
  "contractName": "Request",
  "abi": [
    {
      "inputs": [
        {
          "internalType": "contract Manager",
          "name": "_parentContract",
          "type": "address"
        },
        {
          "internalType": "address",
          "name": "_address",
          "type": "address"
        },
        {
          "internalType": "string",
          "name": "_ipfsHash",
          "type": "string"
        }
      ],
      "stateMutability": "nonpayable",
      "type": "constructor"
    },
    {
      "inputs": [],
      "name": "ipfsHash",
      "outputs": [
        {
          "internalType": "string",
          "name": "",
          "type": "string"
        }
      ],
      "stateMutability": "view",
      "type": "function"
    },
    {
      "inputs": [],
      "name": "userAddress",
      "outputs": [
        {
          "internalType": "address",
          "name": "",
          "type": "address"
        }
      ],
      "stateMutability": "view",
      "type": "function"
    },
    {
      "inputs": [
        {
          "internalType": "string",
          "name": "_ipfsHash",
          "type": "string"
        }
      ],
      "name": "setHash",
      "outputs": [],
      "stateMutability": "nonpayable",
      "type": "function"
    },
    {
      "inputs": [],
      "name": "getHash",
      "outputs": [
        {
          "internalType": "string",
          "name": "",
          "type": "string"
        }
      ],
      "stateMutability": "view",
      "type": "function"
    }
  ],
  "bytecode": "0x60806040523480156200001157600080fd5b5060405162000ac938038062000ac9833981810160405281019062000037919062000236565b82600260006101000a81548173ffffffffffffffffffffffffffffffffffffffff021916908373ffffffffffffffffffffffffffffffffffffffff160217905550816000806101000a81548173ffffffffffffffffffffffffffffffffffffffff021916908373ffffffffffffffffffffffffffffffffffffffff1602179055508060019080519060200190620000d0929190620000da565b50505050620004b1565b828054620000e8906200038e565b90600052602060002090601f0160209004810192826200010c576000855562000158565b82601f106200012757805160ff191683800117855562000158565b8280016001018555821562000158579182015b82811115620001575782518255916020019190600101906200013a565b5b5090506200016791906200016b565b5090565b5b80821115620001865760008160009055506001016200016c565b5090565b6000620001a16200019b84620002da565b620002b1565b905082815260208101848484011115620001c057620001bf6200045d565b5b620001cd84828562000358565b509392505050565b600081519050620001e6816200047d565b92915050565b600081519050620001fd8162000497565b92915050565b600082601f8301126200021b576200021a62000458565b5b81516200022d8482602086016200018a565b91505092915050565b60008060006060848603121562000252576200025162000467565b5b60006200026286828701620001ec565b93505060206200027586828701620001d5565b925050604084015167ffffffffffffffff81111562000299576200029862000462565b5b620002a78682870162000203565b9150509250925092565b6000620002bd620002d0565b9050620002cb8282620003c4565b919050565b6000604051905090565b600067ffffffffffffffff821115620002f857620002f762000429565b5b62000303826200046c565b9050602081019050919050565b60006200031d8262000338565b9050919050565b6000620003318262000310565b9050919050565b600073ffffffffffffffffffffffffffffffffffffffff82169050919050565b60005b83811015620003785780820151818401526020810190506200035b565b8381111562000388576000848401525b50505050565b60006002820490506001821680620003a757607f821691505b60208210811415620003be57620003bd620003fa565b5b50919050565b620003cf826200046c565b810181811067ffffffffffffffff82111715620003f157620003f062000429565b5b80604052505050565b7f4e487b7100000000000000000000000000000000000000000000000000000000600052602260045260246000fd5b7f4e487b7100000000000000000000000000000000000000000000000000000000600052604160045260246000fd5b600080fd5b600080fd5b600080fd5b600080fd5b6000601f19601f8301169050919050565b620004888162000310565b81146200049457600080fd5b50565b620004a28162000324565b8114620004ae57600080fd5b50565b61060880620004c16000396000f3fe608060405234801561001057600080fd5b506004361061004c5760003560e01c80631ed83fd414610051578063c623674f1461006d578063d13319c41461008b578063e4128fb3146100a9575b600080fd5b61006b60048036038101906100669190610338565b6100c7565b005b6100756100e1565b60405161008291906103e4565b60405180910390f35b61009361016f565b6040516100a091906103e4565b60405180910390f35b6100b1610201565b6040516100be91906103c9565b60405180910390f35b80600190805190602001906100dd929190610225565b5050565b600180546100ee906104ec565b80601f016020809104026020016040519081016040528092919081815260200182805461011a906104ec565b80156101675780601f1061013c57610100808354040283529160200191610167565b820191906000526020600020905b81548152906001019060200180831161014a57829003601f168201915b505050505081565b60606001805461017e906104ec565b80601f01602080910402602001604051908101604052809291908181526020018280546101aa906104ec565b80156101f75780601f106101cc576101008083540402835291602001916101f7565b820191906000526020600020905b8154815290600101906020018083116101da57829003601f168201915b5050505050905090565b60008054906101000a900473ffffffffffffffffffffffffffffffffffffffff1681565b828054610231906104ec565b90600052602060002090601f016020900481019282610253576000855561029a565b82601f1061026c57805160ff191683800117855561029a565b8280016001018555821561029a579182015b8281111561029957825182559160200191906001019061027e565b5b5090506102a791906102ab565b5090565b5b808211156102c45760008160009055506001016102ac565b5090565b60006102db6102d68461042b565b610406565b9050828152602081018484840111156102f7576102f66105b2565b5b6103028482856104aa565b509392505050565b600082601f83011261031f5761031e6105ad565b5b813561032f8482602086016102c8565b91505092915050565b60006020828403121561034e5761034d6105bc565b5b600082013567ffffffffffffffff81111561036c5761036b6105b7565b5b6103788482850161030a565b91505092915050565b61038a81610478565b82525050565b600061039b8261045c565b6103a58185610467565b93506103b58185602086016104b9565b6103be816105c1565b840191505092915050565b60006020820190506103de6000830184610381565b92915050565b600060208201905081810360008301526103fe8184610390565b905092915050565b6000610410610421565b905061041c828261051e565b919050565b6000604051905090565b600067ffffffffffffffff8211156104465761044561057e565b5b61044f826105c1565b9050602081019050919050565b600081519050919050565b600082825260208201905092915050565b60006104838261048a565b9050919050565b600073ffffffffffffffffffffffffffffffffffffffff82169050919050565b82818337600083830152505050565b60005b838110156104d75780820151818401526020810190506104bc565b838111156104e6576000848401525b50505050565b6000600282049050600182168061050457607f821691505b602082108114156105185761051761054f565b5b50919050565b610527826105c1565b810181811067ffffffffffffffff821117156105465761054561057e565b5b80604052505050565b7f4e487b7100000000000000000000000000000000000000000000000000000000600052602260045260246000fd5b7f4e487b7100000000000000000000000000000000000000000000000000000000600052604160045260246000fd5b600080fd5b600080fd5b600080fd5b600080fd5b6000601f19601f830116905091905056fea264697066735822122043467b0d4eb751a4ffd04ac45d2d2cd1dcb5c27841e4a682f54f9ede4815c7c964736f6c63430008070033",
  "immutableReferences": {},
  "source": "pragma solidity ^0.8.7;\r\n\r\nimport \"./Manager.sol\";\r\n\r\ncontract Request {\r\n    address public userAddress;\r\n    string public ipfsHash;\r\n\r\n    Manager parentContract;\r\n\r\n    constructor(\r\n        Manager _parentContract,\r\n        address _address,\r\n        string memory _ipfsHash\r\n    ) public {\r\n        parentContract = _parentContract;\r\n        userAddress = _address;\r\n        ipfsHash = _ipfsHash;\r\n    }\r\n\r\n    function setHash(string memory _ipfsHash) public {\r\n        ipfsHash = _ipfsHash;\r\n    }\r\n\r\n    function getHash() public view returns (string memory) {\r\n        return ipfsHash;\r\n    }\r\n}\r\n",
  "sourcePath": "C:\\Users\\kcabu\\Documents\\New folder (2)\\thesis-ethereum\\truffle\\contracts\\Request.sol",
  "compiler": {
    "name": "solc",
    "version": "0.8.7+commit.e28d00a7.Emscripten.clang"
  },
  "schemaVersion": "3.4.3",
  "updatedAt": "2022-02-23T02:19:38.479Z",
  "devdoc": {
    "kind": "dev",
    "methods": {},
    "version": 1
  },
  "userdoc": {
    "kind": "user",
    "methods": {},
    "version": 1
  }
}